{
  "transactions": [
    {
      "hash": "0x73f306a2cae52be98c285d2bf36341d090ffc531f92c1c97d770f00c69dd7f56",
      "transactionType": "CREATE",
      "contractName": "ERC20MintableMock",
      "contractAddress": "0x930252c65d369448b369cb1955530a396fe738bd",
      "function": null,
      "arguments": [
        "0x89a76D7a4D006bDB9Efd0923A346fAe9437D434F",
        "doge",
        "DOGE"
      ],
      "transaction": {
        "from": "0x89a76d7a4d006bdb9efd0923a346fae9437d434f",
        "gas": "0xe8da9",
        "value": "0x0",
        "input": "0x608060405234620003435762000f26803803806200001d8162000348565b92833981019060608183031262000343578051906001600160a01b0382168203620003435760208181015190916001600160401b0391828111620003435785620000699183016200036e565b94604082015183811162000343576200008392016200036e565b9380519082821162000243576003918254906001928383811c9316801562000338575b8784101462000322578190601f93848111620002cc575b508790848311600114620002655760009262000259575b505060001982861b1c191690831b1783555b8651938411620002435760049485548381811c9116801562000238575b828210146200022357828111620001d8575b508091851160011462000168575083929183916200014b986000956200015c575b50501b92600019911b1c1916179055620003e0565b50604051610ab39081620004738239f35b01519350388062000136565b91939290601f198416978660005283600020936000905b8a8210620001c0575050846200014b9910620001a5575b50505050811b019055620003e0565b01519060f884600019921b161c191690553880808062000196565b8088859782949686015181550196019301906200017f565b86600052816000208380880160051c82019284891062000219575b0160051c019084905b8281106200020c57505062000115565b60008155018490620001fc565b92508192620001f3565b602287634e487b7160e01b6000525260246000fd5b90607f169062000103565b634e487b7160e01b600052604160045260246000fd5b015190503880620000d4565b90859350601f1983169187600052896000209260005b8b828210620002b557505084116200029c575b505050811b018355620000e6565b015160001983881b60f8161c191690553880806200028e565b83850151865589979095019493840193016200027b565b90915085600052876000208480850160051c8201928a861062000318575b918791869594930160051c01915b82811062000308575050620000bd565b60008155859450879101620002f8565b92508192620002ea565b634e487b7160e01b600052602260045260246000fd5b92607f1692620000a6565b600080fd5b6040519190601f01601f191682016001600160401b038111838210176200024357604052565b919080601f84011215620003435782516001600160401b0381116200024357602090620003a4601f8201601f1916830162000348565b92818452828287010111620003435760005b818110620003cc57508260009394955001015290565b8581018301518482018401528201620003b6565b6001600160a01b031660008181527f05b8ccbb9d4d8fb16ea74ce3c29a41f1b461fbdaff4714a0d9a8eb05499746bc602052604081205490919060ff166200046e5781805260056020526040822081835260205260408220600160ff1982541617905533917f2f8788117e7eff1d82e926ec794901d17c78024a50270940304540a733656f0d8180a4600190565b509056fe608060408181526004918236101561001657600080fd5b600092833560e01c91826301ffc9a7146107975750816306fdde03146106bd578163095ea7b31461061357816318160ddd146105f457816323b872dd146104fd578163248a9ca3146104d25781632f2ff15d146104a8578163313ce5671461048c57816336568abe1461044657816340c10f191461039e57816370a082311461036757816391d148541461032057816395d89b4114610201578163a217fddf146101e6578163a9059cbb146101b5578163d53913931461017a578163d547741f14610136575063dd62ed3e146100eb57600080fd5b3461013257806003193601126101325780602092610107610833565b61010f61084e565b6001600160a01b0391821683526001865283832091168252845220549051908152f35b5080fd5b91905034610176578060031936011261017657610172913561016d600161015b61084e565b93838752600560205286200154610864565b610928565b5080f35b8280fd5b505034610132578160031936011261013257602090517f9f2df0fed2c77648de5860a4cc508cd0818c85b8b8a1ab4ceeef8d981c8956a68152f35b5050346101325780600319360112610132576020906101df6101d5610833565b602435903361099f565b5160018152f35b50503461013257816003193601126101325751908152602090f35b838334610132578160031936011261013257805190828454600181811c90808316928315610316575b6020938484108114610303578388529081156102e75750600114610292575b505050829003601f01601f191682019267ffffffffffffffff84118385101761027f575082918261027b9252826107ea565b0390f35b634e487b7160e01b815260418552602490fd5b8787529192508591837f8a35acfbc15ff81a39ae7d344fd709f28e8600b4aa8c65c6b64bfe7fe36bd19b5b8385106102d35750505050830101858080610249565b8054888601830152930192849082016102bd565b60ff1916878501525050151560051b8401019050858080610249565b634e487b7160e01b895260228a52602489fd5b91607f169161022a565b9050346101765781600319360112610176578160209360ff9261034161084e565b90358252600586528282206001600160a01b039091168252855220549151911615158152f35b5050346101325760203660031901126101325760209181906001600160a01b0361038f610833565b16815280845220549051908152f35b919050346101765780600319360112610176576103b9610833565b6001600160a01b03169160243591908315610431576002549083820180921161041e575084927fddf252ad1be2c89b69c2b068fc378daa952ba7f163c4a11628f55a4df523b3ef9260209260025585855284835280852082815401905551908152a380f35b634e487b7160e01b865260119052602485fd5b84602492519163ec442f0560e01b8352820152fd5b83833461013257806003193601126101325761046061084e565b90336001600160a01b0383160361047d5750610172919235610928565b5163334bd91960e11b81528390fd5b5050346101325781600319360112610132576020905160128152f35b9190503461017657806003193601126101765761017291356104cd600161015b61084e565b6108a8565b9050346101765760203660031901126101765781602093600192358152600585522001549051908152f35b905082346105f15760603660031901126105f157610519610833565b61052161084e565b916044359360018060a01b03831680835260016020528683203384526020528683205491600019830361055d575b6020886101df89898961099f565b8683106105c55781156105ae573315610597575082526001602090815286832033845281529186902090859003905582906101df8761054f565b8751634a1406b160e11b8152908101849052602490fd5b875163e602df0560e01b8152908101849052602490fd5b8751637dc7a0d960e11b8152339181019182526020820193909352604081018790528291506060010390fd5b80fd5b5050346101325781600319360112610132576020906002549051908152f35b90503461017657816003193601126101765761062d610833565b6024359033156106a6576001600160a01b031691821561068f57508083602095338152600187528181208582528752205582519081527f8c5be1e5ebec7d5bd14f71427d1e84f3dd0314c0f7b2291e5b200ac8c7c3b925843392a35160018152f35b8351634a1406b160e11b8152908101859052602490fd5b835163e602df0560e01b8152808401869052602490fd5b83833461013257816003193601126101325780519082600354600181811c9080831692831561078d575b6020938484108114610303578388529081156102e7575060011461073757505050829003601f01601f191682019267ffffffffffffffff84118385101761027f575082918261027b9252826107ea565b600387529192508591837fc2575a0e9e593c00f959f8c92f12db2869c3395a3b0502d05e2516446f71f85b5b8385106107795750505050830101858080610249565b805488860183015293019284908201610763565b91607f16916106e7565b849134610176576020366003190112610176573563ffffffff60e01b81168091036101765760209250637965db0b60e01b81149081156107d9575b5015158152f35b6301ffc9a760e01b149050836107d2565b6020808252825181830181905290939260005b82811061081f57505060409293506000838284010152601f8019910116010190565b8181018601518482016040015285016107fd565b600435906001600160a01b038216820361084957565b600080fd5b602435906001600160a01b038216820361084957565b80600052600560205260406000203360005260205260ff604060002054161561088a5750565b6044906040519063e2517d3f60e01b82523360048301526024820152fd5b906000918083526005602052604083209160018060a01b03169182845260205260ff604084205416156000146109235780835260056020526040832082845260205260408320600160ff198254161790557f2f8788117e7eff1d82e926ec794901d17c78024a50270940304540a733656f0d339380a4600190565b505090565b906000918083526005602052604083209160018060a01b03169182845260205260ff604084205416600014610923578083526005602052604083208284526020526040832060ff1981541690557ff6391f5c32d9c69d2a47ea670b442974b53935d1edc7fd64eb21e047a839171b339380a4600190565b916001600160a01b03808416928315610a645716928315610a4b5760009083825281602052604082205490838210610a19575091604082827fddf252ad1be2c89b69c2b068fc378daa952ba7f163c4a11628f55a4df523b3ef958760209652828652038282205586815220818154019055604051908152a3565b60405163391434e360e21b81526001600160a01b03919091166004820152602481019190915260448101839052606490fd5b60405163ec442f0560e01b815260006004820152602490fd5b604051634b637e8f60e11b815260006004820152602490fdfea26469706673582212203f970d13b30f9a4a943ee23317f6f9b07370a781e72c5ef5354afa581118d7d864736f6c6343000815003300000000000000000000000089a76d7a4d006bdb9efd0923a346fae9437d434f000000000000000000000000000000000000000000000000000000000000006000000000000000000000000000000000000000000000000000000000000000a00000000000000000000000000000000000000000000000000000000000000004646f6765000000000000000000000000000000000000000000000000000000000000000000000000000000000000000000000000000000000000000000000004444f474500000000000000000000000000000000000000000000000000000000",
        "nonce": "0x12",
        "chainId": "0x221"
      },
      "additionalContracts": [],
      "isFixedGasLimit": false
    },
    {
      "hash": "0x775f798d1b78b77a793742e4cc7bfd8d33c3929707af915f201fb6761b2a3482",
      "transactionType": "CREATE",
      "contractName": "ERC20MintableMock",
      "contractAddress": "0x7090120134cf3bb49f83bb2195d9731a25583f98",
      "function": null,
      "arguments": [
        "0x89a76D7a4D006bDB9Efd0923A346fAe9437D434F",
        "USDC Token",
        "USDC"
      ],
      "transaction": {
        "from": "0x89a76d7a4d006bdb9efd0923a346fae9437d434f",
        "gas": "0xe8e07",
        "value": "0x0",
        "input": "0x608060405234620003435762000f26803803806200001d8162000348565b92833981019060608183031262000343578051906001600160a01b0382168203620003435760208181015190916001600160401b0391828111620003435785620000699183016200036e565b94604082015183811162000343576200008392016200036e565b9380519082821162000243576003918254906001928383811c9316801562000338575b8784101462000322578190601f93848111620002cc575b508790848311600114620002655760009262000259575b505060001982861b1c191690831b1783555b8651938411620002435760049485548381811c9116801562000238575b828210146200022357828111620001d8575b508091851160011462000168575083929183916200014b986000956200015c575b50501b92600019911b1c1916179055620003e0565b50604051610ab39081620004738239f35b01519350388062000136565b91939290601f198416978660005283600020936000905b8a8210620001c0575050846200014b9910620001a5575b50505050811b019055620003e0565b01519060f884600019921b161c191690553880808062000196565b8088859782949686015181550196019301906200017f565b86600052816000208380880160051c82019284891062000219575b0160051c019084905b8281106200020c57505062000115565b60008155018490620001fc565b92508192620001f3565b602287634e487b7160e01b6000525260246000fd5b90607f169062000103565b634e487b7160e01b600052604160045260246000fd5b015190503880620000d4565b90859350601f1983169187600052896000209260005b8b828210620002b557505084116200029c575b505050811b018355620000e6565b015160001983881b60f8161c191690553880806200028e565b83850151865589979095019493840193016200027b565b90915085600052876000208480850160051c8201928a861062000318575b918791869594930160051c01915b82811062000308575050620000bd565b60008155859450879101620002f8565b92508192620002ea565b634e487b7160e01b600052602260045260246000fd5b92607f1692620000a6565b600080fd5b6040519190601f01601f191682016001600160401b038111838210176200024357604052565b919080601f84011215620003435782516001600160401b0381116200024357602090620003a4601f8201601f1916830162000348565b92818452828287010111620003435760005b818110620003cc57508260009394955001015290565b8581018301518482018401528201620003b6565b6001600160a01b031660008181527f05b8ccbb9d4d8fb16ea74ce3c29a41f1b461fbdaff4714a0d9a8eb05499746bc602052604081205490919060ff166200046e5781805260056020526040822081835260205260408220600160ff1982541617905533917f2f8788117e7eff1d82e926ec794901d17c78024a50270940304540a733656f0d8180a4600190565b509056fe608060408181526004918236101561001657600080fd5b600092833560e01c91826301ffc9a7146107975750816306fdde03146106bd578163095ea7b31461061357816318160ddd146105f457816323b872dd146104fd578163248a9ca3146104d25781632f2ff15d146104a8578163313ce5671461048c57816336568abe1461044657816340c10f191461039e57816370a082311461036757816391d148541461032057816395d89b4114610201578163a217fddf146101e6578163a9059cbb146101b5578163d53913931461017a578163d547741f14610136575063dd62ed3e146100eb57600080fd5b3461013257806003193601126101325780602092610107610833565b61010f61084e565b6001600160a01b0391821683526001865283832091168252845220549051908152f35b5080fd5b91905034610176578060031936011261017657610172913561016d600161015b61084e565b93838752600560205286200154610864565b610928565b5080f35b8280fd5b505034610132578160031936011261013257602090517f9f2df0fed2c77648de5860a4cc508cd0818c85b8b8a1ab4ceeef8d981c8956a68152f35b5050346101325780600319360112610132576020906101df6101d5610833565b602435903361099f565b5160018152f35b50503461013257816003193601126101325751908152602090f35b838334610132578160031936011261013257805190828454600181811c90808316928315610316575b6020938484108114610303578388529081156102e75750600114610292575b505050829003601f01601f191682019267ffffffffffffffff84118385101761027f575082918261027b9252826107ea565b0390f35b634e487b7160e01b815260418552602490fd5b8787529192508591837f8a35acfbc15ff81a39ae7d344fd709f28e8600b4aa8c65c6b64bfe7fe36bd19b5b8385106102d35750505050830101858080610249565b8054888601830152930192849082016102bd565b60ff1916878501525050151560051b8401019050858080610249565b634e487b7160e01b895260228a52602489fd5b91607f169161022a565b9050346101765781600319360112610176578160209360ff9261034161084e565b90358252600586528282206001600160a01b039091168252855220549151911615158152f35b5050346101325760203660031901126101325760209181906001600160a01b0361038f610833565b16815280845220549051908152f35b919050346101765780600319360112610176576103b9610833565b6001600160a01b03169160243591908315610431576002549083820180921161041e575084927fddf252ad1be2c89b69c2b068fc378daa952ba7f163c4a11628f55a4df523b3ef9260209260025585855284835280852082815401905551908152a380f35b634e487b7160e01b865260119052602485fd5b84602492519163ec442f0560e01b8352820152fd5b83833461013257806003193601126101325761046061084e565b90336001600160a01b0383160361047d5750610172919235610928565b5163334bd91960e11b81528390fd5b5050346101325781600319360112610132576020905160128152f35b9190503461017657806003193601126101765761017291356104cd600161015b61084e565b6108a8565b9050346101765760203660031901126101765781602093600192358152600585522001549051908152f35b905082346105f15760603660031901126105f157610519610833565b61052161084e565b916044359360018060a01b03831680835260016020528683203384526020528683205491600019830361055d575b6020886101df89898961099f565b8683106105c55781156105ae573315610597575082526001602090815286832033845281529186902090859003905582906101df8761054f565b8751634a1406b160e11b8152908101849052602490fd5b875163e602df0560e01b8152908101849052602490fd5b8751637dc7a0d960e11b8152339181019182526020820193909352604081018790528291506060010390fd5b80fd5b5050346101325781600319360112610132576020906002549051908152f35b90503461017657816003193601126101765761062d610833565b6024359033156106a6576001600160a01b031691821561068f57508083602095338152600187528181208582528752205582519081527f8c5be1e5ebec7d5bd14f71427d1e84f3dd0314c0f7b2291e5b200ac8c7c3b925843392a35160018152f35b8351634a1406b160e11b8152908101859052602490fd5b835163e602df0560e01b8152808401869052602490fd5b83833461013257816003193601126101325780519082600354600181811c9080831692831561078d575b6020938484108114610303578388529081156102e7575060011461073757505050829003601f01601f191682019267ffffffffffffffff84118385101761027f575082918261027b9252826107ea565b600387529192508591837fc2575a0e9e593c00f959f8c92f12db2869c3395a3b0502d05e2516446f71f85b5b8385106107795750505050830101858080610249565b805488860183015293019284908201610763565b91607f16916106e7565b849134610176576020366003190112610176573563ffffffff60e01b81168091036101765760209250637965db0b60e01b81149081156107d9575b5015158152f35b6301ffc9a760e01b149050836107d2565b6020808252825181830181905290939260005b82811061081f57505060409293506000838284010152601f8019910116010190565b8181018601518482016040015285016107fd565b600435906001600160a01b038216820361084957565b600080fd5b602435906001600160a01b038216820361084957565b80600052600560205260406000203360005260205260ff604060002054161561088a5750565b6044906040519063e2517d3f60e01b82523360048301526024820152fd5b906000918083526005602052604083209160018060a01b03169182845260205260ff604084205416156000146109235780835260056020526040832082845260205260408320600160ff198254161790557f2f8788117e7eff1d82e926ec794901d17c78024a50270940304540a733656f0d339380a4600190565b505090565b906000918083526005602052604083209160018060a01b03169182845260205260ff604084205416600014610923578083526005602052604083208284526020526040832060ff1981541690557ff6391f5c32d9c69d2a47ea670b442974b53935d1edc7fd64eb21e047a839171b339380a4600190565b916001600160a01b03808416928315610a645716928315610a4b5760009083825281602052604082205490838210610a19575091604082827fddf252ad1be2c89b69c2b068fc378daa952ba7f163c4a11628f55a4df523b3ef958760209652828652038282205586815220818154019055604051908152a3565b60405163391434e360e21b81526001600160a01b03919091166004820152602481019190915260448101839052606490fd5b60405163ec442f0560e01b815260006004820152602490fd5b604051634b637e8f60e11b815260006004820152602490fdfea26469706673582212203f970d13b30f9a4a943ee23317f6f9b07370a781e72c5ef5354afa581118d7d864736f6c6343000815003300000000000000000000000089a76d7a4d006bdb9efd0923a346fae9437d434f000000000000000000000000000000000000000000000000000000000000006000000000000000000000000000000000000000000000000000000000000000a0000000000000000000000000000000000000000000000000000000000000000a5553444320546f6b656e0000000000000000000000000000000000000000000000000000000000000000000000000000000000000000000000000000000000045553444300000000000000000000000000000000000000000000000000000000",
        "nonce": "0x13",
        "chainId": "0x221"
      },
      "additionalContracts": [],
      "isFixedGasLimit": false
    },
    {
      "hash": "0x1da7a5a34e35e7cd09009f664d526ae23408ef7b7fed6036e5a9639a972823e4",
      "transactionType": "CALL",
      "contractName": null,
      "contractAddress": "0xb0b0623aaa11eebbfe9ba72c3f627543f302468d",
      "function": "createMarket((bool,address,address,address,address,uint256,address,uint96,uint256[]))",
      "arguments": [
        "(true, 0x930252c65D369448b369CB1955530a396fE738bd, 0x7090120134CF3Bb49F83bB2195D9731A25583f98, 0xd7D48a64eB6f2ddF740D3258D2df7b2e7122f01A, 0xE8D1f26F703f27abE60D3cf324BEF6cE197D82AF, 800000000000000000, 0x29306A367e1185BbC2a8E92A54a33c0B52350564, 2000000000000000000, [1000000000000000000, 1200000000000000000, 1400000000000000000, 1600000000000000000, 2000000000000000000])"
      ],
      "transaction": {
        "from": "0x89a76d7a4d006bdb9efd0923a346fae9437d434f",
        "to": "0xb0b0623aaa11eebbfe9ba72c3f627543f302468d",
        "gas": "0x34e33f",
        "value": "0x0",
        "input": "0x73c368d600000000000000000000000000000000000000000000000000000000000000200000000000000000000000000000000000000000000000000000000000000001000000000000000000000000930252c65d369448b369cb1955530a396fe738bd0000000000000000000000007090120134cf3bb49f83bb2195d9731a25583f98000000000000000000000000d7d48a64eb6f2ddf740d3258d2df7b2e7122f01a000000000000000000000000e8d1f26f703f27abe60d3cf324bef6ce197d82af0000000000000000000000000000000000000000000000000b1a2bc2ec50000000000000000000000000000029306a367e1185bbc2a8e92a54a33c0b523505640000000000000000000000000000000000000000000000001bc16d674ec80000000000000000000000000000000000000000000000000000000000000000012000000000000000000000000000000000000000000000000000000000000000050000000000000000000000000000000000000000000000000de0b6b3a764000000000000000000000000000000000000000000000000000010a741a462780000000000000000000000000000000000000000000000000000136dcc951d8c000000000000000000000000000000000000000000000000000016345785d8a000000000000000000000000000000000000000000000000000001bc16d674ec80000",
        "nonce": "0x14",
        "chainId": "0x221"
      },
      "additionalContracts": [
        {
          "transactionType": "CREATE",
          "address": "0x1d344f9473fa25ad4714dc66a50bd43ebbde09c2",
          "initCode": "0x3d602d80600a3d3981f3363d3d373d3d3d363d732c34c06cddb632d1deb01ea48c9b14862fa44e895af43d82803e903d91602b57fd5bf3"
        }
      ],
      "isFixedGasLimit": false
    },
    {
      "hash": "0x6731d0e6749939970a7d764a7d5fd3408996ed2d64aab05b22f8039b3db6a84c",
      "transactionType": "CALL",
      "contractName": "ERC20MintableMock",
      "contractAddress": "0x930252c65d369448b369cb1955530a396fe738bd",
      "function": "mint(address,uint256)",
      "arguments": [
        "0x89a76D7a4D006bDB9Efd0923A346fAe9437D434F",
        "1000000000000000000000000"
      ],
      "transaction": {
        "from": "0x89a76d7a4d006bdb9efd0923a346fae9437d434f",
        "to": "0x930252c65d369448b369cb1955530a396fe738bd",
        "gas": "0x1701a",
        "value": "0x0",
        "input": "0x40c10f1900000000000000000000000089a76d7a4d006bdb9efd0923a346fae9437d434f00000000000000000000000000000000000000000000d3c21bcecceda1000000",
        "nonce": "0x15",
        "chainId": "0x221"
      },
      "additionalContracts": [],
      "isFixedGasLimit": false
    },
    {
      "hash": "0x4a13ac21165e049e7948c9d35a915d3f5beed988ee187e0f6af07de7911e6545",
      "transactionType": "CALL",
      "contractName": "ERC20MintableMock",
      "contractAddress": "0x930252c65d369448b369cb1955530a396fe738bd",
      "function": "approve(address,uint256)",
      "arguments": [
        "0xb0b0623aaA11eEbBfe9bA72C3f627543F302468d",
        "1000000000000000000000000"
      ],
      "transaction": {
        "from": "0x89a76d7a4d006bdb9efd0923a346fae9437d434f",
        "to": "0x930252c65d369448b369cb1955530a396fe738bd",
        "gas": "0xf845",
        "value": "0x0",
        "input": "0x095ea7b3000000000000000000000000b0b0623aaa11eebbfe9ba72c3f627543f302468d00000000000000000000000000000000000000000000d3c21bcecceda1000000",
        "nonce": "0x16",
        "chainId": "0x221"
      },
      "additionalContracts": [],
      "isFixedGasLimit": false
    },
    {
      "hash": "0x42c7953dba73e35eec0a6102b80a9aaa807214072fa0e78143d2ff8d31572f07",
      "transactionType": "CALL",
      "contractName": "ERC20MintableMock",
      "contractAddress": "0x7090120134cf3bb49f83bb2195d9731a25583f98",
      "function": "mint(address,uint256)",
      "arguments": [
        "0x89a76D7a4D006bDB9Efd0923A346fAe9437D434F",
        "1000000000000000000000000"
      ],
      "transaction": {
        "from": "0x89a76d7a4d006bdb9efd0923a346fae9437d434f",
        "to": "0x7090120134cf3bb49f83bb2195d9731a25583f98",
        "gas": "0x1701a",
        "value": "0x0",
        "input": "0x40c10f1900000000000000000000000089a76d7a4d006bdb9efd0923a346fae9437d434f00000000000000000000000000000000000000000000d3c21bcecceda1000000",
        "nonce": "0x17",
        "chainId": "0x221"
      },
      "additionalContracts": [],
      "isFixedGasLimit": false
    },
    {
      "hash": "0x327543c2f403800651a1346518bd9ffcfef5889f051a364fce7665becf48e581",
      "transactionType": "CALL",
      "contractName": "ERC20MintableMock",
      "contractAddress": "0x7090120134cf3bb49f83bb2195d9731a25583f98",
      "function": "approve(address,uint256)",
      "arguments": [
        "0xb0b0623aaA11eEbBfe9bA72C3f627543F302468d",
        "1000000000000000000000000"
      ],
      "transaction": {
        "from": "0x89a76d7a4d006bdb9efd0923a346fae9437d434f",
        "to": "0x7090120134cf3bb49f83bb2195d9731a25583f98",
        "gas": "0xf845",
        "value": "0x0",
        "input": "0x095ea7b3000000000000000000000000b0b0623aaa11eebbfe9ba72c3f627543f302468d00000000000000000000000000000000000000000000d3c21bcecceda1000000",
        "nonce": "0x18",
        "chainId": "0x221"
      },
      "additionalContracts": [],
      "isFixedGasLimit": false
    },
    {
      "hash": "0xc637c54ad3caaeefe5cc78c2ea902d2f5ea7b64bbbaadbca52a284b49180da34",
      "transactionType": "CALL",
      "contractName": null,
      "contractAddress": "0xb0b0623aaa11eebbfe9ba72c3f627543f302468d",
      "function": "supply((bool,address,address,address,address,uint256,address,uint96,uint256[]),uint256,uint256,address,bytes)",
      "arguments": [
        "(true, 0x930252c65D369448b369CB1955530a396fE738bd, 0x7090120134CF3Bb49F83bB2195D9731A25583f98, 0xd7D48a64eB6f2ddF740D3258D2df7b2e7122f01A, 0xE8D1f26F703f27abE60D3cf324BEF6cE197D82AF, 800000000000000000, 0x29306A367e1185BbC2a8E92A54a33c0B52350564, 2000000000000000000, [1000000000000000000, 1200000000000000000, 1400000000000000000, 1600000000000000000, 2000000000000000000])",
        "10000000000000000000000",
        "0",
        "0x89a76D7a4D006bDB9Efd0923A346fAe9437D434F",
        "0x"
      ],
      "transaction": {
        "from": "0x89a76d7a4d006bdb9efd0923a346fae9437d434f",
        "to": "0xb0b0623aaa11eebbfe9ba72c3f627543f302468d",
        "gas": "0x2c131",
        "value": "0x0",
        "input": "0xfcd1af1700000000000000000000000000000000000000000000000000000000000000a000000000000000000000000000000000000000000000021e19e0c9bab2400000000000000000000000000000000000000000000000000000000000000000000000000000000000000000000089a76d7a4d006bdb9efd0923a346fae9437d434f00000000000000000000000000000000000000000000000000000000000002800000000000000000000000000000000000000000000000000000000000000001000000000000000000000000930252c65d369448b369cb1955530a396fe738bd0000000000000000000000007090120134cf3bb49f83bb2195d9731a25583f98000000000000000000000000d7d48a64eb6f2ddf740d3258d2df7b2e7122f01a000000000000000000000000e8d1f26f703f27abe60d3cf324bef6ce197d82af0000000000000000000000000000000000000000000000000b1a2bc2ec50000000000000000000000000000029306a367e1185bbc2a8e92a54a33c0b523505640000000000000000000000000000000000000000000000001bc16d674ec80000000000000000000000000000000000000000000000000000000000000000012000000000000000000000000000000000000000000000000000000000000000050000000000000000000000000000000000000000000000000de0b6b3a764000000000000000000000000000000000000000000000000000010a741a462780000000000000000000000000000000000000000000000000000136dcc951d8c000000000000000000000000000000000000000000000000000016345785d8a000000000000000000000000000000000000000000000000000001bc16d674ec800000000000000000000000000000000000000000000000000000000000000000000",
        "nonce": "0x19",
        "chainId": "0x221"
      },
      "additionalContracts": [],
      "isFixedGasLimit": false
    }
  ],
  "receipts": [
    {
      "status": "0x1",
      "cumulativeGasUsed": "0xb32e7",
      "logs": [
        {
          "address": "0x930252c65d369448b369cb1955530a396fe738bd",
          "topics": [
            "0x2f8788117e7eff1d82e926ec794901d17c78024a50270940304540a733656f0d",
            "0x0000000000000000000000000000000000000000000000000000000000000000",
            "0x00000000000000000000000089a76d7a4d006bdb9efd0923a346fae9437d434f",
            "0x00000000000000000000000089a76d7a4d006bdb9efd0923a346fae9437d434f"
          ],
          "data": "0x",
          "blockHash": "0xc2572ffe923103b4bf726b4e11e68ac035b678e31ffccfab0933d650c461930d",
          "blockNumber": "0x330abf",
          "transactionHash": "0x73f306a2cae52be98c285d2bf36341d090ffc531f92c1c97d770f00c69dd7f56",
          "transactionIndex": "0x0",
          "logIndex": "0x0",
          "removed": false
        }
      ],
      "logsBloom": "0x00000004000000000000000000000000000000001000000000000000000000000000000000000000000000000000000000000000000000000000010000000000000000000000000000000000000000000000000000000000000000000000000000000000020000000000000000000800000008000000000000000000000000000000000000000000000000000000000000000000001000000000000000000000000000000000000000000000000000000000000000000000001000000000000000000000000000000000000000000000000000000000000100000000000020000000000000000000000000000000000000000000000000000000000000000048",
      "type": "0x2",
      "transactionHash": "0x73f306a2cae52be98c285d2bf36341d090ffc531f92c1c97d770f00c69dd7f56",
      "transactionIndex": "0x0",
      "blockHash": "0xc2572ffe923103b4bf726b4e11e68ac035b678e31ffccfab0933d650c461930d",
      "blockNumber": "0x330abf",
      "gasUsed": "0xb32e7",
      "effectiveGasPrice": "0x5f5e100",
      "from": "0x89a76d7a4d006bdb9efd0923a346fae9437d434f",
      "to": null,
      "contractAddress": "0x930252c65d369448b369cb1955530a396fe738bd"
    },
    {
      "status": "0x1",
      "cumulativeGasUsed": "0xb332f",
      "logs": [
        {
          "address": "0x7090120134cf3bb49f83bb2195d9731a25583f98",
          "topics": [
            "0x2f8788117e7eff1d82e926ec794901d17c78024a50270940304540a733656f0d",
            "0x0000000000000000000000000000000000000000000000000000000000000000",
            "0x00000000000000000000000089a76d7a4d006bdb9efd0923a346fae9437d434f",
            "0x00000000000000000000000089a76d7a4d006bdb9efd0923a346fae9437d434f"
          ],
          "data": "0x",
          "blockHash": "0xe1e8a648dc5fe2d7854ade76944ae86058ccb5e557c52c20c3187febcecf3093",
          "blockNumber": "0x330add",
          "transactionHash": "0x775f798d1b78b77a793742e4cc7bfd8d33c3929707af915f201fb6761b2a3482",
          "transactionIndex": "0x0",
          "logIndex": "0x0",
          "removed": false
        }
      ],
      "logsBloom": "0x00000004000000000000000000000000000000000000000000000000000000000000000000000000000000000000000000000000000000000000000000000000000000000000000000000000000000000000000000000000000000000000000000000000020000000000000000000800000008000000000000000000000000000000000000000000000000000000000000000000001000000000000000000000000000000000000000000000000000000000000000000000001000000000000000000400000000000000000000000000000000000020000100000000000020000000000000000000000000000000000000800000000000000000000000000008",
      "type": "0x2",
      "transactionHash": "0x775f798d1b78b77a793742e4cc7bfd8d33c3929707af915f201fb6761b2a3482",
      "transactionIndex": "0x0",
      "blockHash": "0xe1e8a648dc5fe2d7854ade76944ae86058ccb5e557c52c20c3187febcecf3093",
      "blockNumber": "0x330add",
      "gasUsed": "0xb332f",
      "effectiveGasPrice": "0x5f5e100",
      "from": "0x89a76d7a4d006bdb9efd0923a346fae9437d434f",
      "to": null,
      "contractAddress": "0x7090120134cf3bb49f83bb2195d9731a25583f98"
    },
    {
      "status": "0x1",
      "cumulativeGasUsed": "0x264a30",
      "logs": [
        {
          "address": "0x1d344f9473fa25ad4714dc66a50bd43ebbde09c2",
          "topics": [
            "0x8be0079c531659141344cd1fd0a4f28419497f9722a3daafe3b4186f6b6457e0",
            "0x0000000000000000000000000000000000000000000000000000000000000000",
            "0x00000000000000000000000000ea30b52cb2b9e5398863d56ac36653a421a623"
          ],
          "data": "0x",
          "blockHash": "0x84f212d51a398705aeabebfb87e93629183a969368726a520ebb426185b26a8b",
          "blockNumber": "0x330afb",
          "transactionHash": "0x1da7a5a34e35e7cd09009f664d526ae23408ef7b7fed6036e5a9639a972823e4",
          "transactionIndex": "0x0",
          "logIndex": "0x0",
          "removed": false
        },
        {
          "address": "0x1d344f9473fa25ad4714dc66a50bd43ebbde09c2",
          "topics": [
            "0x8be0079c531659141344cd1fd0a4f28419497f9722a3daafe3b4186f6b6457e0",
            "0x00000000000000000000000000ea30b52cb2b9e5398863d56ac36653a421a623",
            "0x000000000000000000000000b0b0623aaa11eebbfe9ba72c3f627543f302468d"
          ],
          "data": "0x",
          "blockHash": "0x84f212d51a398705aeabebfb87e93629183a969368726a520ebb426185b26a8b",
          "blockNumber": "0x330afb",
          "transactionHash": "0x1da7a5a34e35e7cd09009f664d526ae23408ef7b7fed6036e5a9639a972823e4",
          "transactionIndex": "0x0",
          "logIndex": "0x1",
          "removed": false
        },
        {
          "address": "0x1d344f9473fa25ad4714dc66a50bd43ebbde09c2",
          "topics": [
            "0x7f26b83ff96e1f2b6a682f133852f6798a09c465da95921460cefb3847402498"
          ],
          "data": "0x0000000000000000000000000000000000000000000000000000000000000001",
          "blockHash": "0x84f212d51a398705aeabebfb87e93629183a969368726a520ebb426185b26a8b",
          "blockNumber": "0x330afb",
          "transactionHash": "0x1da7a5a34e35e7cd09009f664d526ae23408ef7b7fed6036e5a9639a972823e4",
          "transactionIndex": "0x0",
          "logIndex": "0x2",
          "removed": false
        },
        {
          "address": "0x00ea30b52cb2b9e5398863d56ac36653a421a623",
          "topics": [
            "0x6d7227d9bbb893748017ba3c332f62a2ea59214189741458be5865587226433c"
          ],
          "data": "0x000000000000000000000000b0b0623aaa11eebbfe9ba72c3f627543f302468d0000000000000000000000001d344f9473fa25ad4714dc66a50bd43ebbde09c2",
          "blockHash": "0x84f212d51a398705aeabebfb87e93629183a969368726a520ebb426185b26a8b",
          "blockNumber": "0x330afb",
          "transactionHash": "0x1da7a5a34e35e7cd09009f664d526ae23408ef7b7fed6036e5a9639a972823e4",
          "transactionIndex": "0x0",
          "logIndex": "0x3",
          "removed": false
        },
        {
          "address": "0xb0b0623aaa11eebbfe9ba72c3f627543f302468d",
          "topics": [
            "0xe961a99d22c2d7925e0adaaa7b4ae02b8a178cd5efacac7f74fbcf36c49136b0",
            "0x62f1444c9742c023c5efc4826fa8ac7584c8f49449c7a19dc297041e8966ebeb"
          ],
          "data": "0x00000000000000000000000000000000000000000000000000000000000000200000000000000000000000000000000000000000000000000000000000000001000000000000000000000000930252c65d369448b369cb1955530a396fe738bd0000000000000000000000007090120134cf3bb49f83bb2195d9731a25583f98000000000000000000000000d7d48a64eb6f2ddf740d3258d2df7b2e7122f01a000000000000000000000000e8d1f26f703f27abe60d3cf324bef6ce197d82af0000000000000000000000000000000000000000000000000b1a2bc2ec50000000000000000000000000000029306a367e1185bbc2a8e92a54a33c0b523505640000000000000000000000000000000000000000000000001bc16d674ec80000000000000000000000000000000000000000000000000000000000000000012000000000000000000000000000000000000000000000000000000000000000050000000000000000000000000000000000000000000000000de0b6b3a764000000000000000000000000000000000000000000000000000010a741a462780000000000000000000000000000000000000000000000000000136dcc951d8c000000000000000000000000000000000000000000000000000016345785d8a000000000000000000000000000000000000000000000000000001bc16d674ec80000",
          "blockHash": "0x84f212d51a398705aeabebfb87e93629183a969368726a520ebb426185b26a8b",
          "blockNumber": "0x330afb",
          "transactionHash": "0x1da7a5a34e35e7cd09009f664d526ae23408ef7b7fed6036e5a9639a972823e4",
          "transactionIndex": "0x0",
          "logIndex": "0x4",
          "removed": false
        },
        {
          "address": "0xe8d1f26f703f27abe60d3cf324bef6ce197d82af",
          "topics": [
            "0x7120161a7b3d31251e01294ab351ef15a41b91659a36032e4641bb89b121e321",
            "0x62f1444c9742c023c5efc4826fa8ac7584c8f49449c7a19dc297041e8966ebeb"
          ],
          "data": "0x0000000000000000000000000000000000000000000000000000000012e687bf000000000000000000000000000000000000000000000000000000004b9a1eff",
          "blockHash": "0x84f212d51a398705aeabebfb87e93629183a969368726a520ebb426185b26a8b",
          "blockNumber": "0x330afb",
          "transactionHash": "0x1da7a5a34e35e7cd09009f664d526ae23408ef7b7fed6036e5a9639a972823e4",
          "transactionIndex": "0x0",
          "logIndex": "0x5",
          "removed": false
        }
      ],
      "logsBloom": "0x00000000000100000000000000000000000000000000000000800001000002000000000000000000000000000000000000200002000000001000000200804020000000000000000020010000000000000221000000000000000000000000000000000000020000004000000000000800020000400000000000000000000000400000000000000000080000000000000000000000020080000000000000000000000000000000000000104000000400000004000000000000000000000008000000200000000000000100000000040000000000000000000000000400000020000000000000800000000100000001000000000000000008000000000000000000",
      "type": "0x2",
      "transactionHash": "0x1da7a5a34e35e7cd09009f664d526ae23408ef7b7fed6036e5a9639a972823e4",
      "transactionIndex": "0x0",
      "blockHash": "0x84f212d51a398705aeabebfb87e93629183a969368726a520ebb426185b26a8b",
      "blockNumber": "0x330afb",
      "gasUsed": "0x264a30",
      "effectiveGasPrice": "0x5f5e100",
      "from": "0x89a76d7a4d006bdb9efd0923a346fae9437d434f",
      "to": "0xb0b0623aaa11eebbfe9ba72c3f627543f302468d",
      "contractAddress": null
    },
    {
      "status": "0x1",
      "cumulativeGasUsed": "0x10a80",
      "logs": [
        {
          "address": "0x930252c65d369448b369cb1955530a396fe738bd",
          "topics": [
            "0xddf252ad1be2c89b69c2b068fc378daa952ba7f163c4a11628f55a4df523b3ef",
            "0x0000000000000000000000000000000000000000000000000000000000000000",
            "0x00000000000000000000000089a76d7a4d006bdb9efd0923a346fae9437d434f"
          ],
          "data": "0x00000000000000000000000000000000000000000000d3c21bcecceda1000000",
          "blockHash": "0xfe2406ebb3868892b967ebb9a0c48df0e602beb7eaeae5bde3ea4c86c5e72fc4",
          "blockNumber": "0x330b1d",
          "transactionHash": "0x6731d0e6749939970a7d764a7d5fd3408996ed2d64aab05b22f8039b3db6a84c",
          "transactionIndex": "0x0",
          "logIndex": "0x0",
          "removed": false
        }
      ],
      "logsBloom": "0x00000000000000000000000000000000000000001000000000000000000000000000000000000000000000000000000000000000000000000000010000000000000000000000000000000008000000000000000000000000000000000000000000000000020000000000000000000800000008000000000000000010000000000000000000000000000000000000000000000000001000000000000000000000000000000000000000000000000000000000000000000000000000000000000000000002000000000000000000000000000000000000000000000000000020000000000000000000000000000000000000000000000000000000000000000048",
      "type": "0x2",
      "transactionHash": "0x6731d0e6749939970a7d764a7d5fd3408996ed2d64aab05b22f8039b3db6a84c",
      "transactionIndex": "0x0",
      "blockHash": "0xfe2406ebb3868892b967ebb9a0c48df0e602beb7eaeae5bde3ea4c86c5e72fc4",
      "blockNumber": "0x330b1d",
      "gasUsed": "0x10a80",
      "effectiveGasPrice": "0x5f5e100",
      "from": "0x89a76d7a4d006bdb9efd0923a346fae9437d434f",
      "to": "0x930252c65d369448b369cb1955530a396fe738bd",
      "contractAddress": null
    },
    {
      "status": "0x1",
      "cumulativeGasUsed": "0xb3bf",
      "logs": [
        {
          "address": "0x930252c65d369448b369cb1955530a396fe738bd",
          "topics": [
            "0x8c5be1e5ebec7d5bd14f71427d1e84f3dd0314c0f7b2291e5b200ac8c7c3b925",
            "0x00000000000000000000000089a76d7a4d006bdb9efd0923a346fae9437d434f",
            "0x000000000000000000000000b0b0623aaa11eebbfe9ba72c3f627543f302468d"
          ],
          "data": "0x00000000000000000000000000000000000000000000d3c21bcecceda1000000",
          "blockHash": "0xb61df1336e15701f9d0567dbe704ec71acde487076432854f6cd3d5c66afe4c6",
          "blockNumber": "0x330b39",
          "transactionHash": "0x4a13ac21165e049e7948c9d35a915d3f5beed988ee187e0f6af07de7911e6545",
          "transactionIndex": "0x0",
          "logIndex": "0x0",
          "removed": false
        }
      ],
      "logsBloom": "0x00000000000000000000000000000000000000001000000000000000000000000000000000000000000000000000000000000000000000000000010000200000000000000000000000000000000000000000000000000000000000000000000000000000000000000000000000000000000008000000000000000000000000000000000000000000000000000000000000000000001000000000000000000000020000000000000000000000000000000004000000000000000000000000000000200000000000000100000000000000000000000000000000000000000000000010000000000000000000000000000000000000000000000000000000000048",
      "type": "0x2",
      "transactionHash": "0x4a13ac21165e049e7948c9d35a915d3f5beed988ee187e0f6af07de7911e6545",
      "transactionIndex": "0x0",
      "blockHash": "0xb61df1336e15701f9d0567dbe704ec71acde487076432854f6cd3d5c66afe4c6",
      "blockNumber": "0x330b39",
      "gasUsed": "0xb3bf",
      "effectiveGasPrice": "0x5f5e100",
      "from": "0x89a76d7a4d006bdb9efd0923a346fae9437d434f",
      "to": "0x930252c65d369448b369cb1955530a396fe738bd",
      "contractAddress": null
    },
    {
      "status": "0x1",
      "cumulativeGasUsed": "0x10a80",
      "logs": [
        {
          "address": "0x7090120134cf3bb49f83bb2195d9731a25583f98",
          "topics": [
            "0xddf252ad1be2c89b69c2b068fc378daa952ba7f163c4a11628f55a4df523b3ef",
            "0x0000000000000000000000000000000000000000000000000000000000000000",
            "0x00000000000000000000000089a76d7a4d006bdb9efd0923a346fae9437d434f"
          ],
          "data": "0x00000000000000000000000000000000000000000000d3c21bcecceda1000000",
          "blockHash": "0x75d601903651d243567988844d772fa00eebd88787ed7b29c5fd59ba6e410984",
          "blockNumber": "0x330b4d",
          "transactionHash": "0x42c7953dba73e35eec0a6102b80a9aaa807214072fa0e78143d2ff8d31572f07",
          "transactionIndex": "0x0",
          "logIndex": "0x0",
          "removed": false
        }
      ],
      "logsBloom": "0x00000000000000000000000000000000000000000000000000000000000000000000000000000000000000000000000000000000000000000000000000000000000000000000000000000008000000000000000000000000000000000000000000000000020000000000000000000800000008000000000000000010000000000000000000000000000000000000000000000000001000000000000000000000000000000000000000000000000000000000000000000000000000000000000000000402000000000000000000000000000000000020000000000000000020000000000000000000000000000000000000800000000000000000000000000008",
      "type": "0x2",
      "transactionHash": "0x42c7953dba73e35eec0a6102b80a9aaa807214072fa0e78143d2ff8d31572f07",
      "transactionIndex": "0x0",
      "blockHash": "0x75d601903651d243567988844d772fa00eebd88787ed7b29c5fd59ba6e410984",
      "blockNumber": "0x330b4d",
      "gasUsed": "0x10a80",
      "effectiveGasPrice": "0x5f5e100",
      "from": "0x89a76d7a4d006bdb9efd0923a346fae9437d434f",
      "to": "0x7090120134cf3bb49f83bb2195d9731a25583f98",
      "contractAddress": null
    },
    {
      "status": "0x1",
      "cumulativeGasUsed": "0xb3bf",
      "logs": [
        {
          "address": "0x7090120134cf3bb49f83bb2195d9731a25583f98",
          "topics": [
            "0x8c5be1e5ebec7d5bd14f71427d1e84f3dd0314c0f7b2291e5b200ac8c7c3b925",
            "0x00000000000000000000000089a76d7a4d006bdb9efd0923a346fae9437d434f",
            "0x000000000000000000000000b0b0623aaa11eebbfe9ba72c3f627543f302468d"
          ],
          "data": "0x00000000000000000000000000000000000000000000d3c21bcecceda1000000",
          "blockHash": "0x0ec4a974146e75dc7f47a9e70d4d3de11447081f50761d19dbe77ad33c592680",
          "blockNumber": "0x330b6f",
          "transactionHash": "0x327543c2f403800651a1346518bd9ffcfef5889f051a364fce7665becf48e581",
          "transactionIndex": "0x0",
          "logIndex": "0x0",
          "removed": false
        }
      ],
      "logsBloom": "0x00000000000000000000000000000000000000000000000000000000000000000000000000000000000000000000000000000000000000000000000000200000000000000000000000000000000000000000000000000000000000000000000000000000000000000000000000000000000008000000000000000000000000000000000000000000000000000000000000000000001000000000000000000000020000000000000000000000000000000004000000000000000000000000000000200400000000000100000000000000000000000020000000000000000000000010000000000000000000000000000000800000000000000000000000000008",
      "type": "0x2",
      "transactionHash": "0x327543c2f403800651a1346518bd9ffcfef5889f051a364fce7665becf48e581",
      "transactionIndex": "0x0",
      "blockHash": "0x0ec4a974146e75dc7f47a9e70d4d3de11447081f50761d19dbe77ad33c592680",
      "blockNumber": "0x330b6f",
      "gasUsed": "0xb3bf",
      "effectiveGasPrice": "0x5f5e100",
      "from": "0x89a76d7a4d006bdb9efd0923a346fae9437d434f",
      "to": "0x7090120134cf3bb49f83bb2195d9731a25583f98",
      "contractAddress": null
    }
  ],
  "libraries": [],
  "pending": [],
  "returns": {},
  "timestamp": 1725342169,
  "chain": 545,
  "commit": "dd77fe3"
}