{
  "transactions": [
    {
      "hash": "0xd663f96a377e2a1b9f8a74e5713f37f7f5fb29c9cc7236a0fee0af5cf11dca32",
      "transactionType": "CALL",
      "contractName": null,
      "contractAddress": "0x7ebf3217f8a54de432acfe6e803576cb859e22a3",
      "function": "createMarket((bool,address,address,address,address,uint256,address,uint96,uint256[]))",
      "arguments": [
        "(true, 0xe6De44AC50C1D1C83f67695f6B4820a317285FC6, 0x866E7292A4b9813146591Cb6211AAc33432cF07f, 0x9aB242f91128B5b2ed1A063E61aaeC7876299388, 0x9C1f2140AAbe64ABCfbBeCf1Bdb90022bC7c9052, 720000000000000000, 0x611413E34136baC053F34278270cD46AE3C7bD61, 2000000000000000000, [800000000000000000, 800000000000000000, 870000000000000000, 940000000000000000, 940000000000000000])"
      ],
      "transaction": {
        "from": "0xb53cbcabbdffd85dc626b5f26a6b26a31aae4dc0",
        "to": "0x7ebf3217f8a54de432acfe6e803576cb859e22a3",
        "gas": "0x10c27b",
        "value": "0x0",
        "input": "0x73c368d600000000000000000000000000000000000000000000000000000000000000200000000000000000000000000000000000000000000000000000000000000001000000000000000000000000e6de44ac50c1d1c83f67695f6b4820a317285fc6000000000000000000000000866e7292a4b9813146591cb6211aac33432cf07f0000000000000000000000009ab242f91128b5b2ed1a063e61aaec78762993880000000000000000000000009c1f2140aabe64abcfbbecf1bdb90022bc7c905200000000000000000000000000000000000000000000000009fdf42f6e480000000000000000000000000000611413e34136bac053f34278270cd46ae3c7bd610000000000000000000000000000000000000000000000001bc16d674ec80000000000000000000000000000000000000000000000000000000000000000012000000000000000000000000000000000000000000000000000000000000000050000000000000000000000000000000000000000000000000b1a2bc2ec5000000000000000000000000000000000000000000000000000000b1a2bc2ec5000000000000000000000000000000000000000000000000000000c12dc63fa9700000000000000000000000000000000000000000000000000000d0b8d0508de00000000000000000000000000000000000000000000000000000d0b8d0508de0000",
        "nonce": "0xcf",
        "chainId": "0x221"
      },
      "additionalContracts": [],
      "isFixedGasLimit": false
    }
  ],
  "receipts": [
    {
      "status": "0x1",
      "cumulativeGasUsed": "0xc223c",
      "logs": [
        {
          "address": "0x7ebf3217f8a54de432acfe6e803576cb859e22a3",
          "topics": [
            "0xe961a99d22c2d7925e0adaaa7b4ae02b8a178cd5efacac7f74fbcf36c49136b0",
            "0x5c3f0292d070a566c7ec11372b1c5402979251a270d3c58f08cbe8cd1d031790"
          ],
          "data": "0x00000000000000000000000000000000000000000000000000000000000000200000000000000000000000000000000000000000000000000000000000000001000000000000000000000000e6de44ac50c1d1c83f67695f6b4820a317285fc6000000000000000000000000866e7292a4b9813146591cb6211aac33432cf07f0000000000000000000000009ab242f91128b5b2ed1a063e61aaec78762993880000000000000000000000009c1f2140aabe64abcfbbecf1bdb90022bc7c905200000000000000000000000000000000000000000000000009fdf42f6e480000000000000000000000000000611413e34136bac053f34278270cd46ae3c7bd610000000000000000000000000000000000000000000000001bc16d674ec80000000000000000000000000000000000000000000000000000000000000000012000000000000000000000000000000000000000000000000000000000000000050000000000000000000000000000000000000000000000000b1a2bc2ec5000000000000000000000000000000000000000000000000000000b1a2bc2ec5000000000000000000000000000000000000000000000000000000c12dc63fa9700000000000000000000000000000000000000000000000000000d0b8d0508de00000000000000000000000000000000000000000000000000000d0b8d0508de0000",
          "blockHash": "0xbfe710a89adc6129e01e0b42f9e8bbf28157466223680877966c48fe29ac20aa",
          "blockNumber": "0x4de60e",
          "transactionHash": "0xd663f96a377e2a1b9f8a74e5713f37f7f5fb29c9cc7236a0fee0af5cf11dca32",
          "transactionIndex": "0x0",
          "logIndex": "0x0",
          "removed": false
        },
        {
          "address": "0x9c1f2140aabe64abcfbbecf1bdb90022bc7c9052",
          "topics": [
            "0x7120161a7b3d31251e01294ab351ef15a41b91659a36032e4641bb89b121e321",
            "0x5c3f0292d070a566c7ec11372b1c5402979251a270d3c58f08cbe8cd1d031790"
          ],
          "data": "0x0000000000000000000000000000000000000000000000000000000012e687bf000000000000000000000000000000000000000000000000000000004b9a1eff",
          "blockHash": "0xbfe710a89adc6129e01e0b42f9e8bbf28157466223680877966c48fe29ac20aa",
          "blockNumber": "0x4de60e",
          "transactionHash": "0xd663f96a377e2a1b9f8a74e5713f37f7f5fb29c9cc7236a0fee0af5cf11dca32",
          "transactionIndex": "0x0",
          "logIndex": "0x1",
          "removed": false
        }
      ],
      "logsBloom": "0x00000000000000000000000000000000000000000000000000000000002002000000000000000000000000000000000000000000000201000000000000804000800000000000000000000000000000000000000000000000000000000000100000000000000000004000000400000000000000000000000000000000000000000000000000000000000002000000000000000000000000000000000000000000000000000000000000100000000000000000000000000000000000000000000000000000000000000000000000000000000000000004000000000000000000000000000000000000000000000001000000000000000000000000000100000000",
      "type": "0x0",
      "transactionHash": "0xd663f96a377e2a1b9f8a74e5713f37f7f5fb29c9cc7236a0fee0af5cf11dca32",
      "transactionIndex": "0x0",
      "blockHash": "0xbfe710a89adc6129e01e0b42f9e8bbf28157466223680877966c48fe29ac20aa",
      "blockNumber": "0x4de60e",
      "gasUsed": "0xc223c",
      "effectiveGasPrice": "0x5f5e100",
      "from": "0xb53cbcabbdffd85dc626b5f26a6b26a31aae4dc0",
      "to": "0x7ebf3217f8a54de432acfe6e803576cb859e22a3",
      "contractAddress": null
    }
  ],
  "libraries": [],
  "pending": [],
  "returns": {},
  "timestamp": 1726222511,
  "chain": 545,
  "commit": "577f3a9"
}