{
  "transactions": [
    {
      "hash": "0xc7995ce83b72c80560ff231bd9946f187b462a3c207332d38996e602853efee5",
      "transactionType": "CALL",
      "contractName": null,
      "contractAddress": "0x7090120134cf3bb49f83bb2195d9731a25583f98",
      "function": "approve(address,uint256)",
      "arguments": [
        "0xb0b0623aaA11eEbBfe9bA72C3f627543F302468d",
        "100000000000000000000000"
      ],
      "transaction": {
        "from": "0x89a76d7a4d006bdb9efd0923a346fae9437d434f",
        "to": "0x7090120134cf3bb49f83bb2195d9731a25583f98",
        "gas": "0x9c12",
        "value": "0x0",
        "input": "0x095ea7b3000000000000000000000000b0b0623aaa11eebbfe9ba72c3f627543f302468d00000000000000000000000000000000000000000000152d02c7e14af6800000",
        "nonce": "0x1f",
        "chainId": "0x221"
      },
      "additionalContracts": [],
      "isFixedGasLimit": false
    },
    {
      "hash": "0xdaffe3f663955a8c386da191063741f8b8cfab00c097ec44896d073a796f65c2",
      "transactionType": "CALL",
      "contractName": null,
      "contractAddress": "0xb0b0623aaa11eebbfe9ba72c3f627543f302468d",
      "function": "borrow((bool,address,address,address,address,uint256,address,uint96,uint256[]),uint256,uint256,address,address)",
      "arguments": [
        "(true, 0x930252c65D369448b369CB1955530a396fE738bd, 0x7090120134CF3Bb49F83bB2195D9731A25583f98, 0xd7D48a64eB6f2ddF740D3258D2df7b2e7122f01A, 0xE8D1f26F703f27abE60D3cf324BEF6cE197D82AF, 800000000000000000, 0x29306A367e1185BbC2a8E92A54a33c0B52350564, 2000000000000000000, [1000000000000000000, 1200000000000000000, 1400000000000000000, 1600000000000000000, 2000000000000000000])",
        "7000000000000000000",
        "0",
        "0x89a76D7a4D006bDB9Efd0923A346fAe9437D434F",
        "0x89a76D7a4D006bDB9Efd0923A346fAe9437D434F"
      ],
      "transaction": {
        "from": "0x89a76d7a4d006bdb9efd0923a346fae9437d434f",
        "to": "0xb0b0623aaa11eebbfe9ba72c3f627543f302468d",
        "gas": "0x84ea4",
        "value": "0x0",
        "input": "0xd25ba01e00000000000000000000000000000000000000000000000000000000000000a00000000000000000000000000000000000000000000000006124fee993bc0000000000000000000000000000000000000000000000000000000000000000000000000000000000000000000089a76d7a4d006bdb9efd0923a346fae9437d434f00000000000000000000000089a76d7a4d006bdb9efd0923a346fae9437d434f0000000000000000000000000000000000000000000000000000000000000001000000000000000000000000930252c65d369448b369cb1955530a396fe738bd0000000000000000000000007090120134cf3bb49f83bb2195d9731a25583f98000000000000000000000000d7d48a64eb6f2ddf740d3258d2df7b2e7122f01a000000000000000000000000e8d1f26f703f27abe60d3cf324bef6ce197d82af0000000000000000000000000000000000000000000000000b1a2bc2ec50000000000000000000000000000029306a367e1185bbc2a8e92a54a33c0b523505640000000000000000000000000000000000000000000000001bc16d674ec80000000000000000000000000000000000000000000000000000000000000000012000000000000000000000000000000000000000000000000000000000000000050000000000000000000000000000000000000000000000000de0b6b3a764000000000000000000000000000000000000000000000000000010a741a462780000000000000000000000000000000000000000000000000000136dcc951d8c000000000000000000000000000000000000000000000000000016345785d8a000000000000000000000000000000000000000000000000000001bc16d674ec80000",
        "nonce": "0x20",
        "chainId": "0x221"
      },
      "additionalContracts": [],
      "isFixedGasLimit": false
    }
  ],
  "receipts": [
    {
      "status": "0x1",
      "cumulativeGasUsed": "0x70ff",
      "logs": [
        {
          "address": "0x7090120134cf3bb49f83bb2195d9731a25583f98",
          "topics": [
            "0x8c5be1e5ebec7d5bd14f71427d1e84f3dd0314c0f7b2291e5b200ac8c7c3b925",
            "0x00000000000000000000000089a76d7a4d006bdb9efd0923a346fae9437d434f",
            "0x000000000000000000000000b0b0623aaa11eebbfe9ba72c3f627543f302468d"
          ],
          "data": "0x00000000000000000000000000000000000000000000152d02c7e14af6800000",
          "blockHash": "0xaff3fbb2d67854ddd52d151a02ac027e4c248c3521de59e7a61a018181b0feeb",
          "blockNumber": "0x331447",
          "transactionHash": "0xc7995ce83b72c80560ff231bd9946f187b462a3c207332d38996e602853efee5",
          "transactionIndex": "0x0",
          "logIndex": "0x0",
          "removed": false
        }
      ],
      "logsBloom": "0x00000000000000000000000000000000000000000000000000000000000000000000000000000000000000000000000000000000000000000000000000200000000000000000000000000000000000000000000000000000000000000000000000000000000000000000000000000000000008000000000000000000000000000000000000000000000000000000000000000000001000000000000000000000020000000000000000000000000000000004000000000000000000000000000000200400000000000100000000000000000000000020000000000000000000000010000000000000000000000000000000800000000000000000000000000008",
      "type": "0x2",
      "transactionHash": "0xc7995ce83b72c80560ff231bd9946f187b462a3c207332d38996e602853efee5",
      "transactionIndex": "0x0",
      "blockHash": "0xaff3fbb2d67854ddd52d151a02ac027e4c248c3521de59e7a61a018181b0feeb",
      "blockNumber": "0x331447",
      "gasUsed": "0x70ff",
      "effectiveGasPrice": "0x5f5e100",
      "from": "0x89a76d7a4d006bdb9efd0923a346fae9437d434f",
      "to": "0x7090120134cf3bb49f83bb2195d9731a25583f98",
      "contractAddress": null
    },
    {
      "status": "0x1",
      "cumulativeGasUsed": "0x603a7",
      "logs": [
        {
          "address": "0xe8d1f26f703f27abe60d3cf324bef6ce197d82af",
          "topics": [
            "0x7120161a7b3d31251e01294ab351ef15a41b91659a36032e4641bb89b121e321",
            "0x62f1444c9742c023c5efc4826fa8ac7584c8f49449c7a19dc297041e8966ebeb"
          ],
          "data": "0x0000000000000000000000000000000000000000000000000000000012df570b000000000000000000000000000000000000000000000000000000004b752e17",
          "blockHash": "0x41fd64694afa28aa68bcbe30ec60ca301f8d902cf6a9cfc461ee17e9b21803ba",
          "blockNumber": "0x331465",
          "transactionHash": "0xdaffe3f663955a8c386da191063741f8b8cfab00c097ec44896d073a796f65c2",
          "transactionIndex": "0x0",
          "logIndex": "0x0",
          "removed": false
        },
        {
          "address": "0xb0b0623aaa11eebbfe9ba72c3f627543f302468d",
          "topics": [
            "0x9d9bd501d0657d7dfe415f779a620a62b78bc508ddc0891fbbd8b7ac0f8fce87",
            "0x62f1444c9742c023c5efc4826fa8ac7584c8f49449c7a19dc297041e8966ebeb"
          ],
          "data": "0x0000000000000000000000000000000000000000000000000000000012df570b00000000000000000000000000000000000000000000000000000000000000000000000000000000000000000000000000000000000000000000000000000000",
          "blockHash": "0x41fd64694afa28aa68bcbe30ec60ca301f8d902cf6a9cfc461ee17e9b21803ba",
          "blockNumber": "0x331465",
          "transactionHash": "0xdaffe3f663955a8c386da191063741f8b8cfab00c097ec44896d073a796f65c2",
          "transactionIndex": "0x0",
          "logIndex": "0x1",
          "removed": false
        },
        {
          "address": "0xb0b0623aaa11eebbfe9ba72c3f627543f302468d",
          "topics": [
            "0x570954540bed6b1304a87dfe815a5eda4a648f7097a16240dcd85c9b5fd42a43",
            "0x62f1444c9742c023c5efc4826fa8ac7584c8f49449c7a19dc297041e8966ebeb",
            "0x00000000000000000000000089a76d7a4d006bdb9efd0923a346fae9437d434f",
            "0x00000000000000000000000089a76d7a4d006bdb9efd0923a346fae9437d434f"
          ],
          "data": "0x00000000000000000000000089a76d7a4d006bdb9efd0923a346fae9437d434f0000000000000000000000000000000000000000000000006124fee993bc00000000000000000000000000000000000000000000000000000000000000000000",
          "blockHash": "0x41fd64694afa28aa68bcbe30ec60ca301f8d902cf6a9cfc461ee17e9b21803ba",
          "blockNumber": "0x331465",
          "transactionHash": "0xdaffe3f663955a8c386da191063741f8b8cfab00c097ec44896d073a796f65c2",
          "transactionIndex": "0x0",
          "logIndex": "0x2",
          "removed": false
        },
        {
          "address": "0x930252c65d369448b369cb1955530a396fe738bd",
          "topics": [
            "0xddf252ad1be2c89b69c2b068fc378daa952ba7f163c4a11628f55a4df523b3ef",
            "0x000000000000000000000000b0b0623aaa11eebbfe9ba72c3f627543f302468d",
            "0x00000000000000000000000089a76d7a4d006bdb9efd0923a346fae9437d434f"
          ],
          "data": "0x0000000000000000000000000000000000000000000000006124fee993bc0000",
          "blockHash": "0x41fd64694afa28aa68bcbe30ec60ca301f8d902cf6a9cfc461ee17e9b21803ba",
          "blockNumber": "0x331465",
          "transactionHash": "0xdaffe3f663955a8c386da191063741f8b8cfab00c097ec44896d073a796f65c2",
          "transactionIndex": "0x0",
          "logIndex": "0x3",
          "removed": false
        }
      ],
      "logsBloom": "0x00000000000000000002000000000000000000001000000000000001000000000000400000000000000000000000000000200000000000000000010020804020000000000000000020010008000000000000000000000000000000080000000000000000000000000000000000000000000008400000000000000010000000000000000000000000000000000000000000000000021000000000000000000000000000000000000000000000000000000004000000000000000000000008000000200002000000000100000000000000000000000000000000000000000000000000004000000008000100000001000000000000000000000000000000000048",
      "type": "0x2",
      "transactionHash": "0xdaffe3f663955a8c386da191063741f8b8cfab00c097ec44896d073a796f65c2",
      "transactionIndex": "0x0",
      "blockHash": "0x41fd64694afa28aa68bcbe30ec60ca301f8d902cf6a9cfc461ee17e9b21803ba",
      "blockNumber": "0x331465",
      "gasUsed": "0x603a7",
      "effectiveGasPrice": "0x5f5e100",
      "from": "0x89a76d7a4d006bdb9efd0923a346fae9437d434f",
      "to": "0xb0b0623aaa11eebbfe9ba72c3f627543f302468d",
      "contractAddress": null
    }
  ],
  "libraries": [],
  "pending": [],
  "returns": {},
  "timestamp": 1725343306,
  "chain": 545,
  "commit": "dd77fe3"
}