{
  "transactions": [
    {
      "hash": "0x5855a28ac741a51efc2bf3e606ac06ef9191dcf416b478a53dda79fac7477ee4",
      "transactionType": "CALL",
      "contractName": null,
      "contractAddress": "0x77ce515ecdbe6b12aa401c67cfb0f8762a2a727d",
      "function": "mint(address,uint256)",
      "arguments": [
        "0xb53CbCaBbDFfd85Dc626B5F26a6b26A31AAE4Dc0",
        "1000000000000000000000000"
      ],
      "transaction": {
        "from": "0xb53cbcabbdffd85dc626b5f26a6b26a31aae4dc0",
        "to": "0x77ce515ecdbe6b12aa401c67cfb0f8762a2a727d",
        "gas": "0x113e7",
        "value": "0x0",
        "input": "0x40c10f19000000000000000000000000b53cbcabbdffd85dc626b5f26a6b26a31aae4dc000000000000000000000000000000000000000000000d3c21bcecceda1000000",
        "nonce": "0x0",
        "chainId": "0x221"
      },
      "additionalContracts": [],
      "isFixedGasLimit": false
    },
    {
      "hash": "0x81ccc1f94fab1f9891b8461a49d0e5dfcca7210d1ad89e051813bf3dc2c13d82",
      "transactionType": "CALL",
      "contractName": null,
      "contractAddress": "0x77ce515ecdbe6b12aa401c67cfb0f8762a2a727d",
      "function": "approve(address,uint256)",
      "arguments": [
        "0x665EB1F72f2c0771A9C7305b8d735d5410FF3246",
        "100000000000000000000000"
      ],
      "transaction": {
        "from": "0xb53cbcabbdffd85dc626b5f26a6b26a31aae4dc0",
        "to": "0x77ce515ecdbe6b12aa401c67cfb0f8762a2a727d",
        "gas": "0x106f2",
        "value": "0x0",
        "input": "0x095ea7b3000000000000000000000000665eb1f72f2c0771a9c7305b8d735d5410ff324600000000000000000000000000000000000000000000152d02c7e14af6800000",
        "nonce": "0x1",
        "chainId": "0x221"
      },
      "additionalContracts": [],
      "isFixedGasLimit": false
    },
    {
      "hash": "0xcbb01469171ade486a547724be7c277ed3b36fe7bf8dfe48e10425962d8d1c99",
      "transactionType": "CALL",
      "contractName": null,
      "contractAddress": "0x665eb1f72f2c0771a9c7305b8d735d5410ff3246",
      "function": "supplyCollateral((bool,address,address,address,address,uint256,address,uint96,uint256[]),uint256,address,bytes)",
      "arguments": [
        "(true, 0x4d3b3f7397B3EdB56D1E80EDf9c413CF4289f05D, 0x77ce515ECDbE6B12Aa401c67cFb0F8762A2a727d, 0xd7D48a64eB6f2ddF740D3258D2df7b2e7122f01A, 0xC4FB5ba85196DEdb1eE5a24A623167D5854634C6, 800000000000000000, 0x29306A367e1185BbC2a8E92A54a33c0B52350564, 2000000000000000000, [1000000000000000000, 1200000000000000000, 1400000000000000000, 1600000000000000000, 2000000000000000000])",
        "10000000000000000000",
        "0xb53CbCaBbDFfd85Dc626B5F26a6b26A31AAE4Dc0",
        "0x"
      ],
      "transaction": {
        "from": "0xb53cbcabbdffd85dc626b5f26a6b26a31aae4dc0",
        "to": "0x665eb1f72f2c0771a9c7305b8d735d5410ff3246",
        "gas": "0x1a95f",
        "value": "0x0",
        "input": "0x7f9ead6c00000000000000000000000000000000000000000000000000000000000000800000000000000000000000000000000000000000000000008ac7230489e80000000000000000000000000000b53cbcabbdffd85dc626b5f26a6b26a31aae4dc0000000000000000000000000000000000000000000000000000000000000026000000000000000000000000000000000000000000000000000000000000000010000000000000000000000004d3b3f7397b3edb56d1e80edf9c413cf4289f05d00000000000000000000000077ce515ecdbe6b12aa401c67cfb0f8762a2a727d000000000000000000000000d7d48a64eb6f2ddf740d3258d2df7b2e7122f01a000000000000000000000000c4fb5ba85196dedb1ee5a24a623167d5854634c60000000000000000000000000000000000000000000000000b1a2bc2ec50000000000000000000000000000029306a367e1185bbc2a8e92a54a33c0b523505640000000000000000000000000000000000000000000000001bc16d674ec80000000000000000000000000000000000000000000000000000000000000000012000000000000000000000000000000000000000000000000000000000000000050000000000000000000000000000000000000000000000000de0b6b3a764000000000000000000000000000000000000000000000000000010a741a462780000000000000000000000000000000000000000000000000000136dcc951d8c000000000000000000000000000000000000000000000000000016345785d8a000000000000000000000000000000000000000000000000000001bc16d674ec800000000000000000000000000000000000000000000000000000000000000000000",
        "nonce": "0x2",
        "chainId": "0x221"
      },
      "additionalContracts": [],
      "isFixedGasLimit": false
    },
    {
      "hash": "0x2ddf673a99c98565da09ff710175ee3b4be7b46267d212328956e2aefd5fd7c2",
      "transactionType": "CALL",
      "contractName": null,
      "contractAddress": "0x665eb1f72f2c0771a9c7305b8d735d5410ff3246",
      "function": "borrow((bool,address,address,address,address,uint256,address,uint96,uint256[]),uint256,uint256,address,address)",
      "arguments": [
        "(true, 0x4d3b3f7397B3EdB56D1E80EDf9c413CF4289f05D, 0x77ce515ECDbE6B12Aa401c67cFb0F8762A2a727d, 0xd7D48a64eB6f2ddF740D3258D2df7b2e7122f01A, 0xC4FB5ba85196DEdb1eE5a24A623167D5854634C6, 800000000000000000, 0x29306A367e1185BbC2a8E92A54a33c0B52350564, 2000000000000000000, [1000000000000000000, 1200000000000000000, 1400000000000000000, 1600000000000000000, 2000000000000000000])",
        "4000000000000000000",
        "0",
        "0xb53CbCaBbDFfd85Dc626B5F26a6b26A31AAE4Dc0",
        "0xb53CbCaBbDFfd85Dc626B5F26a6b26A31AAE4Dc0"
      ],
      "transaction": {
        "from": "0xb53cbcabbdffd85dc626b5f26a6b26a31aae4dc0",
        "to": "0x665eb1f72f2c0771a9c7305b8d735d5410ff3246",
        "gas": "0x7f7f8",
        "value": "0x0",
        "input": "0xd25ba01e00000000000000000000000000000000000000000000000000000000000000a00000000000000000000000000000000000000000000000003782dace9d9000000000000000000000000000000000000000000000000000000000000000000000000000000000000000000000b53cbcabbdffd85dc626b5f26a6b26a31aae4dc0000000000000000000000000b53cbcabbdffd85dc626b5f26a6b26a31aae4dc000000000000000000000000000000000000000000000000000000000000000010000000000000000000000004d3b3f7397b3edb56d1e80edf9c413cf4289f05d00000000000000000000000077ce515ecdbe6b12aa401c67cfb0f8762a2a727d000000000000000000000000d7d48a64eb6f2ddf740d3258d2df7b2e7122f01a000000000000000000000000c4fb5ba85196dedb1ee5a24a623167d5854634c60000000000000000000000000000000000000000000000000b1a2bc2ec50000000000000000000000000000029306a367e1185bbc2a8e92a54a33c0b523505640000000000000000000000000000000000000000000000001bc16d674ec80000000000000000000000000000000000000000000000000000000000000000012000000000000000000000000000000000000000000000000000000000000000050000000000000000000000000000000000000000000000000de0b6b3a764000000000000000000000000000000000000000000000000000010a741a462780000000000000000000000000000000000000000000000000000136dcc951d8c000000000000000000000000000000000000000000000000000016345785d8a000000000000000000000000000000000000000000000000000001bc16d674ec80000",
        "nonce": "0x3",
        "chainId": "0x221"
      },
      "additionalContracts": [],
      "isFixedGasLimit": false
    }
  ],
  "receipts": [
    {
      "status": "0x1",
      "cumulativeGasUsed": "0xc7c0",
      "logs": [
        {
          "address": "0x77ce515ecdbe6b12aa401c67cfb0f8762a2a727d",
          "topics": [
            "0xddf252ad1be2c89b69c2b068fc378daa952ba7f163c4a11628f55a4df523b3ef",
            "0x0000000000000000000000000000000000000000000000000000000000000000",
            "0x000000000000000000000000b53cbcabbdffd85dc626b5f26a6b26a31aae4dc0"
          ],
          "data": "0x00000000000000000000000000000000000000000000d3c21bcecceda1000000",
          "blockHash": "0xce14bffc7d072cc0339608848697078b506506467f16f04022ef9cec8b7e3c42",
          "blockNumber": "0x3626af",
          "transactionHash": "0x5855a28ac741a51efc2bf3e606ac06ef9191dcf416b478a53dda79fac7477ee4",
          "transactionIndex": "0x0",
          "logIndex": "0x0",
          "removed": false
        }
      ],
      "logsBloom": "0x00000000000000002000000000000100000000000000000000000000000000000000000000000000000000000000000000080000000000000000000000000000000000000000000000040008000000000000000000000000000000000000000000000000020000000000000000040800000000000000000000000010000000000000000000000000000000000000000000000000000000000000000000000000000000000000000000000000000000000000000000000000000000000000000000000002000000000000000000000000000000000000100000000000000020000000000000000000000000000000000000000000000000000000000000000000",
      "type": "0x2",
      "transactionHash": "0x5855a28ac741a51efc2bf3e606ac06ef9191dcf416b478a53dda79fac7477ee4",
      "transactionIndex": "0x0",
      "blockHash": "0xce14bffc7d072cc0339608848697078b506506467f16f04022ef9cec8b7e3c42",
      "blockNumber": "0x3626af",
      "gasUsed": "0xc7c0",
      "effectiveGasPrice": "0x5f5e100",
      "from": "0xb53cbcabbdffd85dc626b5f26a6b26a31aae4dc0",
      "to": "0x77ce515ecdbe6b12aa401c67cfb0f8762a2a727d",
      "contractAddress": null
    },
    {
      "status": "0x1",
      "cumulativeGasUsed": "0xb3cb",
      "logs": [
        {
          "address": "0x77ce515ecdbe6b12aa401c67cfb0f8762a2a727d",
          "topics": [
            "0x8c5be1e5ebec7d5bd14f71427d1e84f3dd0314c0f7b2291e5b200ac8c7c3b925",
            "0x000000000000000000000000b53cbcabbdffd85dc626b5f26a6b26a31aae4dc0",
            "0x000000000000000000000000665eb1f72f2c0771a9c7305b8d735d5410ff3246"
          ],
          "data": "0x00000000000000000000000000000000000000000000152d02c7e14af6800000",
          "blockHash": "0xe12502870548bf946e58b58ace361b46d9d138d749755fc3c75d5c59474a5c59",
          "blockNumber": "0x3626c3",
          "transactionHash": "0x81ccc1f94fab1f9891b8461a49d0e5dfcca7210d1ad89e051813bf3dc2c13d82",
          "transactionIndex": "0x0",
          "logIndex": "0x0",
          "removed": false
        }
      ],
      "logsBloom": "0x00000000000000002020000000000100000000000000000000000001000000000000000000000000000000000000000000080000000000000000000000200000000000000000000000040000000000000000000000000000000000000000000000000000000000000000000000040000000000000000000000000000000000000000000000000000000000000000000000000000000000000000000000000000020000000000000000000000000000000000000000000000000000020000000000000000000000000000000000000000000000000000100000000000000000000010000000000000000000000000000000000000000000000000000000000000",
      "type": "0x2",
      "transactionHash": "0x81ccc1f94fab1f9891b8461a49d0e5dfcca7210d1ad89e051813bf3dc2c13d82",
      "transactionIndex": "0x0",
      "blockHash": "0xe12502870548bf946e58b58ace361b46d9d138d749755fc3c75d5c59474a5c59",
      "blockNumber": "0x3626c3",
      "gasUsed": "0xb3cb",
      "effectiveGasPrice": "0x5f5e100",
      "from": "0xb53cbcabbdffd85dc626b5f26a6b26a31aae4dc0",
      "to": "0x77ce515ecdbe6b12aa401c67cfb0f8762a2a727d",
      "contractAddress": null
    },
    {
      "status": "0x1",
      "cumulativeGasUsed": "0x133f7",
      "logs": [
        {
          "address": "0x665eb1f72f2c0771a9c7305b8d735d5410ff3246",
          "topics": [
            "0xa3b9472a1399e17e123f3c2e6586c23e504184d504de59cdaa2b375e880c6184",
            "0xb434884c96d529d265092f82f88fa53926bc43dcc8da61aa774a9ffafc9960e4",
            "0x000000000000000000000000b53cbcabbdffd85dc626b5f26a6b26a31aae4dc0",
            "0x000000000000000000000000b53cbcabbdffd85dc626b5f26a6b26a31aae4dc0"
          ],
          "data": "0x0000000000000000000000000000000000000000000000008ac7230489e80000",
          "blockHash": "0x91f87538a60253d173a4555782458e22455caf2c6be9c3eb5f6879fc1c79e9d7",
          "blockNumber": "0x3626d7",
          "transactionHash": "0xcbb01469171ade486a547724be7c277ed3b36fe7bf8dfe48e10425962d8d1c99",
          "transactionIndex": "0x0",
          "logIndex": "0x0",
          "removed": false
        },
        {
          "address": "0x77ce515ecdbe6b12aa401c67cfb0f8762a2a727d",
          "topics": [
            "0xddf252ad1be2c89b69c2b068fc378daa952ba7f163c4a11628f55a4df523b3ef",
            "0x000000000000000000000000b53cbcabbdffd85dc626b5f26a6b26a31aae4dc0",
            "0x000000000000000000000000665eb1f72f2c0771a9c7305b8d735d5410ff3246"
          ],
          "data": "0x0000000000000000000000000000000000000000000000008ac7230489e80000",
          "blockHash": "0x91f87538a60253d173a4555782458e22455caf2c6be9c3eb5f6879fc1c79e9d7",
          "blockNumber": "0x3626d7",
          "transactionHash": "0xcbb01469171ade486a547724be7c277ed3b36fe7bf8dfe48e10425962d8d1c99",
          "transactionIndex": "0x0",
          "logIndex": "0x1",
          "removed": false
        }
      ],
      "logsBloom": "0x000000000000000020200000000001000000000004000000000000010000000000000000000000040000000000000000000c0000000000000000000000000000000000000000000000040008000000000000000000000000000000000000000000000000000000000000000000040000000000000000000000000010000000000000008000000040000002000000000000000000000000000000000000000000000000000000000000000000000000000002000000000000000000020000000000000002000000000000000000000000000000000000100400000000000000000000000000000000000000000000200000000000000000000000000000000000",
      "type": "0x2",
      "transactionHash": "0xcbb01469171ade486a547724be7c277ed3b36fe7bf8dfe48e10425962d8d1c99",
      "transactionIndex": "0x0",
      "blockHash": "0x91f87538a60253d173a4555782458e22455caf2c6be9c3eb5f6879fc1c79e9d7",
      "blockNumber": "0x3626d7",
      "gasUsed": "0x133f7",
      "effectiveGasPrice": "0x5f5e100",
      "from": "0xb53cbcabbdffd85dc626b5f26a6b26a31aae4dc0",
      "to": "0x665eb1f72f2c0771a9c7305b8d735d5410ff3246",
      "contractAddress": null
    },
    {
      "status": "0x1",
      "cumulativeGasUsed": "0x5c4e7",
      "logs": [
        {
          "address": "0xc4fb5ba85196dedb1ee5a24a623167d5854634c6",
          "topics": [
            "0x7120161a7b3d31251e01294ab351ef15a41b91659a36032e4641bb89b121e321",
            "0xb434884c96d529d265092f82f88fa53926bc43dcc8da61aa774a9ffafc9960e4"
          ],
          "data": "0x0000000000000000000000000000000000000000000000000000000012b52ac00000000000000000000000000000000000000000000000000000000049cb2349",
          "blockHash": "0xb7524a13dc131ab5654d67edcc5117e229c589dc735c16a5a4acf310880775ab",
          "blockNumber": "0x3626f3",
          "transactionHash": "0x2ddf673a99c98565da09ff710175ee3b4be7b46267d212328956e2aefd5fd7c2",
          "transactionIndex": "0x0",
          "logIndex": "0x0",
          "removed": false
        },
        {
          "address": "0x665eb1f72f2c0771a9c7305b8d735d5410ff3246",
          "topics": [
            "0x9d9bd501d0657d7dfe415f779a620a62b78bc508ddc0891fbbd8b7ac0f8fce87",
            "0xb434884c96d529d265092f82f88fa53926bc43dcc8da61aa774a9ffafc9960e4"
          ],
          "data": "0x0000000000000000000000000000000000000000000000000000000012b52ac000000000000000000000000000000000000000000000000000001d4004540f240000000000000000000000000000000000000000000000000000000000000000",
          "blockHash": "0xb7524a13dc131ab5654d67edcc5117e229c589dc735c16a5a4acf310880775ab",
          "blockNumber": "0x3626f3",
          "transactionHash": "0x2ddf673a99c98565da09ff710175ee3b4be7b46267d212328956e2aefd5fd7c2",
          "transactionIndex": "0x0",
          "logIndex": "0x1",
          "removed": false
        },
        {
          "address": "0x665eb1f72f2c0771a9c7305b8d735d5410ff3246",
          "topics": [
            "0x570954540bed6b1304a87dfe815a5eda4a648f7097a16240dcd85c9b5fd42a43",
            "0xb434884c96d529d265092f82f88fa53926bc43dcc8da61aa774a9ffafc9960e4",
            "0x000000000000000000000000b53cbcabbdffd85dc626b5f26a6b26a31aae4dc0",
            "0x000000000000000000000000b53cbcabbdffd85dc626b5f26a6b26a31aae4dc0"
          ],
          "data": "0x000000000000000000000000b53cbcabbdffd85dc626b5f26a6b26a31aae4dc00000000000000000000000000000000000000000000000003782dace9d9000000000000000000000000000000000000000000000000000000000000000000000",
          "blockHash": "0xb7524a13dc131ab5654d67edcc5117e229c589dc735c16a5a4acf310880775ab",
          "blockNumber": "0x3626f3",
          "transactionHash": "0x2ddf673a99c98565da09ff710175ee3b4be7b46267d212328956e2aefd5fd7c2",
          "transactionIndex": "0x0",
          "logIndex": "0x2",
          "removed": false
        },
        {
          "address": "0x4d3b3f7397b3edb56d1e80edf9c413cf4289f05d",
          "topics": [
            "0xddf252ad1be2c89b69c2b068fc378daa952ba7f163c4a11628f55a4df523b3ef",
            "0x000000000000000000000000665eb1f72f2c0771a9c7305b8d735d5410ff3246",
            "0x000000000000000000000000b53cbcabbdffd85dc626b5f26a6b26a31aae4dc0"
          ],
          "data": "0x0000000000000000000000000000000000000000000000003782dace9d900000",
          "blockHash": "0xb7524a13dc131ab5654d67edcc5117e229c589dc735c16a5a4acf310880775ab",
          "blockNumber": "0x3626f3",
          "transactionHash": "0x2ddf673a99c98565da09ff710175ee3b4be7b46267d212328956e2aefd5fd7c2",
          "transactionIndex": "0x0",
          "logIndex": "0x3",
          "removed": false
        }
      ],
      "logsBloom": "0x000000000000000000220000000001000200000004000000000000010000000000004000000000040000000000000000000c000000000000000000002080400000000000000000000000000800000000000000000000000000000008000000000000000000000000000000000000000000000000000000000000001000000000000000000000004000080200000000000000000000000400001000000000000000000000000000000000000000000000000200000000000000000002000000000000000a020000000000000000000000000000000000100000000000000000000000004000000008000000000001000000000000000000000000000000000000",
      "type": "0x2",
      "transactionHash": "0x2ddf673a99c98565da09ff710175ee3b4be7b46267d212328956e2aefd5fd7c2",
      "transactionIndex": "0x0",
      "blockHash": "0xb7524a13dc131ab5654d67edcc5117e229c589dc735c16a5a4acf310880775ab",
      "blockNumber": "0x3626f3",
      "gasUsed": "0x5c4e7",
      "effectiveGasPrice": "0x5f5e100",
      "from": "0xb53cbcabbdffd85dc626b5f26a6b26a31aae4dc0",
      "to": "0x665eb1f72f2c0771a9c7305b8d735d5410ff3246",
      "contractAddress": null
    }
  ],
  "libraries": [],
  "pending": [],
  "returns": {},
  "timestamp": 1725444013,
  "chain": 545,
  "commit": "dd77fe3"
}