{
  "transactions": [
    {
      "hash": "0xe503f6b82c2ce497a2104ad8822e37c57b226e2833c284cd9f358e7f0f656202",
      "transactionType": "CALL",
      "contractName": null,
      "contractAddress": "0x7090120134cf3bb49f83bb2195d9731a25583f98",
      "function": "approve(address,uint256)",
      "arguments": [
        "0xb0b0623aaA11eEbBfe9bA72C3f627543F302468d",
        "100000000000000000000000"
      ],
      "transaction": {
        "from": "0x89a76d7a4d006bdb9efd0923a346fae9437d434f",
        "to": "0x7090120134cf3bb49f83bb2195d9731a25583f98",
        "gas": "0x9c12",
        "value": "0x0",
        "input": "0x095ea7b3000000000000000000000000b0b0623aaa11eebbfe9ba72c3f627543f302468d00000000000000000000000000000000000000000000152d02c7e14af6800000",
        "nonce": "0x1d",
        "chainId": "0x221"
      },
      "additionalContracts": [],
      "isFixedGasLimit": false
    },
    {
      "hash": "0x28ace9a5a289d3ad252223b59a1bc74502507eee69370682af8ba299f01fb2bb",
      "transactionType": "CALL",
      "contractName": null,
      "contractAddress": "0xb0b0623aaa11eebbfe9ba72c3f627543f302468d",
      "function": "supplyCollateral((bool,address,address,address,address,uint256,address,uint96,uint256[]),uint256,address,bytes)",
      "arguments": [
        "(true, 0x930252c65D369448b369CB1955530a396fE738bd, 0x7090120134CF3Bb49F83bB2195D9731A25583f98, 0xd7D48a64eB6f2ddF740D3258D2df7b2e7122f01A, 0xE8D1f26F703f27abE60D3cf324BEF6cE197D82AF, 800000000000000000, 0x29306A367e1185BbC2a8E92A54a33c0B52350564, 2000000000000000000, [1000000000000000000, 1200000000000000000, 1400000000000000000, 1600000000000000000, 2000000000000000000])",
        "10000000000000000000",
        "0x89a76D7a4D006bDB9Efd0923A346fAe9437D434F",
        "0x"
      ],
      "transaction": {
        "from": "0x89a76d7a4d006bdb9efd0923a346fae9437d434f",
        "to": "0xb0b0623aaa11eebbfe9ba72c3f627543f302468d",
        "gas": "0x20592",
        "value": "0x0",
        "input": "0x7f9ead6c00000000000000000000000000000000000000000000000000000000000000800000000000000000000000000000000000000000000000008ac7230489e8000000000000000000000000000089a76d7a4d006bdb9efd0923a346fae9437d434f00000000000000000000000000000000000000000000000000000000000002600000000000000000000000000000000000000000000000000000000000000001000000000000000000000000930252c65d369448b369cb1955530a396fe738bd0000000000000000000000007090120134cf3bb49f83bb2195d9731a25583f98000000000000000000000000d7d48a64eb6f2ddf740d3258d2df7b2e7122f01a000000000000000000000000e8d1f26f703f27abe60d3cf324bef6ce197d82af0000000000000000000000000000000000000000000000000b1a2bc2ec50000000000000000000000000000029306a367e1185bbc2a8e92a54a33c0b523505640000000000000000000000000000000000000000000000001bc16d674ec80000000000000000000000000000000000000000000000000000000000000000012000000000000000000000000000000000000000000000000000000000000000050000000000000000000000000000000000000000000000000de0b6b3a764000000000000000000000000000000000000000000000000000010a741a462780000000000000000000000000000000000000000000000000000136dcc951d8c000000000000000000000000000000000000000000000000000016345785d8a000000000000000000000000000000000000000000000000000001bc16d674ec800000000000000000000000000000000000000000000000000000000000000000000",
        "nonce": "0x1e",
        "chainId": "0x221"
      },
      "additionalContracts": [],
      "isFixedGasLimit": false
    }
  ],
  "receipts": [
    {
      "status": "0x1",
      "cumulativeGasUsed": "0x70ff",
      "logs": [
        {
          "address": "0x7090120134cf3bb49f83bb2195d9731a25583f98",
          "topics": [
            "0x8c5be1e5ebec7d5bd14f71427d1e84f3dd0314c0f7b2291e5b200ac8c7c3b925",
            "0x00000000000000000000000089a76d7a4d006bdb9efd0923a346fae9437d434f",
            "0x000000000000000000000000b0b0623aaa11eebbfe9ba72c3f627543f302468d"
          ],
          "data": "0x00000000000000000000000000000000000000000000152d02c7e14af6800000",
          "blockHash": "0x962214214e9fd63b16861b6daa43297f67e913de6cac1cb5ae96fbb1526e3310",
          "blockNumber": "0x331165",
          "transactionHash": "0xe503f6b82c2ce497a2104ad8822e37c57b226e2833c284cd9f358e7f0f656202",
          "transactionIndex": "0x0",
          "logIndex": "0x0",
          "removed": false
        }
      ],
      "logsBloom": "0x00000000000000000000000000000000000000000000000000000000000000000000000000000000000000000000000000000000000000000000000000200000000000000000000000000000000000000000000000000000000000000000000000000000000000000000000000000000000008000000000000000000000000000000000000000000000000000000000000000000001000000000000000000000020000000000000000000000000000000004000000000000000000000000000000200400000000000100000000000000000000000020000000000000000000000010000000000000000000000000000000800000000000000000000000000008",
      "type": "0x2",
      "transactionHash": "0xe503f6b82c2ce497a2104ad8822e37c57b226e2833c284cd9f358e7f0f656202",
      "transactionIndex": "0x0",
      "blockHash": "0x962214214e9fd63b16861b6daa43297f67e913de6cac1cb5ae96fbb1526e3310",
      "blockNumber": "0x331165",
      "gasUsed": "0x70ff",
      "effectiveGasPrice": "0x5f5e100",
      "from": "0x89a76d7a4d006bdb9efd0923a346fae9437d434f",
      "to": "0x7090120134cf3bb49f83bb2195d9731a25583f98",
      "contractAddress": null
    },
    {
      "status": "0x1",
      "cumulativeGasUsed": "0x176b7",
      "logs": [
        {
          "address": "0xb0b0623aaa11eebbfe9ba72c3f627543f302468d",
          "topics": [
            "0xa3b9472a1399e17e123f3c2e6586c23e504184d504de59cdaa2b375e880c6184",
            "0x62f1444c9742c023c5efc4826fa8ac7584c8f49449c7a19dc297041e8966ebeb",
            "0x00000000000000000000000089a76d7a4d006bdb9efd0923a346fae9437d434f",
            "0x00000000000000000000000089a76d7a4d006bdb9efd0923a346fae9437d434f"
          ],
          "data": "0x0000000000000000000000000000000000000000000000008ac7230489e80000",
          "blockHash": "0x486ae0edf44cefe4d834a1bb66ad263fddec3138152dd5e1a4a428200601bad7",
          "blockNumber": "0x331183",
          "transactionHash": "0x28ace9a5a289d3ad252223b59a1bc74502507eee69370682af8ba299f01fb2bb",
          "transactionIndex": "0x0",
          "logIndex": "0x0",
          "removed": false
        },
        {
          "address": "0x7090120134cf3bb49f83bb2195d9731a25583f98",
          "topics": [
            "0xddf252ad1be2c89b69c2b068fc378daa952ba7f163c4a11628f55a4df523b3ef",
            "0x00000000000000000000000089a76d7a4d006bdb9efd0923a346fae9437d434f",
            "0x000000000000000000000000b0b0623aaa11eebbfe9ba72c3f627543f302468d"
          ],
          "data": "0x0000000000000000000000000000000000000000000000008ac7230489e80000",
          "blockHash": "0x486ae0edf44cefe4d834a1bb66ad263fddec3138152dd5e1a4a428200601bad7",
          "blockNumber": "0x331183",
          "transactionHash": "0x28ace9a5a289d3ad252223b59a1bc74502507eee69370682af8ba299f01fb2bb",
          "transactionIndex": "0x0",
          "logIndex": "0x1",
          "removed": false
        }
      ],
      "logsBloom": "0x00000000000000000000000000000000000000000000000000000000000000000000000000000000000000000000000000200000000000000000000000000020000000000000000020010008000000000000000000000000000000000000000000000000000000000000000000000000000008000000000000000010000000000000008000000000000000000000000000000000001000000000000000000000000000000000000000000000000000000004000000000000000000000008000000200402000000000100000000000000000000000020000400000000000000000000000000000000000100000000200000800000000000000000000000000008",
      "type": "0x2",
      "transactionHash": "0x28ace9a5a289d3ad252223b59a1bc74502507eee69370682af8ba299f01fb2bb",
      "transactionIndex": "0x0",
      "blockHash": "0x486ae0edf44cefe4d834a1bb66ad263fddec3138152dd5e1a4a428200601bad7",
      "blockNumber": "0x331183",
      "gasUsed": "0x176b7",
      "effectiveGasPrice": "0x5f5e100",
      "from": "0x89a76d7a4d006bdb9efd0923a346fae9437d434f",
      "to": "0xb0b0623aaa11eebbfe9ba72c3f627543f302468d",
      "contractAddress": null
    }
  ],
  "libraries": [],
  "pending": [],
  "returns": {},
  "timestamp": 1725342938,
  "chain": 545,
  "commit": "dd77fe3"
}