{
  "transactions": [
    {
      "hash": "0x3a0d0f9d8e87abdfb9d2be086e0fa619addac19e1d464413effa3642f057ee0a",
      "transactionType": "CALL",
      "contractName": null,
      "contractAddress": "0x77ce515ecdbe6b12aa401c67cfb0f8762a2a727d",
      "function": "approve(address,uint256)",
      "arguments": [
        "0x665EB1F72f2c0771A9C7305b8d735d5410FF3246",
        "100000000000000000000000"
      ],
      "transaction": {
        "from": "0x89a76d7a4d006bdb9efd0923a346fae9437d434f",
        "to": "0x77ce515ecdbe6b12aa401c67cfb0f8762a2a727d",
        "gas": "0x9c12",
        "value": "0x0",
        "input": "0x095ea7b3000000000000000000000000665eb1f72f2c0771a9c7305b8d735d5410ff324600000000000000000000000000000000000000000000152d02c7e14af6800000",
        "nonce": "0x35",
        "chainId": "0x221"
      },
      "additionalContracts": [],
      "isFixedGasLimit": false
    },
    {
      "hash": "0xacbf47ca26d527550ea9a5faf48bdcd17fda78d764b7d4c6b02717f1ca6d37bc",
      "transactionType": "CALL",
      "contractName": null,
      "contractAddress": "0x665eb1f72f2c0771a9c7305b8d735d5410ff3246",
      "function": "supplyCollateral((bool,address,address,address,address,uint256,address,uint96,uint256[]),uint256,address,bytes)",
      "arguments": [
        "(true, 0x4d3b3f7397B3EdB56D1E80EDf9c413CF4289f05D, 0x77ce515ECDbE6B12Aa401c67cFb0F8762A2a727d, 0xd7D48a64eB6f2ddF740D3258D2df7b2e7122f01A, 0xC4FB5ba85196DEdb1eE5a24A623167D5854634C6, 800000000000000000, 0x29306A367e1185BbC2a8E92A54a33c0B52350564, 2000000000000000000, [1000000000000000000, 1200000000000000000, 1400000000000000000, 1600000000000000000, 2000000000000000000])",
        "10000000000000000000",
        "0x89a76D7a4D006bDB9Efd0923A346fAe9437D434F",
        "0x"
      ],
      "transaction": {
        "from": "0x89a76d7a4d006bdb9efd0923a346fae9437d434f",
        "to": "0x665eb1f72f2c0771a9c7305b8d735d5410ff3246",
        "gas": "0x20592",
        "value": "0x0",
        "input": "0x7f9ead6c00000000000000000000000000000000000000000000000000000000000000800000000000000000000000000000000000000000000000008ac7230489e8000000000000000000000000000089a76d7a4d006bdb9efd0923a346fae9437d434f000000000000000000000000000000000000000000000000000000000000026000000000000000000000000000000000000000000000000000000000000000010000000000000000000000004d3b3f7397b3edb56d1e80edf9c413cf4289f05d00000000000000000000000077ce515ecdbe6b12aa401c67cfb0f8762a2a727d000000000000000000000000d7d48a64eb6f2ddf740d3258d2df7b2e7122f01a000000000000000000000000c4fb5ba85196dedb1ee5a24a623167d5854634c60000000000000000000000000000000000000000000000000b1a2bc2ec50000000000000000000000000000029306a367e1185bbc2a8e92a54a33c0b523505640000000000000000000000000000000000000000000000001bc16d674ec80000000000000000000000000000000000000000000000000000000000000000012000000000000000000000000000000000000000000000000000000000000000050000000000000000000000000000000000000000000000000de0b6b3a764000000000000000000000000000000000000000000000000000010a741a462780000000000000000000000000000000000000000000000000000136dcc951d8c000000000000000000000000000000000000000000000000000016345785d8a000000000000000000000000000000000000000000000000000001bc16d674ec800000000000000000000000000000000000000000000000000000000000000000000",
        "nonce": "0x36",
        "chainId": "0x221"
      },
      "additionalContracts": [],
      "isFixedGasLimit": false
    },
    {
      "hash": "0x8a565bf9fefd9b2d3e2c21517a0bd9e586fa96212a4eea08f95ef21bc2f9633d",
      "transactionType": "CALL",
      "contractName": null,
      "contractAddress": "0x665eb1f72f2c0771a9c7305b8d735d5410ff3246",
      "function": "borrow((bool,address,address,address,address,uint256,address,uint96,uint256[]),uint256,uint256,address,address)",
      "arguments": [
        "(true, 0x4d3b3f7397B3EdB56D1E80EDf9c413CF4289f05D, 0x77ce515ECDbE6B12Aa401c67cFb0F8762A2a727d, 0xd7D48a64eB6f2ddF740D3258D2df7b2e7122f01A, 0xC4FB5ba85196DEdb1eE5a24A623167D5854634C6, 800000000000000000, 0x29306A367e1185BbC2a8E92A54a33c0B52350564, 2000000000000000000, [1000000000000000000, 1200000000000000000, 1400000000000000000, 1600000000000000000, 2000000000000000000])",
        "7000000000000000000",
        "0",
        "0x89a76D7a4D006bDB9Efd0923A346fAe9437D434F",
        "0x89a76D7a4D006bDB9Efd0923A346fAe9437D434F"
      ],
      "transaction": {
        "from": "0x89a76d7a4d006bdb9efd0923a346fae9437d434f",
        "to": "0x665eb1f72f2c0771a9c7305b8d735d5410ff3246",
        "gas": "0x8cbc1",
        "value": "0x0",
        "input": "0xd25ba01e00000000000000000000000000000000000000000000000000000000000000a00000000000000000000000000000000000000000000000006124fee993bc0000000000000000000000000000000000000000000000000000000000000000000000000000000000000000000089a76d7a4d006bdb9efd0923a346fae9437d434f00000000000000000000000089a76d7a4d006bdb9efd0923a346fae9437d434f00000000000000000000000000000000000000000000000000000000000000010000000000000000000000004d3b3f7397b3edb56d1e80edf9c413cf4289f05d00000000000000000000000077ce515ecdbe6b12aa401c67cfb0f8762a2a727d000000000000000000000000d7d48a64eb6f2ddf740d3258d2df7b2e7122f01a000000000000000000000000c4fb5ba85196dedb1ee5a24a623167d5854634c60000000000000000000000000000000000000000000000000b1a2bc2ec50000000000000000000000000000029306a367e1185bbc2a8e92a54a33c0b523505640000000000000000000000000000000000000000000000001bc16d674ec80000000000000000000000000000000000000000000000000000000000000000012000000000000000000000000000000000000000000000000000000000000000050000000000000000000000000000000000000000000000000de0b6b3a764000000000000000000000000000000000000000000000000000010a741a462780000000000000000000000000000000000000000000000000000136dcc951d8c000000000000000000000000000000000000000000000000000016345785d8a000000000000000000000000000000000000000000000000000001bc16d674ec80000",
        "nonce": "0x37",
        "chainId": "0x221"
      },
      "additionalContracts": [],
      "isFixedGasLimit": false
    }
  ],
  "receipts": [
    {
      "status": "0x1",
      "cumulativeGasUsed": "0x70ff",
      "logs": [
        {
          "address": "0x77ce515ecdbe6b12aa401c67cfb0f8762a2a727d",
          "topics": [
            "0x8c5be1e5ebec7d5bd14f71427d1e84f3dd0314c0f7b2291e5b200ac8c7c3b925",
            "0x00000000000000000000000089a76d7a4d006bdb9efd0923a346fae9437d434f",
            "0x000000000000000000000000665eb1f72f2c0771a9c7305b8d735d5410ff3246"
          ],
          "data": "0x00000000000000000000000000000000000000000000152d02c7e14af6800000",
          "blockHash": "0xfe0df462059ea1a1580a3d68746ce282538121c2d782533f897b78cb4dfd7324",
          "blockNumber": "0x35b46d",
          "transactionHash": "0x3a0d0f9d8e87abdfb9d2be086e0fa619addac19e1d464413effa3642f057ee0a",
          "transactionIndex": "0x0",
          "logIndex": "0x0",
          "removed": false
        }
      ],
      "logsBloom": "0x00000000000000002020000000000000000000000000000000000001000000000000000000000000000000000000000000000000000000000000000000200000000000000000000000040000000000000000000000000000000000000000000000000000000000000000000000040000000008000000000000000000000000000000000000000000000000000000000000000000001000000000000000000000020000000000000000000000000000000000000000000000000000020000000000000000000000000000000000000000000000000000000000000000000000000010000000000000000000000000000000000000000000000000000000000008",
      "type": "0x2",
      "transactionHash": "0x3a0d0f9d8e87abdfb9d2be086e0fa619addac19e1d464413effa3642f057ee0a",
      "transactionIndex": "0x0",
      "blockHash": "0xfe0df462059ea1a1580a3d68746ce282538121c2d782533f897b78cb4dfd7324",
      "blockNumber": "0x35b46d",
      "gasUsed": "0x70ff",
      "effectiveGasPrice": "0x5f5e100",
      "from": "0x89a76d7a4d006bdb9efd0923a346fae9437d434f",
      "to": "0x77ce515ecdbe6b12aa401c67cfb0f8762a2a727d",
      "contractAddress": null
    },
    {
      "status": "0x1",
      "cumulativeGasUsed": "0x176b7",
      "logs": [
        {
          "address": "0x665eb1f72f2c0771a9c7305b8d735d5410ff3246",
          "topics": [
            "0xa3b9472a1399e17e123f3c2e6586c23e504184d504de59cdaa2b375e880c6184",
            "0xb434884c96d529d265092f82f88fa53926bc43dcc8da61aa774a9ffafc9960e4",
            "0x00000000000000000000000089a76d7a4d006bdb9efd0923a346fae9437d434f",
            "0x00000000000000000000000089a76d7a4d006bdb9efd0923a346fae9437d434f"
          ],
          "data": "0x0000000000000000000000000000000000000000000000008ac7230489e80000",
          "blockHash": "0x97831463ca133977f89d2051a7a53d6ac488193efb0c9a89d1a5fbc6d1d9de37",
          "blockNumber": "0x35b487",
          "transactionHash": "0xacbf47ca26d527550ea9a5faf48bdcd17fda78d764b7d4c6b02717f1ca6d37bc",
          "transactionIndex": "0x0",
          "logIndex": "0x0",
          "removed": false
        },
        {
          "address": "0x77ce515ecdbe6b12aa401c67cfb0f8762a2a727d",
          "topics": [
            "0xddf252ad1be2c89b69c2b068fc378daa952ba7f163c4a11628f55a4df523b3ef",
            "0x00000000000000000000000089a76d7a4d006bdb9efd0923a346fae9437d434f",
            "0x000000000000000000000000665eb1f72f2c0771a9c7305b8d735d5410ff3246"
          ],
          "data": "0x0000000000000000000000000000000000000000000000008ac7230489e80000",
          "blockHash": "0x97831463ca133977f89d2051a7a53d6ac488193efb0c9a89d1a5fbc6d1d9de37",
          "blockNumber": "0x35b487",
          "transactionHash": "0xacbf47ca26d527550ea9a5faf48bdcd17fda78d764b7d4c6b02717f1ca6d37bc",
          "transactionIndex": "0x0",
          "logIndex": "0x1",
          "removed": false
        }
      ],
      "logsBloom": "0x00000000000000002020000000000000000000000400000000000001000000000000000000000004000000000000000000040000000000000000000000000000000000000000000000040008000000000000000000000000000000000000000000000000000000000000000000040000000008000000000000000010000000000000008000000040000002000000000000000000001000000000000000000000000000000000000000000000000000000002000000000000000000020000000000000002000000000000000000000000000000000000000400000000000000000000000000000000000000000000200000000000000000000000000000000008",
      "type": "0x2",
      "transactionHash": "0xacbf47ca26d527550ea9a5faf48bdcd17fda78d764b7d4c6b02717f1ca6d37bc",
      "transactionIndex": "0x0",
      "blockHash": "0x97831463ca133977f89d2051a7a53d6ac488193efb0c9a89d1a5fbc6d1d9de37",
      "blockNumber": "0x35b487",
      "gasUsed": "0x176b7",
      "effectiveGasPrice": "0x5f5e100",
      "from": "0x89a76d7a4d006bdb9efd0923a346fae9437d434f",
      "to": "0x665eb1f72f2c0771a9c7305b8d735d5410ff3246",
      "contractAddress": null
    },
    {
      "status": "0x1",
      "cumulativeGasUsed": "0x603aa",
      "logs": [
        {
          "address": "0xc4fb5ba85196dedb1ee5a24a623167d5854634c6",
          "topics": [
            "0x7120161a7b3d31251e01294ab351ef15a41b91659a36032e4641bb89b121e321",
            "0xb434884c96d529d265092f82f88fa53926bc43dcc8da61aa774a9ffafc9960e4"
          ],
          "data": "0x0000000000000000000000000000000000000000000000000000000012e36ab6000000000000000000000000000000000000000000000000000000004b864ee7",
          "blockHash": "0x30b4c236bd0ddd8417c8c4eadd3143026ecc7ecf49d01af53fbb70ac805d5fc5",
          "blockNumber": "0x35b49b",
          "transactionHash": "0x8a565bf9fefd9b2d3e2c21517a0bd9e586fa96212a4eea08f95ef21bc2f9633d",
          "transactionIndex": "0x0",
          "logIndex": "0x0",
          "removed": false
        },
        {
          "address": "0x665eb1f72f2c0771a9c7305b8d735d5410ff3246",
          "topics": [
            "0x9d9bd501d0657d7dfe415f779a620a62b78bc508ddc0891fbbd8b7ac0f8fce87",
            "0xb434884c96d529d265092f82f88fa53926bc43dcc8da61aa774a9ffafc9960e4"
          ],
          "data": "0x0000000000000000000000000000000000000000000000000000000012e36ab600000000000000000000000000000000000000000000000000000000000000000000000000000000000000000000000000000000000000000000000000000000",
          "blockHash": "0x30b4c236bd0ddd8417c8c4eadd3143026ecc7ecf49d01af53fbb70ac805d5fc5",
          "blockNumber": "0x35b49b",
          "transactionHash": "0x8a565bf9fefd9b2d3e2c21517a0bd9e586fa96212a4eea08f95ef21bc2f9633d",
          "transactionIndex": "0x0",
          "logIndex": "0x1",
          "removed": false
        },
        {
          "address": "0x665eb1f72f2c0771a9c7305b8d735d5410ff3246",
          "topics": [
            "0x570954540bed6b1304a87dfe815a5eda4a648f7097a16240dcd85c9b5fd42a43",
            "0xb434884c96d529d265092f82f88fa53926bc43dcc8da61aa774a9ffafc9960e4",
            "0x00000000000000000000000089a76d7a4d006bdb9efd0923a346fae9437d434f",
            "0x00000000000000000000000089a76d7a4d006bdb9efd0923a346fae9437d434f"
          ],
          "data": "0x00000000000000000000000089a76d7a4d006bdb9efd0923a346fae9437d434f0000000000000000000000000000000000000000000000006124fee993bc00000000000000000000000000000000000000000000000000000000000000000000",
          "blockHash": "0x30b4c236bd0ddd8417c8c4eadd3143026ecc7ecf49d01af53fbb70ac805d5fc5",
          "blockNumber": "0x35b49b",
          "transactionHash": "0x8a565bf9fefd9b2d3e2c21517a0bd9e586fa96212a4eea08f95ef21bc2f9633d",
          "transactionIndex": "0x0",
          "logIndex": "0x2",
          "removed": false
        },
        {
          "address": "0x4d3b3f7397b3edb56d1e80edf9c413cf4289f05d",
          "topics": [
            "0xddf252ad1be2c89b69c2b068fc378daa952ba7f163c4a11628f55a4df523b3ef",
            "0x000000000000000000000000665eb1f72f2c0771a9c7305b8d735d5410ff3246",
            "0x00000000000000000000000089a76d7a4d006bdb9efd0923a346fae9437d434f"
          ],
          "data": "0x0000000000000000000000000000000000000000000000006124fee993bc0000",
          "blockHash": "0x30b4c236bd0ddd8417c8c4eadd3143026ecc7ecf49d01af53fbb70ac805d5fc5",
          "blockNumber": "0x35b49b",
          "transactionHash": "0x8a565bf9fefd9b2d3e2c21517a0bd9e586fa96212a4eea08f95ef21bc2f9633d",
          "transactionIndex": "0x0",
          "logIndex": "0x3",
          "removed": false
        }
      ],
      "logsBloom": "0x0000000000000000002200000000000002000000040000000000000100000000000040000000000400000000000000000004000000000000000000002080400000000000000000000000000800000000000000000000000000000008000000000000000000000000000000000000000000000800000000000000001000000000000000000000004000080200000000000000000000100400001000000000000000000000000000000000000000000000000200000000000000000002000000000000000a020000000000000000000000000000000000000000000000000000000000004000000008000000000001000000000000000000000000000000000008",
      "type": "0x2",
      "transactionHash": "0x8a565bf9fefd9b2d3e2c21517a0bd9e586fa96212a4eea08f95ef21bc2f9633d",
      "transactionIndex": "0x0",
      "blockHash": "0x30b4c236bd0ddd8417c8c4eadd3143026ecc7ecf49d01af53fbb70ac805d5fc5",
      "blockNumber": "0x35b49b",
      "gasUsed": "0x603aa",
      "effectiveGasPrice": "0x5f5e100",
      "from": "0x89a76d7a4d006bdb9efd0923a346fae9437d434f",
      "to": "0x665eb1f72f2c0771a9c7305b8d735d5410ff3246",
      "contractAddress": null
    }
  ],
  "libraries": [],
  "pending": [],
  "returns": {},
  "timestamp": 1725429376,
  "chain": 545,
  "commit": "dd77fe3"
}