{
  "transactions": [
    {
      "hash": "0xdea14c5b6a91f5c26016b7929f0f94fc4c617bd26eb841dd5a9bf1e671db4c3c",
      "transactionType": "CALL",
      "contractName": null,
      "contractAddress": "0x665eb1f72f2c0771a9c7305b8d735d5410ff3246",
      "function": "borrow((bool,address,address,address,address,uint256,address,uint96,uint256[]),uint256,uint256,address,address)",
      "arguments": [
        "(true, 0x4d3b3f7397B3EdB56D1E80EDf9c413CF4289f05D, 0x77ce515ECDbE6B12Aa401c67cFb0F8762A2a727d, 0xd7D48a64eB6f2ddF740D3258D2df7b2e7122f01A, 0xC4FB5ba85196DEdb1eE5a24A623167D5854634C6, 800000000000000000, 0x29306A367e1185BbC2a8E92A54a33c0B52350564, 2000000000000000000, [1000000000000000000, 1200000000000000000, 1400000000000000000, 1600000000000000000, 2000000000000000000])",
        "7500000000000000000",
        "0",
        "0xb53CbCaBbDFfd85Dc626B5F26a6b26A31AAE4Dc0",
        "0xb53CbCaBbDFfd85Dc626B5F26a6b26A31AAE4Dc0"
      ],
      "transaction": {
        "from": "0xb53cbcabbdffd85dc626b5f26a6b26a31aae4dc0",
        "to": "0x665eb1f72f2c0771a9c7305b8d735d5410ff3246",
        "gas": "0x81d76",
        "value": "0x0",
        "input": "0xd25ba01e00000000000000000000000000000000000000000000000000000000000000a000000000000000000000000000000000000000000000000068155a43676e00000000000000000000000000000000000000000000000000000000000000000000000000000000000000000000b53cbcabbdffd85dc626b5f26a6b26a31aae4dc0000000000000000000000000b53cbcabbdffd85dc626b5f26a6b26a31aae4dc000000000000000000000000000000000000000000000000000000000000000010000000000000000000000004d3b3f7397b3edb56d1e80edf9c413cf4289f05d00000000000000000000000077ce515ecdbe6b12aa401c67cfb0f8762a2a727d000000000000000000000000d7d48a64eb6f2ddf740d3258d2df7b2e7122f01a000000000000000000000000c4fb5ba85196dedb1ee5a24a623167d5854634c60000000000000000000000000000000000000000000000000b1a2bc2ec50000000000000000000000000000029306a367e1185bbc2a8e92a54a33c0b523505640000000000000000000000000000000000000000000000001bc16d674ec80000000000000000000000000000000000000000000000000000000000000000012000000000000000000000000000000000000000000000000000000000000000050000000000000000000000000000000000000000000000000de0b6b3a764000000000000000000000000000000000000000000000000000010a741a462780000000000000000000000000000000000000000000000000000136dcc951d8c000000000000000000000000000000000000000000000000000016345785d8a000000000000000000000000000000000000000000000000000001bc16d674ec80000",
        "nonce": "0x4",
        "chainId": "0x221"
      },
      "additionalContracts": [],
      "isFixedGasLimit": false
    }
  ],
  "receipts": [
    {
      "status": "0x1",
      "cumulativeGasUsed": "0x5e00c",
      "logs": [
        {
          "address": "0xc4fb5ba85196dedb1ee5a24a623167d5854634c6",
          "topics": [
            "0x7120161a7b3d31251e01294ab351ef15a41b91659a36032e4641bb89b121e321",
            "0xb434884c96d529d265092f82f88fa53926bc43dcc8da61aa774a9ffafc9960e4"
          ],
          "data": "0x00000000000000000000000000000000000000000000000000000000128333650000000000000000000000000000000000000000000000000000000049c3f5a6",
          "blockHash": "0xd58b7252222f7fc8bbd7b89367d0e9a513f25e8b14ba7a99a760abf7cd84711a",
          "blockNumber": "0x3628d3",
          "transactionHash": "0xdea14c5b6a91f5c26016b7929f0f94fc4c617bd26eb841dd5a9bf1e671db4c3c",
          "transactionIndex": "0x0",
          "logIndex": "0x0",
          "removed": false
        },
        {
          "address": "0x665eb1f72f2c0771a9c7305b8d735d5410ff3246",
          "topics": [
            "0x9d9bd501d0657d7dfe415f779a620a62b78bc508ddc0891fbbd8b7ac0f8fce87",
            "0xb434884c96d529d265092f82f88fa53926bc43dcc8da61aa774a9ffafc9960e4"
          ],
          "data": "0x0000000000000000000000000000000000000000000000000000000012833365000000000000000000000000000000000000000000000000000000bee92bb6730000000000000000000000000000000000000000000000000000000000000000",
          "blockHash": "0xd58b7252222f7fc8bbd7b89367d0e9a513f25e8b14ba7a99a760abf7cd84711a",
          "blockNumber": "0x3628d3",
          "transactionHash": "0xdea14c5b6a91f5c26016b7929f0f94fc4c617bd26eb841dd5a9bf1e671db4c3c",
          "transactionIndex": "0x0",
          "logIndex": "0x1",
          "removed": false
        },
        {
          "address": "0x665eb1f72f2c0771a9c7305b8d735d5410ff3246",
          "topics": [
            "0x570954540bed6b1304a87dfe815a5eda4a648f7097a16240dcd85c9b5fd42a43",
            "0xb434884c96d529d265092f82f88fa53926bc43dcc8da61aa774a9ffafc9960e4",
            "0x000000000000000000000000b53cbcabbdffd85dc626b5f26a6b26a31aae4dc0",
            "0x000000000000000000000000b53cbcabbdffd85dc626b5f26a6b26a31aae4dc0"
          ],
          "data": "0x000000000000000000000000b53cbcabbdffd85dc626b5f26a6b26a31aae4dc000000000000000000000000000000000000000000000000068155a43676e00000000000000000000000000000000000000000000000000000000000000000000",
          "blockHash": "0xd58b7252222f7fc8bbd7b89367d0e9a513f25e8b14ba7a99a760abf7cd84711a",
          "blockNumber": "0x3628d3",
          "transactionHash": "0xdea14c5b6a91f5c26016b7929f0f94fc4c617bd26eb841dd5a9bf1e671db4c3c",
          "transactionIndex": "0x0",
          "logIndex": "0x2",
          "removed": false
        },
        {
          "address": "0x4d3b3f7397b3edb56d1e80edf9c413cf4289f05d",
          "topics": [
            "0xddf252ad1be2c89b69c2b068fc378daa952ba7f163c4a11628f55a4df523b3ef",
            "0x000000000000000000000000665eb1f72f2c0771a9c7305b8d735d5410ff3246",
            "0x000000000000000000000000b53cbcabbdffd85dc626b5f26a6b26a31aae4dc0"
          ],
          "data": "0x00000000000000000000000000000000000000000000000068155a43676e0000",
          "blockHash": "0xd58b7252222f7fc8bbd7b89367d0e9a513f25e8b14ba7a99a760abf7cd84711a",
          "blockNumber": "0x3628d3",
          "transactionHash": "0xdea14c5b6a91f5c26016b7929f0f94fc4c617bd26eb841dd5a9bf1e671db4c3c",
          "transactionIndex": "0x0",
          "logIndex": "0x3",
          "removed": false
        }
      ],
      "logsBloom": "0x000000000000000000220000000001000200000004000000000000010000000000004000000000040000000000000000000c000000000000000000002080400000000000000000000000000800000000000000000000000000000008000000000000000000000000000000000000000000000000000000000000001000000000000000000000004000080200000000000000000000000400001000000000000000000000000000000000000000000000000200000000000000000002000000000000000a020000000000000000000000000000000000100000000000000000000000004000000008000000000001000000000000000000000000000000000000",
      "type": "0x2",
      "transactionHash": "0xdea14c5b6a91f5c26016b7929f0f94fc4c617bd26eb841dd5a9bf1e671db4c3c",
      "transactionIndex": "0x0",
      "blockHash": "0xd58b7252222f7fc8bbd7b89367d0e9a513f25e8b14ba7a99a760abf7cd84711a",
      "blockNumber": "0x3628d3",
      "gasUsed": "0x5e00c",
      "effectiveGasPrice": "0x5f5e100",
      "from": "0xb53cbcabbdffd85dc626b5f26a6b26a31aae4dc0",
      "to": "0x665eb1f72f2c0771a9c7305b8d735d5410ff3246",
      "contractAddress": null
    }
  ],
  "libraries": [],
  "pending": [],
  "returns": {},
  "timestamp": 1725444258,
  "chain": 545,
  "commit": "dd77fe3"
}