{
  "transactions": [
    {
      "hash": "0x49213f540f7ffd2d81aee7cabefd099a7bcbfbc08aa3f25a0f32f6ffed2bb959",
      "transactionType": "CALL",
      "contractName": null,
      "contractAddress": "0x930252c65d369448b369cb1955530a396fe738bd",
      "function": "approve(address,uint256)",
      "arguments": [
        "0xb0b0623aaA11eEbBfe9bA72C3f627543F302468d",
        "100000000000000000000000"
      ],
      "transaction": {
        "from": "0x89a76d7a4d006bdb9efd0923a346fae9437d434f",
        "to": "0x930252c65d369448b369cb1955530a396fe738bd",
        "gas": "0x9c12",
        "value": "0x0",
        "input": "0x095ea7b3000000000000000000000000b0b0623aaa11eebbfe9ba72c3f627543f302468d00000000000000000000000000000000000000000000152d02c7e14af6800000",
        "nonce": "0x1a",
        "chainId": "0x221"
      },
      "additionalContracts": [],
      "isFixedGasLimit": false
    },
    {
      "hash": null,
      "transactionType": "CALL",
      "contractName": null,
      "contractAddress": "0xb0b0623aaa11eebbfe9ba72c3f627543f302468d",
      "function": "supply((bool,address,address,address,address,uint256,address,uint96,uint256[]),uint256,uint256,address,bytes)",
      "arguments": [
        "(true, 0x930252c65D369448b369CB1955530a396fE738bd, 0x7090120134CF3Bb49F83bB2195D9731A25583f98, 0xd7D48a64eB6f2ddF740D3258D2df7b2e7122f01A, 0xE8D1f26F703f27abE60D3cf324BEF6cE197D82AF, 800000000000000000, 0x29306A367e1185BbC2a8E92A54a33c0B52350564, 2000000000000000000, [1000000000000000000, 1200000000000000000, 1400000000000000000, 1600000000000000000, 2000000000000000000])",
        "10000000000000000000000",
        "0",
        "0x89a76D7a4D006bDB9Efd0923A346fAe9437D434F",
        "0x"
      ],
      "transaction": {
        "from": "0x89a76d7a4d006bdb9efd0923a346fae9437d434f",
        "to": "0xb0b0623aaa11eebbfe9ba72c3f627543f302468d",
        "gas": "0x78428",
        "value": "0x0",
        "input": "0xfcd1af1700000000000000000000000000000000000000000000000000000000000000a000000000000000000000000000000000000000000000021e19e0c9bab2400000000000000000000000000000000000000000000000000000000000000000000000000000000000000000000089a76d7a4d006bdb9efd0923a346fae9437d434f00000000000000000000000000000000000000000000000000000000000002800000000000000000000000000000000000000000000000000000000000000001000000000000000000000000930252c65d369448b369cb1955530a396fe738bd0000000000000000000000007090120134cf3bb49f83bb2195d9731a25583f98000000000000000000000000d7d48a64eb6f2ddf740d3258d2df7b2e7122f01a000000000000000000000000e8d1f26f703f27abe60d3cf324bef6ce197d82af0000000000000000000000000000000000000000000000000b1a2bc2ec50000000000000000000000000000029306a367e1185bbc2a8e92a54a33c0b523505640000000000000000000000000000000000000000000000001bc16d674ec80000000000000000000000000000000000000000000000000000000000000000012000000000000000000000000000000000000000000000000000000000000000050000000000000000000000000000000000000000000000000de0b6b3a764000000000000000000000000000000000000000000000000000010a741a462780000000000000000000000000000000000000000000000000000136dcc951d8c000000000000000000000000000000000000000000000000000016345785d8a000000000000000000000000000000000000000000000000000001bc16d674ec800000000000000000000000000000000000000000000000000000000000000000000",
        "nonce": "0x1b",
        "chainId": "0x221"
      },
      "additionalContracts": [],
      "isFixedGasLimit": false
    }
  ],
  "receipts": [],
  "libraries": [],
  "pending": [
    "0x49213f540f7ffd2d81aee7cabefd099a7bcbfbc08aa3f25a0f32f6ffed2bb959"
  ],
  "returns": {},
  "timestamp": 1725342647,
  "chain": 545,
  "commit": "dd77fe3"
}