{
  "transactions": [
    {
      "hash": "0x971aaa9dc57e5d6ee73afc1236bd62d125d9db2dcc29fc479d6cc78b7eb4a1c2",
      "transactionType": "CALL",
      "contractName": null,
      "contractAddress": "0x4d3b3f7397b3edb56d1e80edf9c413cf4289f05d",
      "function": "approve(address,uint256)",
      "arguments": [
        "0x665EB1F72f2c0771A9C7305b8d735d5410FF3246",
        "100000000000000000000000"
      ],
      "transaction": {
        "from": "0x89a76d7a4d006bdb9efd0923a346fae9437d434f",
        "to": "0x4d3b3f7397b3edb56d1e80edf9c413cf4289f05d",
        "gas": "0x9c12",
        "value": "0x0",
        "input": "0x095ea7b3000000000000000000000000665eb1f72f2c0771a9c7305b8d735d5410ff324600000000000000000000000000000000000000000000152d02c7e14af6800000",
        "nonce": "0x32",
        "chainId": "0x221"
      },
      "additionalContracts": [],
      "isFixedGasLimit": false
    },
    {
      "hash": "0xf4055c6048fd79014dbc1ad811db418f2a409c10223be207ec2c845a0d2c9d6f",
      "transactionType": "CALL",
      "contractName": null,
      "contractAddress": "0x665eb1f72f2c0771a9c7305b8d735d5410ff3246",
      "function": "supply((bool,address,address,address,address,uint256,address,uint96,uint256[]),uint256,uint256,address,bytes)",
      "arguments": [
        "(true, 0x4d3b3f7397B3EdB56D1E80EDf9c413CF4289f05D, 0x77ce515ECDbE6B12Aa401c67cFb0F8762A2a727d, 0xd7D48a64eB6f2ddF740D3258D2df7b2e7122f01A, 0xC4FB5ba85196DEdb1eE5a24A623167D5854634C6, 800000000000000000, 0x29306A367e1185BbC2a8E92A54a33c0B52350564, 2000000000000000000, [1000000000000000000, 1200000000000000000, 1400000000000000000, 1600000000000000000, 2000000000000000000])",
        "10000000000000000000000",
        "0",
        "0x89a76D7a4D006bDB9Efd0923A346fAe9437D434F",
        "0x"
      ],
      "transaction": {
        "from": "0x89a76d7a4d006bdb9efd0923a346fae9437d434f",
        "to": "0x665eb1f72f2c0771a9c7305b8d735d5410ff3246",
        "gas": "0x78428",
        "value": "0x0",
        "input": "0xfcd1af1700000000000000000000000000000000000000000000000000000000000000a000000000000000000000000000000000000000000000021e19e0c9bab2400000000000000000000000000000000000000000000000000000000000000000000000000000000000000000000089a76d7a4d006bdb9efd0923a346fae9437d434f000000000000000000000000000000000000000000000000000000000000028000000000000000000000000000000000000000000000000000000000000000010000000000000000000000004d3b3f7397b3edb56d1e80edf9c413cf4289f05d00000000000000000000000077ce515ecdbe6b12aa401c67cfb0f8762a2a727d000000000000000000000000d7d48a64eb6f2ddf740d3258d2df7b2e7122f01a000000000000000000000000c4fb5ba85196dedb1ee5a24a623167d5854634c60000000000000000000000000000000000000000000000000b1a2bc2ec50000000000000000000000000000029306a367e1185bbc2a8e92a54a33c0b523505640000000000000000000000000000000000000000000000001bc16d674ec80000000000000000000000000000000000000000000000000000000000000000012000000000000000000000000000000000000000000000000000000000000000050000000000000000000000000000000000000000000000000de0b6b3a764000000000000000000000000000000000000000000000000000010a741a462780000000000000000000000000000000000000000000000000000136dcc951d8c000000000000000000000000000000000000000000000000000016345785d8a000000000000000000000000000000000000000000000000000001bc16d674ec800000000000000000000000000000000000000000000000000000000000000000000",
        "nonce": "0x33",
        "chainId": "0x221"
      },
      "additionalContracts": [],
      "isFixedGasLimit": false
    }
  ],
  "receipts": [
    {
      "status": "0x1",
      "cumulativeGasUsed": "0x70ff",
      "logs": [
        {
          "address": "0x4d3b3f7397b3edb56d1e80edf9c413cf4289f05d",
          "topics": [
            "0x8c5be1e5ebec7d5bd14f71427d1e84f3dd0314c0f7b2291e5b200ac8c7c3b925",
            "0x00000000000000000000000089a76d7a4d006bdb9efd0923a346fae9437d434f",
            "0x000000000000000000000000665eb1f72f2c0771a9c7305b8d735d5410ff3246"
          ],
          "data": "0x00000000000000000000000000000000000000000000152d02c7e14af6800000",
          "blockHash": "0xe3693e9d06c94817fb29b1961301719b29acc1c3fa4063964ef67a86615091ec",
          "blockNumber": "0x35b0c7",
          "transactionHash": "0x971aaa9dc57e5d6ee73afc1236bd62d125d9db2dcc29fc479d6cc78b7eb4a1c2",
          "transactionIndex": "0x0",
          "logIndex": "0x0",
          "removed": false
        }
      ],
      "logsBloom": "0x00000000000000000020000000000000020000000000000000000001000000000000000000000000000000000000000000000000000000000000000000200000000000000000000000000000000000000000000000000000000000000000000000000000000000000000000000000000000008000000000000000000000000000000000000000000000800000000000000000000001000000000000000000000020000000000000000000000000000000000000000000000000000020000000000000000020000000000000000000000000000000000000000000000000000000010000000000000000000000000000000000000000000000000000000000008",
      "type": "0x2",
      "transactionHash": "0x971aaa9dc57e5d6ee73afc1236bd62d125d9db2dcc29fc479d6cc78b7eb4a1c2",
      "transactionIndex": "0x0",
      "blockHash": "0xe3693e9d06c94817fb29b1961301719b29acc1c3fa4063964ef67a86615091ec",
      "blockNumber": "0x35b0c7",
      "gasUsed": "0x70ff",
      "effectiveGasPrice": "0x5f5e100",
      "from": "0x89a76d7a4d006bdb9efd0923a346fae9437d434f",
      "to": "0x4d3b3f7397b3edb56d1e80edf9c413cf4289f05d",
      "contractAddress": null
    },
    {
      "status": "0x1",
      "cumulativeGasUsed": "0x5710f",
      "logs": [
        {
          "address": "0xc4fb5ba85196dedb1ee5a24a623167d5854634c6",
          "topics": [
            "0x7120161a7b3d31251e01294ab351ef15a41b91659a36032e4641bb89b121e321",
            "0xb434884c96d529d265092f82f88fa53926bc43dcc8da61aa774a9ffafc9960e4"
          ],
          "data": "0x0000000000000000000000000000000000000000000000000000000012e5e4c3000000000000000000000000000000000000000000000000000000004b950725",
          "blockHash": "0x33a879f7340f63e55429364c19e7d669255653da232a2eeb196dd291f79822eb",
          "blockNumber": "0x35b0db",
          "transactionHash": "0xf4055c6048fd79014dbc1ad811db418f2a409c10223be207ec2c845a0d2c9d6f",
          "transactionIndex": "0x0",
          "logIndex": "0x0",
          "removed": false
        },
        {
          "address": "0x665eb1f72f2c0771a9c7305b8d735d5410ff3246",
          "topics": [
            "0x9d9bd501d0657d7dfe415f779a620a62b78bc508ddc0891fbbd8b7ac0f8fce87",
            "0xb434884c96d529d265092f82f88fa53926bc43dcc8da61aa774a9ffafc9960e4"
          ],
          "data": "0x0000000000000000000000000000000000000000000000000000000012e5e4c300000000000000000000000000000000000000000000000000000000000000000000000000000000000000000000000000000000000000000000000000000000",
          "blockHash": "0x33a879f7340f63e55429364c19e7d669255653da232a2eeb196dd291f79822eb",
          "blockNumber": "0x35b0db",
          "transactionHash": "0xf4055c6048fd79014dbc1ad811db418f2a409c10223be207ec2c845a0d2c9d6f",
          "transactionIndex": "0x0",
          "logIndex": "0x1",
          "removed": false
        },
        {
          "address": "0x665eb1f72f2c0771a9c7305b8d735d5410ff3246",
          "topics": [
            "0xedf8870433c83823eb071d3df1caa8d008f12f6440918c20d75a3602cda30fe0",
            "0xb434884c96d529d265092f82f88fa53926bc43dcc8da61aa774a9ffafc9960e4",
            "0x00000000000000000000000089a76d7a4d006bdb9efd0923a346fae9437d434f",
            "0x00000000000000000000000089a76d7a4d006bdb9efd0923a346fae9437d434f"
          ],
          "data": "0x00000000000000000000000000000000000000000000021e19e0c9bab24000000000000000000000000000000000000000000000204fce5e3e25026110000000",
          "blockHash": "0x33a879f7340f63e55429364c19e7d669255653da232a2eeb196dd291f79822eb",
          "blockNumber": "0x35b0db",
          "transactionHash": "0xf4055c6048fd79014dbc1ad811db418f2a409c10223be207ec2c845a0d2c9d6f",
          "transactionIndex": "0x0",
          "logIndex": "0x2",
          "removed": false
        },
        {
          "address": "0x4d3b3f7397b3edb56d1e80edf9c413cf4289f05d",
          "topics": [
            "0xddf252ad1be2c89b69c2b068fc378daa952ba7f163c4a11628f55a4df523b3ef",
            "0x00000000000000000000000089a76d7a4d006bdb9efd0923a346fae9437d434f",
            "0x000000000000000000000000665eb1f72f2c0771a9c7305b8d735d5410ff3246"
          ],
          "data": "0x00000000000000000000000000000000000000000000021e19e0c9bab2400000",
          "blockHash": "0x33a879f7340f63e55429364c19e7d669255653da232a2eeb196dd291f79822eb",
          "blockNumber": "0x35b0db",
          "transactionHash": "0xf4055c6048fd79014dbc1ad811db418f2a409c10223be207ec2c845a0d2c9d6f",
          "transactionIndex": "0x0",
          "logIndex": "0x3",
          "removed": false
        }
      ],
      "logsBloom": "0x0000000000000000002000000000000002000000040000000000000100000000000040000000000400000000000000000004000000000000000000002080400000000000000000000000000880000000000000080000000000000008000000000000000000000000000000000000000000000800000000000000001000000000000000000000004000080200000000000000000000100400001000000000000000000000000000000000000000000000000200000000000000000002000000000000000a020000000000000000000000000000000000000000000000000000400000000000000000000000000001000000000000000000000000000000000008",
      "type": "0x2",
      "transactionHash": "0xf4055c6048fd79014dbc1ad811db418f2a409c10223be207ec2c845a0d2c9d6f",
      "transactionIndex": "0x0",
      "blockHash": "0x33a879f7340f63e55429364c19e7d669255653da232a2eeb196dd291f79822eb",
      "blockNumber": "0x35b0db",
      "gasUsed": "0x5710f",
      "effectiveGasPrice": "0x5f5e100",
      "from": "0x89a76d7a4d006bdb9efd0923a346fae9437d434f",
      "to": "0x665eb1f72f2c0771a9c7305b8d735d5410ff3246",
      "contractAddress": null
    }
  ],
  "libraries": [],
  "pending": [],
  "returns": {},
  "timestamp": 1725428896,
  "chain": 545,
  "commit": "dd77fe3"
}