{
  "transactions": [
    {
      "hash": "0x2d21f70c031aad631879c8f77785efbe56e2c8411d7053077fcde68da197729a",
      "transactionType": "CREATE",
      "contractName": "ERC20MintableMock",
      "contractAddress": "0xc4f1dfc005cb2285b8a9ede7c525b0eedf24f5db",
      "function": null,
      "arguments": [
        "0x2690eEF879dF58B97ec7CF830F7627Fb1B51f826",
        "\"doge\"",
        "\"DOGE\""
      ],
      "transaction": {
        "from": "0x2690eef879df58b97ec7cf830f7627fb1b51f826",
        "gas": "0xe8db9",
        "value": "0x0",
        "input": "0x608060405234620003435762000f26803803806200001d8162000348565b92833981019060608183031262000343578051906001600160a01b0382168203620003435760208181015190916001600160401b0391828111620003435785620000699183016200036e565b94604082015183811162000343576200008392016200036e565b9380519082821162000243576003918254906001928383811c9316801562000338575b8784101462000322578190601f93848111620002cc575b508790848311600114620002655760009262000259575b505060001982861b1c191690831b1783555b8651938411620002435760049485548381811c9116801562000238575b828210146200022357828111620001d8575b508091851160011462000168575083929183916200014b986000956200015c575b50501b92600019911b1c1916179055620003e0565b50604051610ab39081620004738239f35b01519350388062000136565b91939290601f198416978660005283600020936000905b8a8210620001c0575050846200014b9910620001a5575b50505050811b019055620003e0565b01519060f884600019921b161c191690553880808062000196565b8088859782949686015181550196019301906200017f565b86600052816000208380880160051c82019284891062000219575b0160051c019084905b8281106200020c57505062000115565b60008155018490620001fc565b92508192620001f3565b602287634e487b7160e01b6000525260246000fd5b90607f169062000103565b634e487b7160e01b600052604160045260246000fd5b015190503880620000d4565b90859350601f1983169187600052896000209260005b8b828210620002b557505084116200029c575b505050811b018355620000e6565b015160001983881b60f8161c191690553880806200028e565b83850151865589979095019493840193016200027b565b90915085600052876000208480850160051c8201928a861062000318575b918791869594930160051c01915b82811062000308575050620000bd565b60008155859450879101620002f8565b92508192620002ea565b634e487b7160e01b600052602260045260246000fd5b92607f1692620000a6565b600080fd5b6040519190601f01601f191682016001600160401b038111838210176200024357604052565b919080601f84011215620003435782516001600160401b0381116200024357602090620003a4601f8201601f1916830162000348565b92818452828287010111620003435760005b818110620003cc57508260009394955001015290565b8581018301518482018401528201620003b6565b6001600160a01b031660008181527f05b8ccbb9d4d8fb16ea74ce3c29a41f1b461fbdaff4714a0d9a8eb05499746bc602052604081205490919060ff166200046e5781805260056020526040822081835260205260408220600160ff1982541617905533917f2f8788117e7eff1d82e926ec794901d17c78024a50270940304540a733656f0d8180a4600190565b509056fe608060408181526004918236101561001657600080fd5b600092833560e01c91826301ffc9a7146107975750816306fdde03146106bd578163095ea7b31461061357816318160ddd146105f457816323b872dd146104fd578163248a9ca3146104d25781632f2ff15d146104a8578163313ce5671461048c57816336568abe1461044657816340c10f191461039e57816370a082311461036757816391d148541461032057816395d89b4114610201578163a217fddf146101e6578163a9059cbb146101b5578163d53913931461017a578163d547741f14610136575063dd62ed3e146100eb57600080fd5b3461013257806003193601126101325780602092610107610833565b61010f61084e565b6001600160a01b0391821683526001865283832091168252845220549051908152f35b5080fd5b91905034610176578060031936011261017657610172913561016d600161015b61084e565b93838752600560205286200154610864565b610928565b5080f35b8280fd5b505034610132578160031936011261013257602090517f9f2df0fed2c77648de5860a4cc508cd0818c85b8b8a1ab4ceeef8d981c8956a68152f35b5050346101325780600319360112610132576020906101df6101d5610833565b602435903361099f565b5160018152f35b50503461013257816003193601126101325751908152602090f35b838334610132578160031936011261013257805190828454600181811c90808316928315610316575b6020938484108114610303578388529081156102e75750600114610292575b505050829003601f01601f191682019267ffffffffffffffff84118385101761027f575082918261027b9252826107ea565b0390f35b634e487b7160e01b815260418552602490fd5b8787529192508591837f8a35acfbc15ff81a39ae7d344fd709f28e8600b4aa8c65c6b64bfe7fe36bd19b5b8385106102d35750505050830101858080610249565b8054888601830152930192849082016102bd565b60ff1916878501525050151560051b8401019050858080610249565b634e487b7160e01b895260228a52602489fd5b91607f169161022a565b9050346101765781600319360112610176578160209360ff9261034161084e565b90358252600586528282206001600160a01b039091168252855220549151911615158152f35b5050346101325760203660031901126101325760209181906001600160a01b0361038f610833565b16815280845220549051908152f35b919050346101765780600319360112610176576103b9610833565b6001600160a01b03169160243591908315610431576002549083820180921161041e575084927fddf252ad1be2c89b69c2b068fc378daa952ba7f163c4a11628f55a4df523b3ef9260209260025585855284835280852082815401905551908152a380f35b634e487b7160e01b865260119052602485fd5b84602492519163ec442f0560e01b8352820152fd5b83833461013257806003193601126101325761046061084e565b90336001600160a01b0383160361047d5750610172919235610928565b5163334bd91960e11b81528390fd5b5050346101325781600319360112610132576020905160128152f35b9190503461017657806003193601126101765761017291356104cd600161015b61084e565b6108a8565b9050346101765760203660031901126101765781602093600192358152600585522001549051908152f35b905082346105f15760603660031901126105f157610519610833565b61052161084e565b916044359360018060a01b03831680835260016020528683203384526020528683205491600019830361055d575b6020886101df89898961099f565b8683106105c55781156105ae573315610597575082526001602090815286832033845281529186902090859003905582906101df8761054f565b8751634a1406b160e11b8152908101849052602490fd5b875163e602df0560e01b8152908101849052602490fd5b8751637dc7a0d960e11b8152339181019182526020820193909352604081018790528291506060010390fd5b80fd5b5050346101325781600319360112610132576020906002549051908152f35b90503461017657816003193601126101765761062d610833565b6024359033156106a6576001600160a01b031691821561068f57508083602095338152600187528181208582528752205582519081527f8c5be1e5ebec7d5bd14f71427d1e84f3dd0314c0f7b2291e5b200ac8c7c3b925843392a35160018152f35b8351634a1406b160e11b8152908101859052602490fd5b835163e602df0560e01b8152808401869052602490fd5b83833461013257816003193601126101325780519082600354600181811c9080831692831561078d575b6020938484108114610303578388529081156102e7575060011461073757505050829003601f01601f191682019267ffffffffffffffff84118385101761027f575082918261027b9252826107ea565b600387529192508591837fc2575a0e9e593c00f959f8c92f12db2869c3395a3b0502d05e2516446f71f85b5b8385106107795750505050830101858080610249565b805488860183015293019284908201610763565b91607f16916106e7565b849134610176576020366003190112610176573563ffffffff60e01b81168091036101765760209250637965db0b60e01b81149081156107d9575b5015158152f35b6301ffc9a760e01b149050836107d2565b6020808252825181830181905290939260005b82811061081f57505060409293506000838284010152601f8019910116010190565b8181018601518482016040015285016107fd565b600435906001600160a01b038216820361084957565b600080fd5b602435906001600160a01b038216820361084957565b80600052600560205260406000203360005260205260ff604060002054161561088a5750565b6044906040519063e2517d3f60e01b82523360048301526024820152fd5b906000918083526005602052604083209160018060a01b03169182845260205260ff604084205416156000146109235780835260056020526040832082845260205260408320600160ff198254161790557f2f8788117e7eff1d82e926ec794901d17c78024a50270940304540a733656f0d339380a4600190565b505090565b906000918083526005602052604083209160018060a01b03169182845260205260ff604084205416600014610923578083526005602052604083208284526020526040832060ff1981541690557ff6391f5c32d9c69d2a47ea670b442974b53935d1edc7fd64eb21e047a839171b339380a4600190565b916001600160a01b03808416928315610a645716928315610a4b5760009083825281602052604082205490838210610a19575091604082827fddf252ad1be2c89b69c2b068fc378daa952ba7f163c4a11628f55a4df523b3ef958760209652828652038282205586815220818154019055604051908152a3565b60405163391434e360e21b81526001600160a01b03919091166004820152602481019190915260448101839052606490fd5b60405163ec442f0560e01b815260006004820152602490fd5b604051634b637e8f60e11b815260006004820152602490fdfea2646970667358221220234d79bf702cec4bab9ef6968a9c2d2873e91d0982412f67bcb0a46158987aab64736f6c634300081400330000000000000000000000002690eef879df58b97ec7cf830f7627fb1b51f826000000000000000000000000000000000000000000000000000000000000006000000000000000000000000000000000000000000000000000000000000000a00000000000000000000000000000000000000000000000000000000000000004646f6765000000000000000000000000000000000000000000000000000000000000000000000000000000000000000000000000000000000000000000000004444f474500000000000000000000000000000000000000000000000000000000",
        "nonce": "0x29",
        "chainId": "0x221"
      },
      "additionalContracts": [],
      "isFixedGasLimit": false
    },
    {
      "hash": "0xee487dc0e1f20d72068cb846b6b455c89c7e82e3a49304b9f11b0e22732cf5ae",
      "transactionType": "CREATE",
      "contractName": "ERC20MintableMock",
      "contractAddress": "0x3065ba2325fc0d3cb571054e0d77786b6a14f78d",
      "function": null,
      "arguments": [
        "0x2690eEF879dF58B97ec7CF830F7627Fb1B51f826",
        "\"USDC Token\"",
        "\"USDC\""
      ],
      "transaction": {
        "from": "0x2690eef879df58b97ec7cf830f7627fb1b51f826",
        "gas": "0xe8e16",
        "value": "0x0",
        "input": "0x608060405234620003435762000f26803803806200001d8162000348565b92833981019060608183031262000343578051906001600160a01b0382168203620003435760208181015190916001600160401b0391828111620003435785620000699183016200036e565b94604082015183811162000343576200008392016200036e565b9380519082821162000243576003918254906001928383811c9316801562000338575b8784101462000322578190601f93848111620002cc575b508790848311600114620002655760009262000259575b505060001982861b1c191690831b1783555b8651938411620002435760049485548381811c9116801562000238575b828210146200022357828111620001d8575b508091851160011462000168575083929183916200014b986000956200015c575b50501b92600019911b1c1916179055620003e0565b50604051610ab39081620004738239f35b01519350388062000136565b91939290601f198416978660005283600020936000905b8a8210620001c0575050846200014b9910620001a5575b50505050811b019055620003e0565b01519060f884600019921b161c191690553880808062000196565b8088859782949686015181550196019301906200017f565b86600052816000208380880160051c82019284891062000219575b0160051c019084905b8281106200020c57505062000115565b60008155018490620001fc565b92508192620001f3565b602287634e487b7160e01b6000525260246000fd5b90607f169062000103565b634e487b7160e01b600052604160045260246000fd5b015190503880620000d4565b90859350601f1983169187600052896000209260005b8b828210620002b557505084116200029c575b505050811b018355620000e6565b015160001983881b60f8161c191690553880806200028e565b83850151865589979095019493840193016200027b565b90915085600052876000208480850160051c8201928a861062000318575b918791869594930160051c01915b82811062000308575050620000bd565b60008155859450879101620002f8565b92508192620002ea565b634e487b7160e01b600052602260045260246000fd5b92607f1692620000a6565b600080fd5b6040519190601f01601f191682016001600160401b038111838210176200024357604052565b919080601f84011215620003435782516001600160401b0381116200024357602090620003a4601f8201601f1916830162000348565b92818452828287010111620003435760005b818110620003cc57508260009394955001015290565b8581018301518482018401528201620003b6565b6001600160a01b031660008181527f05b8ccbb9d4d8fb16ea74ce3c29a41f1b461fbdaff4714a0d9a8eb05499746bc602052604081205490919060ff166200046e5781805260056020526040822081835260205260408220600160ff1982541617905533917f2f8788117e7eff1d82e926ec794901d17c78024a50270940304540a733656f0d8180a4600190565b509056fe608060408181526004918236101561001657600080fd5b600092833560e01c91826301ffc9a7146107975750816306fdde03146106bd578163095ea7b31461061357816318160ddd146105f457816323b872dd146104fd578163248a9ca3146104d25781632f2ff15d146104a8578163313ce5671461048c57816336568abe1461044657816340c10f191461039e57816370a082311461036757816391d148541461032057816395d89b4114610201578163a217fddf146101e6578163a9059cbb146101b5578163d53913931461017a578163d547741f14610136575063dd62ed3e146100eb57600080fd5b3461013257806003193601126101325780602092610107610833565b61010f61084e565b6001600160a01b0391821683526001865283832091168252845220549051908152f35b5080fd5b91905034610176578060031936011261017657610172913561016d600161015b61084e565b93838752600560205286200154610864565b610928565b5080f35b8280fd5b505034610132578160031936011261013257602090517f9f2df0fed2c77648de5860a4cc508cd0818c85b8b8a1ab4ceeef8d981c8956a68152f35b5050346101325780600319360112610132576020906101df6101d5610833565b602435903361099f565b5160018152f35b50503461013257816003193601126101325751908152602090f35b838334610132578160031936011261013257805190828454600181811c90808316928315610316575b6020938484108114610303578388529081156102e75750600114610292575b505050829003601f01601f191682019267ffffffffffffffff84118385101761027f575082918261027b9252826107ea565b0390f35b634e487b7160e01b815260418552602490fd5b8787529192508591837f8a35acfbc15ff81a39ae7d344fd709f28e8600b4aa8c65c6b64bfe7fe36bd19b5b8385106102d35750505050830101858080610249565b8054888601830152930192849082016102bd565b60ff1916878501525050151560051b8401019050858080610249565b634e487b7160e01b895260228a52602489fd5b91607f169161022a565b9050346101765781600319360112610176578160209360ff9261034161084e565b90358252600586528282206001600160a01b039091168252855220549151911615158152f35b5050346101325760203660031901126101325760209181906001600160a01b0361038f610833565b16815280845220549051908152f35b919050346101765780600319360112610176576103b9610833565b6001600160a01b03169160243591908315610431576002549083820180921161041e575084927fddf252ad1be2c89b69c2b068fc378daa952ba7f163c4a11628f55a4df523b3ef9260209260025585855284835280852082815401905551908152a380f35b634e487b7160e01b865260119052602485fd5b84602492519163ec442f0560e01b8352820152fd5b83833461013257806003193601126101325761046061084e565b90336001600160a01b0383160361047d5750610172919235610928565b5163334bd91960e11b81528390fd5b5050346101325781600319360112610132576020905160128152f35b9190503461017657806003193601126101765761017291356104cd600161015b61084e565b6108a8565b9050346101765760203660031901126101765781602093600192358152600585522001549051908152f35b905082346105f15760603660031901126105f157610519610833565b61052161084e565b916044359360018060a01b03831680835260016020528683203384526020528683205491600019830361055d575b6020886101df89898961099f565b8683106105c55781156105ae573315610597575082526001602090815286832033845281529186902090859003905582906101df8761054f565b8751634a1406b160e11b8152908101849052602490fd5b875163e602df0560e01b8152908101849052602490fd5b8751637dc7a0d960e11b8152339181019182526020820193909352604081018790528291506060010390fd5b80fd5b5050346101325781600319360112610132576020906002549051908152f35b90503461017657816003193601126101765761062d610833565b6024359033156106a6576001600160a01b031691821561068f57508083602095338152600187528181208582528752205582519081527f8c5be1e5ebec7d5bd14f71427d1e84f3dd0314c0f7b2291e5b200ac8c7c3b925843392a35160018152f35b8351634a1406b160e11b8152908101859052602490fd5b835163e602df0560e01b8152808401869052602490fd5b83833461013257816003193601126101325780519082600354600181811c9080831692831561078d575b6020938484108114610303578388529081156102e7575060011461073757505050829003601f01601f191682019267ffffffffffffffff84118385101761027f575082918261027b9252826107ea565b600387529192508591837fc2575a0e9e593c00f959f8c92f12db2869c3395a3b0502d05e2516446f71f85b5b8385106107795750505050830101858080610249565b805488860183015293019284908201610763565b91607f16916106e7565b849134610176576020366003190112610176573563ffffffff60e01b81168091036101765760209250637965db0b60e01b81149081156107d9575b5015158152f35b6301ffc9a760e01b149050836107d2565b6020808252825181830181905290939260005b82811061081f57505060409293506000838284010152601f8019910116010190565b8181018601518482016040015285016107fd565b600435906001600160a01b038216820361084957565b600080fd5b602435906001600160a01b038216820361084957565b80600052600560205260406000203360005260205260ff604060002054161561088a5750565b6044906040519063e2517d3f60e01b82523360048301526024820152fd5b906000918083526005602052604083209160018060a01b03169182845260205260ff604084205416156000146109235780835260056020526040832082845260205260408320600160ff198254161790557f2f8788117e7eff1d82e926ec794901d17c78024a50270940304540a733656f0d339380a4600190565b505090565b906000918083526005602052604083209160018060a01b03169182845260205260ff604084205416600014610923578083526005602052604083208284526020526040832060ff1981541690557ff6391f5c32d9c69d2a47ea670b442974b53935d1edc7fd64eb21e047a839171b339380a4600190565b916001600160a01b03808416928315610a645716928315610a4b5760009083825281602052604082205490838210610a19575091604082827fddf252ad1be2c89b69c2b068fc378daa952ba7f163c4a11628f55a4df523b3ef958760209652828652038282205586815220818154019055604051908152a3565b60405163391434e360e21b81526001600160a01b03919091166004820152602481019190915260448101839052606490fd5b60405163ec442f0560e01b815260006004820152602490fd5b604051634b637e8f60e11b815260006004820152602490fdfea2646970667358221220234d79bf702cec4bab9ef6968a9c2d2873e91d0982412f67bcb0a46158987aab64736f6c634300081400330000000000000000000000002690eef879df58b97ec7cf830f7627fb1b51f826000000000000000000000000000000000000000000000000000000000000006000000000000000000000000000000000000000000000000000000000000000a0000000000000000000000000000000000000000000000000000000000000000a5553444320546f6b656e0000000000000000000000000000000000000000000000000000000000000000000000000000000000000000000000000000000000045553444300000000000000000000000000000000000000000000000000000000",
        "nonce": "0x2a",
        "chainId": "0x221"
      },
      "additionalContracts": [],
      "isFixedGasLimit": false
    },
    {
      "hash": "0xce52712f0fef91ea3db3bf148f35bba1090b220056010335818eee0960f559b3",
      "transactionType": "CALL",
      "contractName": null,
      "contractAddress": "0x5d7de68283a0afcd5a1411596577cc389cdf4bae",
      "function": "createMarket((address,address,address,address,uint256))",
      "arguments": [
        "(0xC4F1dFC005Cb2285b8A9Ede7c525b0eEdF24F5db, 0x3065Ba2325fC0D3CB571054e0d77786B6A14F78d, 0x2880aB155794e7179c9eE2e38200202908C17B43, 0xcfc5f61bff3FEc063a73038e97bbe883360547E7, 800000000000000000)"
      ],
      "transaction": {
        "from": "0x2690eef879df58b97ec7cf830f7627fb1b51f826",
        "to": "0x5d7de68283a0afcd5a1411596577cc389cdf4bae",
        "gas": "0xa81da",
        "value": "0x0",
        "input": "0x8c1358a2000000000000000000000000c4f1dfc005cb2285b8a9ede7c525b0eedf24f5db0000000000000000000000003065ba2325fc0d3cb571054e0d77786b6a14f78d0000000000000000000000002880ab155794e7179c9ee2e38200202908c17b43000000000000000000000000cfc5f61bff3fec063a73038e97bbe883360547e70000000000000000000000000000000000000000000000000b1a2bc2ec500000",
        "nonce": "0x2b",
        "chainId": "0x221"
      },
      "additionalContracts": [
        {
          "transactionType": "CREATE",
          "address": "0xafce6d0193f582a7e06a9427b06513b5b93bd263",
          "initCode": "0x3d602d80600a3d3981f3363d3d373d3d3d363d738852ce02f983570496c433630c6eee98b3c96c835af43d82803e903d91602b57fd5bf3"
        }
      ],
      "isFixedGasLimit": false
    },
    {
      "hash": "0x9f9ad3a01b8dd0411e1c3a26e343605820db231dda1493d3840360c257c59497",
      "transactionType": "CALL",
      "contractName": null,
      "contractAddress": "0x5d7de68283a0afcd5a1411596577cc389cdf4bae",
      "function": "setCategoryInfo(bytes32,uint112[],uint16[],uint128[])",
      "arguments": [
        "0x3a0642762a9f3430ec344247d3774425276618916b14e50a8aa11218db87d913",
        "[2000000000000000000, 2000000000000000000, 2000000000000000000, 2000000000000000000, 2000000000000000000]",
        "[4, 8, 12, 16, 24]",
        "[1000000000000000000, 1200000000000000000, 1400000000000000000, 1600000000000000000, 2000000000000000000]"
      ],
      "transaction": {
        "from": "0x2690eef879df58b97ec7cf830f7627fb1b51f826",
        "to": "0x5d7de68283a0afcd5a1411596577cc389cdf4bae",
        "gas": "0x29de38",
        "value": "0x0",
        "input": "0x6e97735f3a0642762a9f3430ec344247d3774425276618916b14e50a8aa11218db87d91300000000000000000000000000000000000000000000000000000000000000800000000000000000000000000000000000000000000000000000000000000140000000000000000000000000000000000000000000000000000000000000020000000000000000000000000000000000000000000000000000000000000000050000000000000000000000000000000000000000000000001bc16d674ec800000000000000000000000000000000000000000000000000001bc16d674ec800000000000000000000000000000000000000000000000000001bc16d674ec800000000000000000000000000000000000000000000000000001bc16d674ec800000000000000000000000000000000000000000000000000001bc16d674ec80000000000000000000000000000000000000000000000000000000000000000000500000000000000000000000000000000000000000000000000000000000000040000000000000000000000000000000000000000000000000000000000000008000000000000000000000000000000000000000000000000000000000000000c0000000000000000000000000000000000000000000000000000000000000010000000000000000000000000000000000000000000000000000000000000001800000000000000000000000000000000000000000000000000000000000000050000000000000000000000000000000000000000000000000de0b6b3a764000000000000000000000000000000000000000000000000000010a741a462780000000000000000000000000000000000000000000000000000136dcc951d8c000000000000000000000000000000000000000000000000000016345785d8a000000000000000000000000000000000000000000000000000001bc16d674ec80000",
        "nonce": "0x2c",
        "chainId": "0x221"
      },
      "additionalContracts": [],
      "isFixedGasLimit": false
    },
    {
      "hash": "0x8bb5041c9422f9646738b42b03b5831918efe4546df8b78281c93f1e4fa8a8c1",
      "transactionType": "CALL",
      "contractName": "ERC20MintableMock",
      "contractAddress": "0xc4f1dfc005cb2285b8a9ede7c525b0eedf24f5db",
      "function": "mint(address,uint256)",
      "arguments": [
        "0x2690eEF879dF58B97ec7CF830F7627Fb1B51f826",
        "1000000000000000000000000"
      ],
      "transaction": {
        "from": "0x2690eef879df58b97ec7cf830f7627fb1b51f826",
        "to": "0xc4f1dfc005cb2285b8a9ede7c525b0eedf24f5db",
        "gas": "0x1702a",
        "value": "0x0",
        "input": "0x40c10f190000000000000000000000002690eef879df58b97ec7cf830f7627fb1b51f82600000000000000000000000000000000000000000000d3c21bcecceda1000000",
        "nonce": "0x2d",
        "chainId": "0x221"
      },
      "additionalContracts": [],
      "isFixedGasLimit": false
    },
    {
      "hash": "0x94950f00390c167e520b0ff3f040dcd9d20d815e0f8f43a7ef8c628f2a9a3968",
      "transactionType": "CALL",
      "contractName": "ERC20MintableMock",
      "contractAddress": "0xc4f1dfc005cb2285b8a9ede7c525b0eedf24f5db",
      "function": "approve(address,uint256)",
      "arguments": [
        "0x5D7de68283A0AFcd5A1411596577CC389CDF4BAE",
        "1000000000000000000000000"
      ],
      "transaction": {
        "from": "0x2690eef879df58b97ec7cf830f7627fb1b51f826",
        "to": "0xc4f1dfc005cb2285b8a9ede7c525b0eedf24f5db",
        "gas": "0xf845",
        "value": "0x0",
        "input": "0x095ea7b30000000000000000000000005d7de68283a0afcd5a1411596577cc389cdf4bae00000000000000000000000000000000000000000000d3c21bcecceda1000000",
        "nonce": "0x2e",
        "chainId": "0x221"
      },
      "additionalContracts": [],
      "isFixedGasLimit": false
    },
    {
      "hash": "0x40f3e2c5f37434704451a7e9ac86c487cd60981b939e1760220eaab74ae37d76",
      "transactionType": "CALL",
      "contractName": "ERC20MintableMock",
      "contractAddress": "0x3065ba2325fc0d3cb571054e0d77786b6a14f78d",
      "function": "mint(address,uint256)",
      "arguments": [
        "0x2690eEF879dF58B97ec7CF830F7627Fb1B51f826",
        "1000000000000000000000000"
      ],
      "transaction": {
        "from": "0x2690eef879df58b97ec7cf830f7627fb1b51f826",
        "to": "0x3065ba2325fc0d3cb571054e0d77786b6a14f78d",
        "gas": "0x1702a",
        "value": "0x0",
        "input": "0x40c10f190000000000000000000000002690eef879df58b97ec7cf830f7627fb1b51f82600000000000000000000000000000000000000000000d3c21bcecceda1000000",
        "nonce": "0x2f",
        "chainId": "0x221"
      },
      "additionalContracts": [],
      "isFixedGasLimit": false
    },
    {
      "hash": "0x30299c1f90bcf6f1abd43a07c42ee9e5d4d3c40e157569cff07a83f36c0c3986",
      "transactionType": "CALL",
      "contractName": "ERC20MintableMock",
      "contractAddress": "0x3065ba2325fc0d3cb571054e0d77786b6a14f78d",
      "function": "approve(address,uint256)",
      "arguments": [
        "0x5D7de68283A0AFcd5A1411596577CC389CDF4BAE",
        "1000000000000000000000000"
      ],
      "transaction": {
        "from": "0x2690eef879df58b97ec7cf830f7627fb1b51f826",
        "to": "0x3065ba2325fc0d3cb571054e0d77786b6a14f78d",
        "gas": "0xf845",
        "value": "0x0",
        "input": "0x095ea7b30000000000000000000000005d7de68283a0afcd5a1411596577cc389cdf4bae00000000000000000000000000000000000000000000d3c21bcecceda1000000",
        "nonce": "0x30",
        "chainId": "0x221"
      },
      "additionalContracts": [],
      "isFixedGasLimit": false
    },
    {
      "hash": "0xd3dc4c88d25c26347a8ac47f90ea3af7d981e93104932aa310175a924ef5365a",
      "transactionType": "CALL",
      "contractName": null,
      "contractAddress": "0x5d7de68283a0afcd5a1411596577cc389cdf4bae",
      "function": "supply((address,address,address,address,uint256),uint256,uint256,address,bytes)",
      "arguments": [
        "(0xC4F1dFC005Cb2285b8A9Ede7c525b0eEdF24F5db, 0x3065Ba2325fC0D3CB571054e0d77786B6A14F78d, 0x2880aB155794e7179c9eE2e38200202908C17B43, 0xcfc5f61bff3FEc063a73038e97bbe883360547E7, 800000000000000000)",
        "10000000000000000000000",
        "0",
        "0x2690eEF879dF58B97ec7CF830F7627Fb1B51f826",
        "0x"
      ],
      "transaction": {
        "from": "0x2690eef879df58b97ec7cf830f7627fb1b51f826",
        "to": "0x5d7de68283a0afcd5a1411596577cc389cdf4bae",
        "gas": "0x2d0be",
        "value": "0x0",
        "input": "0xa99aad89000000000000000000000000c4f1dfc005cb2285b8a9ede7c525b0eedf24f5db0000000000000000000000003065ba2325fc0d3cb571054e0d77786b6a14f78d0000000000000000000000002880ab155794e7179c9ee2e38200202908c17b43000000000000000000000000cfc5f61bff3fec063a73038e97bbe883360547e70000000000000000000000000000000000000000000000000b1a2bc2ec50000000000000000000000000000000000000000000000000021e19e0c9bab240000000000000000000000000000000000000000000000000000000000000000000000000000000000000000000002690eef879df58b97ec7cf830f7627fb1b51f82600000000000000000000000000000000000000000000000000000000000001200000000000000000000000000000000000000000000000000000000000000000",
        "nonce": "0x31",
        "chainId": "0x221"
      },
      "additionalContracts": [],
      "isFixedGasLimit": false
    }
  ],
  "receipts": [
    {
      "status": "0x1",
      "cumulativeGasUsed": "0xb32f3",
      "logs": [
        {
          "address": "0xc4f1dfc005cb2285b8a9ede7c525b0eedf24f5db",
          "topics": [
            "0x2f8788117e7eff1d82e926ec794901d17c78024a50270940304540a733656f0d",
            "0x0000000000000000000000000000000000000000000000000000000000000000",
            "0x0000000000000000000000002690eef879df58b97ec7cf830f7627fb1b51f826",
            "0x0000000000000000000000002690eef879df58b97ec7cf830f7627fb1b51f826"
          ],
          "data": "0x",
          "blockHash": "0x8180c33346615b683c98401cdf8002376b9251a1086f864235d040ae2a624411",
          "blockNumber": "0x1443ec",
          "transactionHash": "0x2d21f70c031aad631879c8f77785efbe56e2c8411d7053077fcde68da197729a",
          "transactionIndex": "0x0",
          "logIndex": "0x0",
          "removed": false
        }
      ],
      "logsBloom": "0x00000004000000000000000000000000000000000000000000000000000000000000000000200000000000000000000000000000000000000000800000000000000040000000000000000000000000000000000000000000000000000000000000000000020000000000000000000800000000000000000000000000000000000000000000000000000000000000000000000000000000000000000000000000000000000000000000400000000000000000000000000000001040000000000000000000000000000000000000000000000000000000000100000000000020000000000000000000000000000000800000000000000000000000000000000000",
      "type": "0x2",
      "transactionHash": "0x2d21f70c031aad631879c8f77785efbe56e2c8411d7053077fcde68da197729a",
      "transactionIndex": "0x0",
      "blockHash": "0x8180c33346615b683c98401cdf8002376b9251a1086f864235d040ae2a624411",
      "blockNumber": "0x1443ec",
      "gasUsed": "0xb32f3",
      "effectiveGasPrice": "0x1",
      "from": "0x2690eef879df58b97ec7cf830f7627fb1b51f826",
      "to": null,
      "contractAddress": "0xc4f1dfc005cb2285b8a9ede7c525b0eedf24f5db"
    },
    {
      "status": "0x1",
      "cumulativeGasUsed": "0xb333b",
      "logs": [
        {
          "address": "0x3065ba2325fc0d3cb571054e0d77786b6a14f78d",
          "topics": [
            "0x2f8788117e7eff1d82e926ec794901d17c78024a50270940304540a733656f0d",
            "0x0000000000000000000000000000000000000000000000000000000000000000",
            "0x0000000000000000000000002690eef879df58b97ec7cf830f7627fb1b51f826",
            "0x0000000000000000000000002690eef879df58b97ec7cf830f7627fb1b51f826"
          ],
          "data": "0x",
          "blockHash": "0xe0d6e30bc2d640103ae5bfa9c2506ed5fc1a19d7283e647913044445592a9ae5",
          "blockNumber": "0x144401",
          "transactionHash": "0xee487dc0e1f20d72068cb846b6b455c89c7e82e3a49304b9f11b0e22732cf5ae",
          "transactionIndex": "0x0",
          "logIndex": "0x0",
          "removed": false
        }
      ],
      "logsBloom": "0x00000004000000000000000000000000000000000000000000004000000000000000000000200000000000000000000000000000000000000000000000000000000000000000000000000000000000000000000000000000000000000000000000000000020001000000000000000800000000000000000000000000000000000000000000000000000000000000000000000000000000000000000000000000000000000000200000400000000000000000000000000000001040000000000000000000000000000000000000000000000000000000000100000000000020000000000000000000000000000000000000000000000000000000000000000000",
      "type": "0x2",
      "transactionHash": "0xee487dc0e1f20d72068cb846b6b455c89c7e82e3a49304b9f11b0e22732cf5ae",
      "transactionIndex": "0x0",
      "blockHash": "0xe0d6e30bc2d640103ae5bfa9c2506ed5fc1a19d7283e647913044445592a9ae5",
      "blockNumber": "0x144401",
      "gasUsed": "0xb333b",
      "effectiveGasPrice": "0x1",
      "from": "0x2690eef879df58b97ec7cf830f7627fb1b51f826",
      "to": null,
      "contractAddress": "0x3065ba2325fc0d3cb571054e0d77786b6a14f78d"
    },
    {
      "status": "0x1",
      "cumulativeGasUsed": "0x79b6c",
      "logs": [
        {
          "address": "0xafce6d0193f582a7e06a9427b06513b5b93bd263",
          "topics": [
            "0x8be0079c531659141344cd1fd0a4f28419497f9722a3daafe3b4186f6b6457e0",
            "0x0000000000000000000000000000000000000000000000000000000000000000",
            "0x000000000000000000000000fdcad24b16c8acd8731f48e8a0399112d7888107"
          ],
          "data": "0x",
          "blockHash": "0x45be3c48f5c45b115917ab5a0723bf8d95c67e726f4967f60a8fa43fac730a59",
          "blockNumber": "0x144416",
          "transactionHash": "0xce52712f0fef91ea3db3bf148f35bba1090b220056010335818eee0960f559b3",
          "transactionIndex": "0x0",
          "logIndex": "0x0",
          "removed": false
        },
        {
          "address": "0xafce6d0193f582a7e06a9427b06513b5b93bd263",
          "topics": [
            "0x8be0079c531659141344cd1fd0a4f28419497f9722a3daafe3b4186f6b6457e0",
            "0x000000000000000000000000fdcad24b16c8acd8731f48e8a0399112d7888107",
            "0x0000000000000000000000005d7de68283a0afcd5a1411596577cc389cdf4bae"
          ],
          "data": "0x",
          "blockHash": "0x45be3c48f5c45b115917ab5a0723bf8d95c67e726f4967f60a8fa43fac730a59",
          "blockNumber": "0x144416",
          "transactionHash": "0xce52712f0fef91ea3db3bf148f35bba1090b220056010335818eee0960f559b3",
          "transactionIndex": "0x0",
          "logIndex": "0x1",
          "removed": false
        },
        {
          "address": "0xafce6d0193f582a7e06a9427b06513b5b93bd263",
          "topics": [
            "0x7f26b83ff96e1f2b6a682f133852f6798a09c465da95921460cefb3847402498"
          ],
          "data": "0x0000000000000000000000000000000000000000000000000000000000000001",
          "blockHash": "0x45be3c48f5c45b115917ab5a0723bf8d95c67e726f4967f60a8fa43fac730a59",
          "blockNumber": "0x144416",
          "transactionHash": "0xce52712f0fef91ea3db3bf148f35bba1090b220056010335818eee0960f559b3",
          "transactionIndex": "0x0",
          "logIndex": "0x2",
          "removed": false
        },
        {
          "address": "0xfdcad24b16c8acd8731f48e8a0399112d7888107",
          "topics": [
            "0x6d7227d9bbb893748017ba3c332f62a2ea59214189741458be5865587226433c"
          ],
          "data": "0x0000000000000000000000005d7de68283a0afcd5a1411596577cc389cdf4bae000000000000000000000000afce6d0193f582a7e06a9427b06513b5b93bd263",
          "blockHash": "0x45be3c48f5c45b115917ab5a0723bf8d95c67e726f4967f60a8fa43fac730a59",
          "blockNumber": "0x144416",
          "transactionHash": "0xce52712f0fef91ea3db3bf148f35bba1090b220056010335818eee0960f559b3",
          "transactionIndex": "0x0",
          "logIndex": "0x3",
          "removed": false
        },
        {
          "address": "0x5d7de68283a0afcd5a1411596577cc389cdf4bae",
          "topics": [
            "0xac4b2400f169220b0c0afdde7a0b32e775ba727ea1cb30b35f935cdaab8683ac",
            "0x3a0642762a9f3430ec344247d3774425276618916b14e50a8aa11218db87d913"
          ],
          "data": "0x000000000000000000000000c4f1dfc005cb2285b8a9ede7c525b0eedf24f5db0000000000000000000000003065ba2325fc0d3cb571054e0d77786b6a14f78d0000000000000000000000002880ab155794e7179c9ee2e38200202908c17b43000000000000000000000000cfc5f61bff3fec063a73038e97bbe883360547e70000000000000000000000000000000000000000000000000b1a2bc2ec500000",
          "blockHash": "0x45be3c48f5c45b115917ab5a0723bf8d95c67e726f4967f60a8fa43fac730a59",
          "blockNumber": "0x144416",
          "transactionHash": "0xce52712f0fef91ea3db3bf148f35bba1090b220056010335818eee0960f559b3",
          "transactionIndex": "0x0",
          "logIndex": "0x4",
          "removed": false
        },
        {
          "address": "0xcfc5f61bff3fec063a73038e97bbe883360547e7",
          "topics": [
            "0x7120161a7b3d31251e01294ab351ef15a41b91659a36032e4641bb89b121e321",
            "0x3a0642762a9f3430ec344247d3774425276618916b14e50a8aa11218db87d913"
          ],
          "data": "0x0000000000000000000000000000000000000000000000000000000012e687bf000000000000000000000000000000000000000000000000000000004b9a1eff",
          "blockHash": "0x45be3c48f5c45b115917ab5a0723bf8d95c67e726f4967f60a8fa43fac730a59",
          "blockNumber": "0x144416",
          "transactionHash": "0xce52712f0fef91ea3db3bf148f35bba1090b220056010335818eee0960f559b3",
          "transactionIndex": "0x0",
          "logIndex": "0x5",
          "removed": false
        }
      ],
      "logsBloom": "0x00000000000100000000010000000800000000000000000000800000000000000000000000020004000000000000000000000002400004000000000000a04000000000000000000000000000000000010021000000000000000000000000000001000000020000000000000000000800000200800000000000000040000000400000000000000040000000000000000000000000000080000000000000000000000000000000000000000000000400000000001018000000000000000000000000000000000000000800000000040100000000010000000100000080000020000000000000020800000000000001000000000000000000000000000000000010",
      "type": "0x2",
      "transactionHash": "0xce52712f0fef91ea3db3bf148f35bba1090b220056010335818eee0960f559b3",
      "transactionIndex": "0x0",
      "blockHash": "0x45be3c48f5c45b115917ab5a0723bf8d95c67e726f4967f60a8fa43fac730a59",
      "blockNumber": "0x144416",
      "gasUsed": "0x79b6c",
      "effectiveGasPrice": "0x1",
      "from": "0x2690eef879df58b97ec7cf830f7627fb1b51f826",
      "to": "0x5d7de68283a0afcd5a1411596577cc389cdf4bae",
      "contractAddress": null
    },
    {
      "status": "0x1",
      "cumulativeGasUsed": "0x1e4fcd",
      "logs": [],
      "logsBloom": "0x00000000000000000000000000000000000000000000000000000000000000000000000000000000000000000000000000000000000000000000000000000000000000000000000000000000000000000000000000000000000000000000000000000000000000000000000000000000000000000000000000000000000000000000000000000000000000000000000000000000000000000000000000000000000000000000000000000000000000000000000000000000000000000000000000000000000000000000000000000000000000000000000000000000000000000000000000000000000000000000000000000000000000000000000000000000",
      "type": "0x2",
      "transactionHash": "0x9f9ad3a01b8dd0411e1c3a26e343605820db231dda1493d3840360c257c59497",
      "transactionIndex": "0x0",
      "blockHash": "0xebb93c84b8a0ca5e6b22702471055a5c2a696bf41a207bc231725b525ccb3528",
      "blockNumber": "0x144425",
      "gasUsed": "0x1e4fcd",
      "effectiveGasPrice": "0x1",
      "from": "0x2690eef879df58b97ec7cf830f7627fb1b51f826",
      "to": "0x5d7de68283a0afcd5a1411596577cc389cdf4bae",
      "contractAddress": null
    },
    {
      "status": "0x1",
      "cumulativeGasUsed": "0x10a8c",
      "logs": [
        {
          "address": "0xc4f1dfc005cb2285b8a9ede7c525b0eedf24f5db",
          "topics": [
            "0xddf252ad1be2c89b69c2b068fc378daa952ba7f163c4a11628f55a4df523b3ef",
            "0x0000000000000000000000000000000000000000000000000000000000000000",
            "0x0000000000000000000000002690eef879df58b97ec7cf830f7627fb1b51f826"
          ],
          "data": "0x00000000000000000000000000000000000000000000d3c21bcecceda1000000",
          "blockHash": "0x786a09d6d31fa108e2c0ed871f4dedd3974e53144e4e1241637e1c33c5d7d369",
          "blockNumber": "0x144439",
          "transactionHash": "0x8bb5041c9422f9646738b42b03b5831918efe4546df8b78281c93f1e4fa8a8c1",
          "transactionIndex": "0x0",
          "logIndex": "0x0",
          "removed": false
        }
      ],
      "logsBloom": "0x00000000000000000000000000000000000000000000000000000000000000000000000000200000000000000000000000000000000000000000800000000000000040000000000000000008000000000000000000000000000000000000000000000000020000000000000000000800000000000000000000000010000000000000000000000000000000000000000000000000000000000000000000000000000000000000000000400000000000000000000000000000000040000000000000000002000000000000000000000000000000000000000000000000000020000000000000000000000000000000800000000000000000000000000000000000",
      "type": "0x2",
      "transactionHash": "0x8bb5041c9422f9646738b42b03b5831918efe4546df8b78281c93f1e4fa8a8c1",
      "transactionIndex": "0x0",
      "blockHash": "0x786a09d6d31fa108e2c0ed871f4dedd3974e53144e4e1241637e1c33c5d7d369",
      "blockNumber": "0x144439",
      "gasUsed": "0x10a8c",
      "effectiveGasPrice": "0x1",
      "from": "0x2690eef879df58b97ec7cf830f7627fb1b51f826",
      "to": "0xc4f1dfc005cb2285b8a9ede7c525b0eedf24f5db",
      "contractAddress": null
    },
    {
      "status": "0x1",
      "cumulativeGasUsed": "0xb3bf",
      "logs": [
        {
          "address": "0xc4f1dfc005cb2285b8a9ede7c525b0eedf24f5db",
          "topics": [
            "0x8c5be1e5ebec7d5bd14f71427d1e84f3dd0314c0f7b2291e5b200ac8c7c3b925",
            "0x0000000000000000000000002690eef879df58b97ec7cf830f7627fb1b51f826",
            "0x0000000000000000000000005d7de68283a0afcd5a1411596577cc389cdf4bae"
          ],
          "data": "0x00000000000000000000000000000000000000000000d3c21bcecceda1000000",
          "blockHash": "0x353c32ebbec307e894da478b6395dacf28953ed88aa22e8f738dd3e428704c3a",
          "blockNumber": "0x14444f",
          "transactionHash": "0x94950f00390c167e520b0ff3f040dcd9d20d815e0f8f43a7ef8c628f2a9a3968",
          "transactionIndex": "0x0",
          "logIndex": "0x0",
          "removed": false
        }
      ],
      "logsBloom": "0x00000000000000000000000000000000000000000000000000000000000000000000000000200000000000000000000000000000400000000000800000200000000040000000000000000000000000000000000000000000000000000000000000000000000000000000000000000000000000000000000000000000000000000000000000000000000000000000000000000000000000000000000000000000020000000000000000400000000000000000001000000000000040000000000000000000000000000000000000000000000000010000000000000000000000000010000000000000000000000000800000000000000000000000000000000000",
      "type": "0x2",
      "transactionHash": "0x94950f00390c167e520b0ff3f040dcd9d20d815e0f8f43a7ef8c628f2a9a3968",
      "transactionIndex": "0x0",
      "blockHash": "0x353c32ebbec307e894da478b6395dacf28953ed88aa22e8f738dd3e428704c3a",
      "blockNumber": "0x14444f",
      "gasUsed": "0xb3bf",
      "effectiveGasPrice": "0x1",
      "from": "0x2690eef879df58b97ec7cf830f7627fb1b51f826",
      "to": "0xc4f1dfc005cb2285b8a9ede7c525b0eedf24f5db",
      "contractAddress": null
    },
    {
      "status": "0x1",
      "cumulativeGasUsed": "0x10a8c",
      "logs": [
        {
          "address": "0x3065ba2325fc0d3cb571054e0d77786b6a14f78d",
          "topics": [
            "0xddf252ad1be2c89b69c2b068fc378daa952ba7f163c4a11628f55a4df523b3ef",
            "0x0000000000000000000000000000000000000000000000000000000000000000",
            "0x0000000000000000000000002690eef879df58b97ec7cf830f7627fb1b51f826"
          ],
          "data": "0x00000000000000000000000000000000000000000000d3c21bcecceda1000000",
          "blockHash": "0xe5ccdc467f9c23f7bd26f41a6c6f0b79192d51a5eebd129d0ac3c7df122a605d",
          "blockNumber": "0x144460",
          "transactionHash": "0x40f3e2c5f37434704451a7e9ac86c487cd60981b939e1760220eaab74ae37d76",
          "transactionIndex": "0x0",
          "logIndex": "0x0",
          "removed": false
        }
      ],
      "logsBloom": "0x00000000000000000000000000000000000000000000000000004000000000000000000000200000000000000000000000000000000000000000000000000000000000000000000000000008000000000000000000000000000000000000000000000000020001000000000000000800000000000000000000000010000000000000000000000000000000000000000000000000000000000000000000000000000000000000200000400000000000000000000000000000000040000000000000000002000000000000000000000000000000000000000000000000000020000000000000000000000000000000000000000000000000000000000000000000",
      "type": "0x2",
      "transactionHash": "0x40f3e2c5f37434704451a7e9ac86c487cd60981b939e1760220eaab74ae37d76",
      "transactionIndex": "0x0",
      "blockHash": "0xe5ccdc467f9c23f7bd26f41a6c6f0b79192d51a5eebd129d0ac3c7df122a605d",
      "blockNumber": "0x144460",
      "gasUsed": "0x10a8c",
      "effectiveGasPrice": "0x1",
      "from": "0x2690eef879df58b97ec7cf830f7627fb1b51f826",
      "to": "0x3065ba2325fc0d3cb571054e0d77786b6a14f78d",
      "contractAddress": null
    },
    {
      "status": "0x1",
      "cumulativeGasUsed": "0xb3bf",
      "logs": [
        {
          "address": "0x3065ba2325fc0d3cb571054e0d77786b6a14f78d",
          "topics": [
            "0x8c5be1e5ebec7d5bd14f71427d1e84f3dd0314c0f7b2291e5b200ac8c7c3b925",
            "0x0000000000000000000000002690eef879df58b97ec7cf830f7627fb1b51f826",
            "0x0000000000000000000000005d7de68283a0afcd5a1411596577cc389cdf4bae"
          ],
          "data": "0x00000000000000000000000000000000000000000000d3c21bcecceda1000000",
          "blockHash": "0x678705c1595e1c1ceb5fbef46a1074655524a981f9f6d0a21ca5fdbd3edb8653",
          "blockNumber": "0x144474",
          "transactionHash": "0x30299c1f90bcf6f1abd43a07c42ee9e5d4d3c40e157569cff07a83f36c0c3986",
          "transactionIndex": "0x0",
          "logIndex": "0x0",
          "removed": false
        }
      ],
      "logsBloom": "0x00000000000000000000000000000000000000000000000000004000000000000000000000200000000000000000000000000000400000000000000000200000000000000000000000000000000000000000000000000000000000000000000000000000000001000000000000000000000000000000000000000000000000000000000000000000000000000000000000000000000000000000000000000000020000000000200000400000000000000000001000000000000040000000000000000000000000000000000000000000000000010000000000000000000000000010000000000000000000000000000000000000000000000000000000000000",
      "type": "0x2",
      "transactionHash": "0x30299c1f90bcf6f1abd43a07c42ee9e5d4d3c40e157569cff07a83f36c0c3986",
      "transactionIndex": "0x0",
      "blockHash": "0x678705c1595e1c1ceb5fbef46a1074655524a981f9f6d0a21ca5fdbd3edb8653",
      "blockNumber": "0x144474",
      "gasUsed": "0xb3bf",
      "effectiveGasPrice": "0x1",
      "from": "0x2690eef879df58b97ec7cf830f7627fb1b51f826",
      "to": "0x3065ba2325fc0d3cb571054e0d77786b6a14f78d",
      "contractAddress": null
    }
  ],
  "libraries": [],
  "pending": [],
  "returns": {},
  "timestamp": 1724333398,
  "chain": 545,
  "commit": "7941035"
}
