{
  "transactions": [
    {
      "hash": "0xe211d755ce5b226bc98c1f9515eccdd4d5d73228081ad156fb5c28e33b16bc35",
      "transactionType": "CREATE",
      "contractName": "ERC20MintableMock",
      "contractAddress": "0x02df64de672e837a21701d79c3b6e24b7ab670cf",
      "function": null,
      "arguments": [
        "0x2690eEF879dF58B97ec7CF830F7627Fb1B51f826"
      ],
      "transaction": {
        "from": "0x2690eef879df58b97ec7cf830f7627fb1b51f826",
        "gas": "0xe7c65",
        "value": "0x0",
        "input": "0x6080346200034557601f90601f196001600160401b0362000eb03881900385810184168501838111868210176200024957859282916040528339602094859181010312620003455751926001600160a01b03841684036200034557620000646200034a565b600781526626bcaa37b5b2b760c91b82820152620000816200034a565b95600392838852624d544b60e81b818901528251858111620002495784546001948582811c921680156200033a575b8483101462000324578185849311620002ce575b5083908583116001146200026b576000926200025f575b505060001982871b1c191690841b1784555b8751948511620002495760049586548481811c911680156200023e575b838210146200022957838111620001de575b5081928611600114620001705750508392918391620001539860009562000164575b50501b92600019911b1c19161790556200036a565b50604051610ab39081620003fd8239f35b0151935038806200013e565b85949291939516978660005283600020936000905b8a8210620001c657505084620001539910620001ab575b50505050811b0190556200036a565b01519060f884600019921b161c19169055388080806200019c565b80888597829496860151815501960193019062000185565b87600052826000208480890160051c820192858a106200021f575b0160051c019085905b828110620002125750506200011c565b6000815501859062000202565b92508192620001f9565b602288634e487b7160e01b6000525260246000fd5b90607f16906200010a565b634e487b7160e01b600052604160045260246000fd5b015190503880620000db565b90898794169188600052856000209260005b87828210620002b757505084116200029e575b505050811b018455620000ed565b015160001983891b60f8161c1916905538808062000290565b8385015186558a979095019493840193016200027d565b90915086600052836000208580850160051c8201928686106200031a575b918891869594930160051c01915b8281106200030a575050620000c4565b60008155859450889101620002fa565b92508192620002ec565b634e487b7160e01b600052602260045260246000fd5b91607f1691620000b0565b600080fd5b60408051919082016001600160401b038111838210176200024957604052565b6001600160a01b031660008181527f05b8ccbb9d4d8fb16ea74ce3c29a41f1b461fbdaff4714a0d9a8eb05499746bc602052604081205490919060ff16620003f85781805260056020526040822081835260205260408220600160ff1982541617905533917f2f8788117e7eff1d82e926ec794901d17c78024a50270940304540a733656f0d8180a4600190565b509056fe608060408181526004918236101561001657600080fd5b600092833560e01c91826301ffc9a7146107975750816306fdde03146106bd578163095ea7b31461061357816318160ddd146105f457816323b872dd146104fd578163248a9ca3146104d25781632f2ff15d146104a8578163313ce5671461048c57816336568abe1461044657816340c10f191461039e57816370a082311461036757816391d148541461032057816395d89b4114610201578163a217fddf146101e6578163a9059cbb146101b5578163d53913931461017a578163d547741f14610136575063dd62ed3e146100eb57600080fd5b3461013257806003193601126101325780602092610107610833565b61010f61084e565b6001600160a01b0391821683526001865283832091168252845220549051908152f35b5080fd5b91905034610176578060031936011261017657610172913561016d600161015b61084e565b93838752600560205286200154610864565b610928565b5080f35b8280fd5b505034610132578160031936011261013257602090517f9f2df0fed2c77648de5860a4cc508cd0818c85b8b8a1ab4ceeef8d981c8956a68152f35b5050346101325780600319360112610132576020906101df6101d5610833565b602435903361099f565b5160018152f35b50503461013257816003193601126101325751908152602090f35b838334610132578160031936011261013257805190828454600181811c90808316928315610316575b6020938484108114610303578388529081156102e75750600114610292575b505050829003601f01601f191682019267ffffffffffffffff84118385101761027f575082918261027b9252826107ea565b0390f35b634e487b7160e01b815260418552602490fd5b8787529192508591837f8a35acfbc15ff81a39ae7d344fd709f28e8600b4aa8c65c6b64bfe7fe36bd19b5b8385106102d35750505050830101858080610249565b8054888601830152930192849082016102bd565b60ff1916878501525050151560051b8401019050858080610249565b634e487b7160e01b895260228a52602489fd5b91607f169161022a565b9050346101765781600319360112610176578160209360ff9261034161084e565b90358252600586528282206001600160a01b039091168252855220549151911615158152f35b5050346101325760203660031901126101325760209181906001600160a01b0361038f610833565b16815280845220549051908152f35b919050346101765780600319360112610176576103b9610833565b6001600160a01b03169160243591908315610431576002549083820180921161041e575084927fddf252ad1be2c89b69c2b068fc378daa952ba7f163c4a11628f55a4df523b3ef9260209260025585855284835280852082815401905551908152a380f35b634e487b7160e01b865260119052602485fd5b84602492519163ec442f0560e01b8352820152fd5b83833461013257806003193601126101325761046061084e565b90336001600160a01b0383160361047d5750610172919235610928565b5163334bd91960e11b81528390fd5b5050346101325781600319360112610132576020905160128152f35b9190503461017657806003193601126101765761017291356104cd600161015b61084e565b6108a8565b9050346101765760203660031901126101765781602093600192358152600585522001549051908152f35b905082346105f15760603660031901126105f157610519610833565b61052161084e565b916044359360018060a01b03831680835260016020528683203384526020528683205491600019830361055d575b6020886101df89898961099f565b8683106105c55781156105ae573315610597575082526001602090815286832033845281529186902090859003905582906101df8761054f565b8751634a1406b160e11b8152908101849052602490fd5b875163e602df0560e01b8152908101849052602490fd5b8751637dc7a0d960e11b8152339181019182526020820193909352604081018790528291506060010390fd5b80fd5b5050346101325781600319360112610132576020906002549051908152f35b90503461017657816003193601126101765761062d610833565b6024359033156106a6576001600160a01b031691821561068f57508083602095338152600187528181208582528752205582519081527f8c5be1e5ebec7d5bd14f71427d1e84f3dd0314c0f7b2291e5b200ac8c7c3b925843392a35160018152f35b8351634a1406b160e11b8152908101859052602490fd5b835163e602df0560e01b8152808401869052602490fd5b83833461013257816003193601126101325780519082600354600181811c9080831692831561078d575b6020938484108114610303578388529081156102e7575060011461073757505050829003601f01601f191682019267ffffffffffffffff84118385101761027f575082918261027b9252826107ea565b600387529192508591837fc2575a0e9e593c00f959f8c92f12db2869c3395a3b0502d05e2516446f71f85b5b8385106107795750505050830101858080610249565b805488860183015293019284908201610763565b91607f16916106e7565b849134610176576020366003190112610176573563ffffffff60e01b81168091036101765760209250637965db0b60e01b81149081156107d9575b5015158152f35b6301ffc9a760e01b149050836107d2565b6020808252825181830181905290939260005b82811061081f57505060409293506000838284010152601f8019910116010190565b8181018601518482016040015285016107fd565b600435906001600160a01b038216820361084957565b600080fd5b602435906001600160a01b038216820361084957565b80600052600560205260406000203360005260205260ff604060002054161561088a5750565b6044906040519063e2517d3f60e01b82523360048301526024820152fd5b906000918083526005602052604083209160018060a01b03169182845260205260ff604084205416156000146109235780835260056020526040832082845260205260408320600160ff198254161790557f2f8788117e7eff1d82e926ec794901d17c78024a50270940304540a733656f0d339380a4600190565b505090565b906000918083526005602052604083209160018060a01b03169182845260205260ff604084205416600014610923578083526005602052604083208284526020526040832060ff1981541690557ff6391f5c32d9c69d2a47ea670b442974b53935d1edc7fd64eb21e047a839171b339380a4600190565b916001600160a01b03808416928315610a645716928315610a4b5760009083825281602052604082205490838210610a19575091604082827fddf252ad1be2c89b69c2b068fc378daa952ba7f163c4a11628f55a4df523b3ef958760209652828652038282205586815220818154019055604051908152a3565b60405163391434e360e21b81526001600160a01b03919091166004820152602481019190915260448101839052606490fd5b60405163ec442f0560e01b815260006004820152602490fd5b604051634b637e8f60e11b815260006004820152602490fdfea2646970667358221220c07a2d0815915ff3b77a138bac628fd89a4a3a7ff0b10c1e6154869b0393bf5264736f6c634300081400330000000000000000000000002690eef879df58b97ec7cf830f7627fb1b51f826",
        "nonce": "0xe",
        "chainId": "0x221"
      },
      "additionalContracts": [],
      "isFixedGasLimit": false
    },
    {
      "hash": "0x8aa7184fd88a664d5929752cffe826aca846e691311f0f16b72d68a4336f9209",
      "transactionType": "CREATE",
      "contractName": "ERC20MintableMock",
      "contractAddress": "0x9801f2846405620cb2a4a9346670e1283516c739",
      "function": null,
      "arguments": [
        "0x2690eEF879dF58B97ec7CF830F7627Fb1B51f826"
      ],
      "transaction": {
        "from": "0x2690eef879df58b97ec7cf830f7627fb1b51f826",
        "gas": "0xe7c65",
        "value": "0x0",
        "input": "0x6080346200034557601f90601f196001600160401b0362000eb03881900385810184168501838111868210176200024957859282916040528339602094859181010312620003455751926001600160a01b03841684036200034557620000646200034a565b600781526626bcaa37b5b2b760c91b82820152620000816200034a565b95600392838852624d544b60e81b818901528251858111620002495784546001948582811c921680156200033a575b8483101462000324578185849311620002ce575b5083908583116001146200026b576000926200025f575b505060001982871b1c191690841b1784555b8751948511620002495760049586548481811c911680156200023e575b838210146200022957838111620001de575b5081928611600114620001705750508392918391620001539860009562000164575b50501b92600019911b1c19161790556200036a565b50604051610ab39081620003fd8239f35b0151935038806200013e565b85949291939516978660005283600020936000905b8a8210620001c657505084620001539910620001ab575b50505050811b0190556200036a565b01519060f884600019921b161c19169055388080806200019c565b80888597829496860151815501960193019062000185565b87600052826000208480890160051c820192858a106200021f575b0160051c019085905b828110620002125750506200011c565b6000815501859062000202565b92508192620001f9565b602288634e487b7160e01b6000525260246000fd5b90607f16906200010a565b634e487b7160e01b600052604160045260246000fd5b015190503880620000db565b90898794169188600052856000209260005b87828210620002b757505084116200029e575b505050811b018455620000ed565b015160001983891b60f8161c1916905538808062000290565b8385015186558a979095019493840193016200027d565b90915086600052836000208580850160051c8201928686106200031a575b918891869594930160051c01915b8281106200030a575050620000c4565b60008155859450889101620002fa565b92508192620002ec565b634e487b7160e01b600052602260045260246000fd5b91607f1691620000b0565b600080fd5b60408051919082016001600160401b038111838210176200024957604052565b6001600160a01b031660008181527f05b8ccbb9d4d8fb16ea74ce3c29a41f1b461fbdaff4714a0d9a8eb05499746bc602052604081205490919060ff16620003f85781805260056020526040822081835260205260408220600160ff1982541617905533917f2f8788117e7eff1d82e926ec794901d17c78024a50270940304540a733656f0d8180a4600190565b509056fe608060408181526004918236101561001657600080fd5b600092833560e01c91826301ffc9a7146107975750816306fdde03146106bd578163095ea7b31461061357816318160ddd146105f457816323b872dd146104fd578163248a9ca3146104d25781632f2ff15d146104a8578163313ce5671461048c57816336568abe1461044657816340c10f191461039e57816370a082311461036757816391d148541461032057816395d89b4114610201578163a217fddf146101e6578163a9059cbb146101b5578163d53913931461017a578163d547741f14610136575063dd62ed3e146100eb57600080fd5b3461013257806003193601126101325780602092610107610833565b61010f61084e565b6001600160a01b0391821683526001865283832091168252845220549051908152f35b5080fd5b91905034610176578060031936011261017657610172913561016d600161015b61084e565b93838752600560205286200154610864565b610928565b5080f35b8280fd5b505034610132578160031936011261013257602090517f9f2df0fed2c77648de5860a4cc508cd0818c85b8b8a1ab4ceeef8d981c8956a68152f35b5050346101325780600319360112610132576020906101df6101d5610833565b602435903361099f565b5160018152f35b50503461013257816003193601126101325751908152602090f35b838334610132578160031936011261013257805190828454600181811c90808316928315610316575b6020938484108114610303578388529081156102e75750600114610292575b505050829003601f01601f191682019267ffffffffffffffff84118385101761027f575082918261027b9252826107ea565b0390f35b634e487b7160e01b815260418552602490fd5b8787529192508591837f8a35acfbc15ff81a39ae7d344fd709f28e8600b4aa8c65c6b64bfe7fe36bd19b5b8385106102d35750505050830101858080610249565b8054888601830152930192849082016102bd565b60ff1916878501525050151560051b8401019050858080610249565b634e487b7160e01b895260228a52602489fd5b91607f169161022a565b9050346101765781600319360112610176578160209360ff9261034161084e565b90358252600586528282206001600160a01b039091168252855220549151911615158152f35b5050346101325760203660031901126101325760209181906001600160a01b0361038f610833565b16815280845220549051908152f35b919050346101765780600319360112610176576103b9610833565b6001600160a01b03169160243591908315610431576002549083820180921161041e575084927fddf252ad1be2c89b69c2b068fc378daa952ba7f163c4a11628f55a4df523b3ef9260209260025585855284835280852082815401905551908152a380f35b634e487b7160e01b865260119052602485fd5b84602492519163ec442f0560e01b8352820152fd5b83833461013257806003193601126101325761046061084e565b90336001600160a01b0383160361047d5750610172919235610928565b5163334bd91960e11b81528390fd5b5050346101325781600319360112610132576020905160128152f35b9190503461017657806003193601126101765761017291356104cd600161015b61084e565b6108a8565b9050346101765760203660031901126101765781602093600192358152600585522001549051908152f35b905082346105f15760603660031901126105f157610519610833565b61052161084e565b916044359360018060a01b03831680835260016020528683203384526020528683205491600019830361055d575b6020886101df89898961099f565b8683106105c55781156105ae573315610597575082526001602090815286832033845281529186902090859003905582906101df8761054f565b8751634a1406b160e11b8152908101849052602490fd5b875163e602df0560e01b8152908101849052602490fd5b8751637dc7a0d960e11b8152339181019182526020820193909352604081018790528291506060010390fd5b80fd5b5050346101325781600319360112610132576020906002549051908152f35b90503461017657816003193601126101765761062d610833565b6024359033156106a6576001600160a01b031691821561068f57508083602095338152600187528181208582528752205582519081527f8c5be1e5ebec7d5bd14f71427d1e84f3dd0314c0f7b2291e5b200ac8c7c3b925843392a35160018152f35b8351634a1406b160e11b8152908101859052602490fd5b835163e602df0560e01b8152808401869052602490fd5b83833461013257816003193601126101325780519082600354600181811c9080831692831561078d575b6020938484108114610303578388529081156102e7575060011461073757505050829003601f01601f191682019267ffffffffffffffff84118385101761027f575082918261027b9252826107ea565b600387529192508591837fc2575a0e9e593c00f959f8c92f12db2869c3395a3b0502d05e2516446f71f85b5b8385106107795750505050830101858080610249565b805488860183015293019284908201610763565b91607f16916106e7565b849134610176576020366003190112610176573563ffffffff60e01b81168091036101765760209250637965db0b60e01b81149081156107d9575b5015158152f35b6301ffc9a760e01b149050836107d2565b6020808252825181830181905290939260005b82811061081f57505060409293506000838284010152601f8019910116010190565b8181018601518482016040015285016107fd565b600435906001600160a01b038216820361084957565b600080fd5b602435906001600160a01b038216820361084957565b80600052600560205260406000203360005260205260ff604060002054161561088a5750565b6044906040519063e2517d3f60e01b82523360048301526024820152fd5b906000918083526005602052604083209160018060a01b03169182845260205260ff604084205416156000146109235780835260056020526040832082845260205260408320600160ff198254161790557f2f8788117e7eff1d82e926ec794901d17c78024a50270940304540a733656f0d339380a4600190565b505090565b906000918083526005602052604083209160018060a01b03169182845260205260ff604084205416600014610923578083526005602052604083208284526020526040832060ff1981541690557ff6391f5c32d9c69d2a47ea670b442974b53935d1edc7fd64eb21e047a839171b339380a4600190565b916001600160a01b03808416928315610a645716928315610a4b5760009083825281602052604082205490838210610a19575091604082827fddf252ad1be2c89b69c2b068fc378daa952ba7f163c4a11628f55a4df523b3ef958760209652828652038282205586815220818154019055604051908152a3565b60405163391434e360e21b81526001600160a01b03919091166004820152602481019190915260448101839052606490fd5b60405163ec442f0560e01b815260006004820152602490fd5b604051634b637e8f60e11b815260006004820152602490fdfea2646970667358221220c07a2d0815915ff3b77a138bac628fd89a4a3a7ff0b10c1e6154869b0393bf5264736f6c634300081400330000000000000000000000002690eef879df58b97ec7cf830f7627fb1b51f826",
        "nonce": "0xf",
        "chainId": "0x221"
      },
      "additionalContracts": [],
      "isFixedGasLimit": false
    },
    {
      "hash": "0xa1ac48cfbd444ac5b7c12456675f1df155a71cd2549989974659c39fd927b304",
      "transactionType": "CALL",
      "contractName": null,
      "contractAddress": "0x5d7de68283a0afcd5a1411596577cc389cdf4bae",
      "function": "createMarket((address,address,address,address,uint256))",
      "arguments": [
        "(0x02Df64De672e837A21701D79c3b6e24B7ab670cf, 0x9801f2846405620CB2A4a9346670e1283516C739, 0xC1aB56955958Ac8379567157740F18AAadD8cD04, 0xcfc5f61bff3FEc063a73038e97bbe883360547E7, 800000000000000000)"
      ],
      "transaction": {
        "from": "0x2690eef879df58b97ec7cf830f7627fb1b51f826",
        "to": "0x5d7de68283a0afcd5a1411596577cc389cdf4bae",
        "gas": "0xade2e",
        "value": "0x0",
        "input": "0x8c1358a200000000000000000000000002df64de672e837a21701d79c3b6e24b7ab670cf0000000000000000000000009801f2846405620cb2a4a9346670e1283516c739000000000000000000000000c1ab56955958ac8379567157740f18aaadd8cd04000000000000000000000000cfc5f61bff3fec063a73038e97bbe883360547e70000000000000000000000000000000000000000000000000b1a2bc2ec500000",
        "nonce": "0x10",
        "chainId": "0x221"
      },
      "additionalContracts": [
        {
          "transactionType": "CREATE",
          "address": "0x2eeaa5022fc138f9918a1543017dcf495c47041b",
          "initCode": "0x3d602d80600a3d3981f3363d3d373d3d3d363d738852ce02f983570496c433630c6eee98b3c96c835af43d82803e903d91602b57fd5bf3"
        }
      ],
      "isFixedGasLimit": false
    },
    {
      "hash": "0xaa6c686e574bbdfc4efbaaea8301e2bf054a18dd8596e24f68b3eabccfa0db54",
      "transactionType": "CALL",
      "contractName": null,
      "contractAddress": "0x5d7de68283a0afcd5a1411596577cc389cdf4bae",
      "function": "setCategoryInfo(bytes32,uint112[],uint16[],uint128[])",
      "arguments": [
        "0x880b7ab7bba15d0d1aadfbb18ce169ec338eb09c785b12ba03b7242ed8b885c7",
        "[2000000000000000000, 2000000000000000000, 2000000000000000000, 2000000000000000000, 2000000000000000000]",
        "[4, 8, 12, 16, 24]",
        "[1000000000000000000, 1200000000000000000, 1400000000000000000, 1600000000000000000, 2000000000000000000]"
      ],
      "transaction": {
        "from": "0x2690eef879df58b97ec7cf830f7627fb1b51f826",
        "to": "0x5d7de68283a0afcd5a1411596577cc389cdf4bae",
        "gas": "0x29de38",
        "value": "0x0",
        "input": "0x6e97735f880b7ab7bba15d0d1aadfbb18ce169ec338eb09c785b12ba03b7242ed8b885c700000000000000000000000000000000000000000000000000000000000000800000000000000000000000000000000000000000000000000000000000000140000000000000000000000000000000000000000000000000000000000000020000000000000000000000000000000000000000000000000000000000000000050000000000000000000000000000000000000000000000001bc16d674ec800000000000000000000000000000000000000000000000000001bc16d674ec800000000000000000000000000000000000000000000000000001bc16d674ec800000000000000000000000000000000000000000000000000001bc16d674ec800000000000000000000000000000000000000000000000000001bc16d674ec80000000000000000000000000000000000000000000000000000000000000000000500000000000000000000000000000000000000000000000000000000000000040000000000000000000000000000000000000000000000000000000000000008000000000000000000000000000000000000000000000000000000000000000c0000000000000000000000000000000000000000000000000000000000000010000000000000000000000000000000000000000000000000000000000000001800000000000000000000000000000000000000000000000000000000000000050000000000000000000000000000000000000000000000000de0b6b3a764000000000000000000000000000000000000000000000000000010a741a462780000000000000000000000000000000000000000000000000000136dcc951d8c000000000000000000000000000000000000000000000000000016345785d8a000000000000000000000000000000000000000000000000000001bc16d674ec80000",
        "nonce": "0x11",
        "chainId": "0x221"
      },
      "additionalContracts": [],
      "isFixedGasLimit": false
    },
    {
      "hash": "0xe0661ad5c52fbfad64cd0406c3941adb19a66069c0b6ee6f597f1154730fd27e",
      "transactionType": "CALL",
      "contractName": "ERC20MintableMock",
      "contractAddress": "0x02df64de672e837a21701d79c3b6e24b7ab670cf",
      "function": "mint(address,uint256)",
      "arguments": [
        "0x2690eEF879dF58B97ec7CF830F7627Fb1B51f826",
        "1000000000000000000000000"
      ],
      "transaction": {
        "from": "0x2690eef879df58b97ec7cf830f7627fb1b51f826",
        "to": "0x02df64de672e837a21701d79c3b6e24b7ab670cf",
        "gas": "0x1702a",
        "value": "0x0",
        "input": "0x40c10f190000000000000000000000002690eef879df58b97ec7cf830f7627fb1b51f82600000000000000000000000000000000000000000000d3c21bcecceda1000000",
        "nonce": "0x12",
        "chainId": "0x221"
      },
      "additionalContracts": [],
      "isFixedGasLimit": false
    },
    {
      "hash": "0xa94c65a561600afdda62dae2b152f6d7fd883284320ff8c7a296a430e532689a",
      "transactionType": "CALL",
      "contractName": "ERC20MintableMock",
      "contractAddress": "0x02df64de672e837a21701d79c3b6e24b7ab670cf",
      "function": "approve(address,uint256)",
      "arguments": [
        "0x5D7de68283A0AFcd5A1411596577CC389CDF4BAE",
        "1000000000000000000000000"
      ],
      "transaction": {
        "from": "0x2690eef879df58b97ec7cf830f7627fb1b51f826",
        "to": "0x02df64de672e837a21701d79c3b6e24b7ab670cf",
        "gas": "0xf845",
        "value": "0x0",
        "input": "0x095ea7b30000000000000000000000005d7de68283a0afcd5a1411596577cc389cdf4bae00000000000000000000000000000000000000000000d3c21bcecceda1000000",
        "nonce": "0x13",
        "chainId": "0x221"
      },
      "additionalContracts": [],
      "isFixedGasLimit": false
    },
    {
      "hash": "0xe2c671c9478b40cb3706cb49f4cdcc69cd8d714688e6342f10812caf4e433c40",
      "transactionType": "CALL",
      "contractName": "ERC20MintableMock",
      "contractAddress": "0x9801f2846405620cb2a4a9346670e1283516c739",
      "function": "mint(address,uint256)",
      "arguments": [
        "0x2690eEF879dF58B97ec7CF830F7627Fb1B51f826",
        "1000000000000000000000000"
      ],
      "transaction": {
        "from": "0x2690eef879df58b97ec7cf830f7627fb1b51f826",
        "to": "0x9801f2846405620cb2a4a9346670e1283516c739",
        "gas": "0x1702a",
        "value": "0x0",
        "input": "0x40c10f190000000000000000000000002690eef879df58b97ec7cf830f7627fb1b51f82600000000000000000000000000000000000000000000d3c21bcecceda1000000",
        "nonce": "0x14",
        "chainId": "0x221"
      },
      "additionalContracts": [],
      "isFixedGasLimit": false
    },
    {
      "hash": "0xbaafff981a96f2178cc4c397ea0f6cd81c200e3e7bc9ecfa3228fa31dfdb329b",
      "transactionType": "CALL",
      "contractName": "ERC20MintableMock",
      "contractAddress": "0x9801f2846405620cb2a4a9346670e1283516c739",
      "function": "approve(address,uint256)",
      "arguments": [
        "0x5D7de68283A0AFcd5A1411596577CC389CDF4BAE",
        "1000000000000000000000000"
      ],
      "transaction": {
        "from": "0x2690eef879df58b97ec7cf830f7627fb1b51f826",
        "to": "0x9801f2846405620cb2a4a9346670e1283516c739",
        "gas": "0xf845",
        "value": "0x0",
        "input": "0x095ea7b30000000000000000000000005d7de68283a0afcd5a1411596577cc389cdf4bae00000000000000000000000000000000000000000000d3c21bcecceda1000000",
        "nonce": "0x15",
        "chainId": "0x221"
      },
      "additionalContracts": [],
      "isFixedGasLimit": false
    },
    {
      "hash": "0x701b4442d93d9d173961695309e727569732778080cd58bf4040699949121dff",
      "transactionType": "CALL",
      "contractName": null,
      "contractAddress": "0x5d7de68283a0afcd5a1411596577cc389cdf4bae",
      "function": "supply((address,address,address,address,uint256),uint256,uint256,address,bytes)",
      "arguments": [
        "(0x02Df64De672e837A21701D79c3b6e24B7ab670cf, 0x9801f2846405620CB2A4a9346670e1283516C739, 0xC1aB56955958Ac8379567157740F18AAadD8cD04, 0xcfc5f61bff3FEc063a73038e97bbe883360547E7, 800000000000000000)",
        "10000000000000000000000",
        "0",
        "0x2690eEF879dF58B97ec7CF830F7627Fb1B51f826",
        "0x"
      ],
      "transaction": {
        "from": "0x2690eef879df58b97ec7cf830f7627fb1b51f826",
        "to": "0x5d7de68283a0afcd5a1411596577cc389cdf4bae",
        "gas": "0x2a8c3",
        "value": "0x0",
        "input": "0xa99aad8900000000000000000000000002df64de672e837a21701d79c3b6e24b7ab670cf0000000000000000000000009801f2846405620cb2a4a9346670e1283516c739000000000000000000000000c1ab56955958ac8379567157740f18aaadd8cd04000000000000000000000000cfc5f61bff3fec063a73038e97bbe883360547e70000000000000000000000000000000000000000000000000b1a2bc2ec50000000000000000000000000000000000000000000000000021e19e0c9bab240000000000000000000000000000000000000000000000000000000000000000000000000000000000000000000002690eef879df58b97ec7cf830f7627fb1b51f82600000000000000000000000000000000000000000000000000000000000001200000000000000000000000000000000000000000000000000000000000000000",
        "nonce": "0x16",
        "chainId": "0x221"
      },
      "additionalContracts": [],
      "isFixedGasLimit": false
    }
  ],
  "receipts": [
    {
      "status": "0x1",
      "cumulativeGasUsed": "0xb258b",
      "logs": [
        {
          "address": "0x02df64de672e837a21701d79c3b6e24b7ab670cf",
          "topics": [
            "0x2f8788117e7eff1d82e926ec794901d17c78024a50270940304540a733656f0d",
            "0x0000000000000000000000000000000000000000000000000000000000000000",
            "0x0000000000000000000000002690eef879df58b97ec7cf830f7627fb1b51f826",
            "0x0000000000000000000000002690eef879df58b97ec7cf830f7627fb1b51f826"
          ],
          "data": "0x",
          "blockHash": "0xc6136eb72060864f196e56b53ec7afae8580141cdf046babf424ab28d1b9bf88",
          "blockNumber": "0xfffc6",
          "transactionHash": "0xe211d755ce5b226bc98c1f9515eccdd4d5d73228081ad156fb5c28e33b16bc35",
          "transactionIndex": "0x0",
          "logIndex": "0x0",
          "removed": false
        }
      ],
      "logsBloom": "0x00000004000000000000000000000000000000000000000000000000000000000000000000200000000000000000000000000000000000000000000000000000000000000000000000002000000000000000000000000000000000000000000000000000020000000000000000000800000000000000000000000000000000000000000000000000000000000000000000000000000000000000000000000000000000000000000000400000000000000000000000000000001040000000000000000000000000000000000000000000000000000000000100000000000020000000000400000000000000000000000000000000000000004000000000000000",
      "type": "0x2",
      "transactionHash": "0xe211d755ce5b226bc98c1f9515eccdd4d5d73228081ad156fb5c28e33b16bc35",
      "transactionIndex": "0x0",
      "blockHash": "0xc6136eb72060864f196e56b53ec7afae8580141cdf046babf424ab28d1b9bf88",
      "blockNumber": "0xfffc6",
      "gasUsed": "0xb258b",
      "effectiveGasPrice": "0x1",
      "from": "0x2690eef879df58b97ec7cf830f7627fb1b51f826",
      "to": null,
      "contractAddress": "0x02df64de672e837a21701d79c3b6e24b7ab670cf"
    },
    {
      "status": "0x1",
      "cumulativeGasUsed": "0xb258b",
      "logs": [
        {
          "address": "0x9801f2846405620cb2a4a9346670e1283516c739",
          "topics": [
            "0x2f8788117e7eff1d82e926ec794901d17c78024a50270940304540a733656f0d",
            "0x0000000000000000000000000000000000000000000000000000000000000000",
            "0x0000000000000000000000002690eef879df58b97ec7cf830f7627fb1b51f826",
            "0x0000000000000000000000002690eef879df58b97ec7cf830f7627fb1b51f826"
          ],
          "data": "0x",
          "blockHash": "0x38cf415b6f84ea5ef77d7ed9b6c4d43b4756611ce55a5624c30547558168a81f",
          "blockNumber": "0xfffd9",
          "transactionHash": "0x8aa7184fd88a664d5929752cffe826aca846e691311f0f16b72d68a4336f9209",
          "transactionIndex": "0x0",
          "logIndex": "0x0",
          "removed": false
        }
      ],
      "logsBloom": "0x00000004000000000080000000000000000000000000000000000000000000000000000000200000000000000000000000000000000000000000000000000000000000000000000000000000000000100000000000000000000000000000000000000000020000000000000000000800000000000000000000000000000000000000000000000000000000000000000000000000000000000000000000000000000000000000000000400000000000000000000000000000001040000000000000000000000000000000000000000000000000000000000100000000000020000000000000000000000000000000000000000000000000008000000000000000",
      "type": "0x2",
      "transactionHash": "0x8aa7184fd88a664d5929752cffe826aca846e691311f0f16b72d68a4336f9209",
      "transactionIndex": "0x0",
      "blockHash": "0x38cf415b6f84ea5ef77d7ed9b6c4d43b4756611ce55a5624c30547558168a81f",
      "blockNumber": "0xfffd9",
      "gasUsed": "0xb258b",
      "effectiveGasPrice": "0x1",
      "from": "0x2690eef879df58b97ec7cf830f7627fb1b51f826",
      "to": null,
      "contractAddress": "0x9801f2846405620cb2a4a9346670e1283516c739"
    },
    {
      "status": "0x1",
      "cumulativeGasUsed": "0x7de44",
      "logs": [
        {
          "address": "0x2eeaa5022fc138f9918a1543017dcf495c47041b",
          "topics": [
            "0x8be0079c531659141344cd1fd0a4f28419497f9722a3daafe3b4186f6b6457e0",
            "0x0000000000000000000000000000000000000000000000000000000000000000",
            "0x000000000000000000000000fdcad24b16c8acd8731f48e8a0399112d7888107"
          ],
          "data": "0x",
          "blockHash": "0x95a3d85b09a4162b3f4e23b6b1ee22cdfd590c1f157b902f17396e71adee29d2",
          "blockNumber": "0xfffed",
          "transactionHash": "0xa1ac48cfbd444ac5b7c12456675f1df155a71cd2549989974659c39fd927b304",
          "transactionIndex": "0x0",
          "logIndex": "0x0",
          "removed": false
        },
        {
          "address": "0x2eeaa5022fc138f9918a1543017dcf495c47041b",
          "topics": [
            "0x8be0079c531659141344cd1fd0a4f28419497f9722a3daafe3b4186f6b6457e0",
            "0x000000000000000000000000fdcad24b16c8acd8731f48e8a0399112d7888107",
            "0x0000000000000000000000005d7de68283a0afcd5a1411596577cc389cdf4bae"
          ],
          "data": "0x",
          "blockHash": "0x95a3d85b09a4162b3f4e23b6b1ee22cdfd590c1f157b902f17396e71adee29d2",
          "blockNumber": "0xfffed",
          "transactionHash": "0xa1ac48cfbd444ac5b7c12456675f1df155a71cd2549989974659c39fd927b304",
          "transactionIndex": "0x0",
          "logIndex": "0x1",
          "removed": false
        },
        {
          "address": "0x2eeaa5022fc138f9918a1543017dcf495c47041b",
          "topics": [
            "0x7f26b83ff96e1f2b6a682f133852f6798a09c465da95921460cefb3847402498"
          ],
          "data": "0x0000000000000000000000000000000000000000000000000000000000000001",
          "blockHash": "0x95a3d85b09a4162b3f4e23b6b1ee22cdfd590c1f157b902f17396e71adee29d2",
          "blockNumber": "0xfffed",
          "transactionHash": "0xa1ac48cfbd444ac5b7c12456675f1df155a71cd2549989974659c39fd927b304",
          "transactionIndex": "0x0",
          "logIndex": "0x2",
          "removed": false
        },
        {
          "address": "0xfdcad24b16c8acd8731f48e8a0399112d7888107",
          "topics": [
            "0x6d7227d9bbb893748017ba3c332f62a2ea59214189741458be5865587226433c"
          ],
          "data": "0x0000000000000000000000005d7de68283a0afcd5a1411596577cc389cdf4bae0000000000000000000000002eeaa5022fc138f9918a1543017dcf495c47041b",
          "blockHash": "0x95a3d85b09a4162b3f4e23b6b1ee22cdfd590c1f157b902f17396e71adee29d2",
          "blockNumber": "0xfffed",
          "transactionHash": "0xa1ac48cfbd444ac5b7c12456675f1df155a71cd2549989974659c39fd927b304",
          "transactionIndex": "0x0",
          "logIndex": "0x3",
          "removed": false
        },
        {
          "address": "0x5d7de68283a0afcd5a1411596577cc389cdf4bae",
          "topics": [
            "0xac4b2400f169220b0c0afdde7a0b32e775ba727ea1cb30b35f935cdaab8683ac",
            "0x880b7ab7bba15d0d1aadfbb18ce169ec338eb09c785b12ba03b7242ed8b885c7"
          ],
          "data": "0x00000000000000000000000002df64de672e837a21701d79c3b6e24b7ab670cf0000000000000000000000009801f2846405620cb2a4a9346670e1283516c739000000000000000000000000c1ab56955958ac8379567157740f18aaadd8cd04000000000000000000000000cfc5f61bff3fec063a73038e97bbe883360547e70000000000000000000000000000000000000000000000000b1a2bc2ec500000",
          "blockHash": "0x95a3d85b09a4162b3f4e23b6b1ee22cdfd590c1f157b902f17396e71adee29d2",
          "blockNumber": "0xfffed",
          "transactionHash": "0xa1ac48cfbd444ac5b7c12456675f1df155a71cd2549989974659c39fd927b304",
          "transactionIndex": "0x0",
          "logIndex": "0x4",
          "removed": false
        },
        {
          "address": "0xcfc5f61bff3fec063a73038e97bbe883360547e7",
          "topics": [
            "0x7120161a7b3d31251e01294ab351ef15a41b91659a36032e4641bb89b121e321",
            "0x880b7ab7bba15d0d1aadfbb18ce169ec338eb09c785b12ba03b7242ed8b885c7"
          ],
          "data": "0x0000000000000000000000000000000000000000000000000000000012e687bf000000000000000000000000000000000000000000000000000000004b9a1eff",
          "blockHash": "0x95a3d85b09a4162b3f4e23b6b1ee22cdfd590c1f157b902f17396e71adee29d2",
          "blockNumber": "0xfffed",
          "transactionHash": "0xa1ac48cfbd444ac5b7c12456675f1df155a71cd2549989974659c39fd927b304",
          "transactionIndex": "0x0",
          "logIndex": "0x5",
          "removed": false
        }
      ],
      "logsBloom": "0x00000000000100000000010000000800000000000000000000800000000000000000000000020004000000000000000000000002400004000000000000804000000000000000000000000000000000010021000000000000000000000080000000000000020000000000000000000800000200900000000000000040000000400000000000000040000000000000000000000000000080000080000000000000000000000020000000000000000400000000001000000000000000000000000000000000000000200000000000040100000000010000000100000080000020400000000000020000000000000001000000000000000000000000000000000010",
      "type": "0x2",
      "transactionHash": "0xa1ac48cfbd444ac5b7c12456675f1df155a71cd2549989974659c39fd927b304",
      "transactionIndex": "0x0",
      "blockHash": "0x95a3d85b09a4162b3f4e23b6b1ee22cdfd590c1f157b902f17396e71adee29d2",
      "blockNumber": "0xfffed",
      "gasUsed": "0x7de44",
      "effectiveGasPrice": "0x1",
      "from": "0x2690eef879df58b97ec7cf830f7627fb1b51f826",
      "to": "0x5d7de68283a0afcd5a1411596577cc389cdf4bae",
      "contractAddress": null
    },
    {
      "status": "0x1",
      "cumulativeGasUsed": "0x1e4fcd",
      "logs": [],
      "logsBloom": "0x00000000000000000000000000000000000000000000000000000000000000000000000000000000000000000000000000000000000000000000000000000000000000000000000000000000000000000000000000000000000000000000000000000000000000000000000000000000000000000000000000000000000000000000000000000000000000000000000000000000000000000000000000000000000000000000000000000000000000000000000000000000000000000000000000000000000000000000000000000000000000000000000000000000000000000000000000000000000000000000000000000000000000000000000000000000",
      "type": "0x2",
      "transactionHash": "0xaa6c686e574bbdfc4efbaaea8301e2bf054a18dd8596e24f68b3eabccfa0db54",
      "transactionIndex": "0x0",
      "blockHash": "0xf2481a41d9bc3d51d01e7ba9627e5562895233459ac2cfff05573103cd573c98",
      "blockNumber": "0xfffff",
      "gasUsed": "0x1e4fcd",
      "effectiveGasPrice": "0x1",
      "from": "0x2690eef879df58b97ec7cf830f7627fb1b51f826",
      "to": "0x5d7de68283a0afcd5a1411596577cc389cdf4bae",
      "contractAddress": null
    },
    {
      "status": "0x1",
      "cumulativeGasUsed": "0x10a8c",
      "logs": [
        {
          "address": "0x02df64de672e837a21701d79c3b6e24b7ab670cf",
          "topics": [
            "0xddf252ad1be2c89b69c2b068fc378daa952ba7f163c4a11628f55a4df523b3ef",
            "0x0000000000000000000000000000000000000000000000000000000000000000",
            "0x0000000000000000000000002690eef879df58b97ec7cf830f7627fb1b51f826"
          ],
          "data": "0x00000000000000000000000000000000000000000000d3c21bcecceda1000000",
          "blockHash": "0x94508d3e57e0c908de8e131703032e88701834faffe3a9eb69e78911e36012fa",
          "blockNumber": "0x10000b",
          "transactionHash": "0xe0661ad5c52fbfad64cd0406c3941adb19a66069c0b6ee6f597f1154730fd27e",
          "transactionIndex": "0x0",
          "logIndex": "0x0",
          "removed": false
        }
      ],
      "logsBloom": "0x00000000000000000000000000000000000000000000000000000000000000000000000000200000000000000000000000000000000000000000000000000000000000000000000000002008000000000000000000000000000000000000000000000000020000000000000000000800000000000000000000000010000000000000000000000000000000000000000000000000000000000000000000000000000000000000000000400000000000000000000000000000000040000000000000000002000000000000000000000000000000000000000000000000000020000000000400000000000000000000000000000000000000004000000000000000",
      "type": "0x2",
      "transactionHash": "0xe0661ad5c52fbfad64cd0406c3941adb19a66069c0b6ee6f597f1154730fd27e",
      "transactionIndex": "0x0",
      "blockHash": "0x94508d3e57e0c908de8e131703032e88701834faffe3a9eb69e78911e36012fa",
      "blockNumber": "0x10000b",
      "gasUsed": "0x10a8c",
      "effectiveGasPrice": "0x1",
      "from": "0x2690eef879df58b97ec7cf830f7627fb1b51f826",
      "to": "0x02df64de672e837a21701d79c3b6e24b7ab670cf",
      "contractAddress": null
    },
    {
      "status": "0x1",
      "cumulativeGasUsed": "0xb3bf",
      "logs": [
        {
          "address": "0x02df64de672e837a21701d79c3b6e24b7ab670cf",
          "topics": [
            "0x8c5be1e5ebec7d5bd14f71427d1e84f3dd0314c0f7b2291e5b200ac8c7c3b925",
            "0x0000000000000000000000002690eef879df58b97ec7cf830f7627fb1b51f826",
            "0x0000000000000000000000005d7de68283a0afcd5a1411596577cc389cdf4bae"
          ],
          "data": "0x00000000000000000000000000000000000000000000d3c21bcecceda1000000",
          "blockHash": "0x8c3f2ad0374c0a108c04415de391076cd7fabc0842f249f64ce25f698f9e92be",
          "blockNumber": "0x10001d",
          "transactionHash": "0xa94c65a561600afdda62dae2b152f6d7fd883284320ff8c7a296a430e532689a",
          "transactionIndex": "0x0",
          "logIndex": "0x0",
          "removed": false
        }
      ],
      "logsBloom": "0x00000000000000000000000000000000000000000000000000000000000000000000000000200000000000000000000000000000400000000000000000200000000000000000000000002000000000000000000000000000000000000000000000000000000000000000000000000000000000000000000000000000000000000000000000000000000000000000000000000000000000000000000000000000020000000000000000400000000000000000001000000000000040000000000000000000000000000000000000000000000000010000000000000000000000000010000400000000000000000000000000000000000000004000000000000000",
      "type": "0x2",
      "transactionHash": "0xa94c65a561600afdda62dae2b152f6d7fd883284320ff8c7a296a430e532689a",
      "transactionIndex": "0x0",
      "blockHash": "0x8c3f2ad0374c0a108c04415de391076cd7fabc0842f249f64ce25f698f9e92be",
      "blockNumber": "0x10001d",
      "gasUsed": "0xb3bf",
      "effectiveGasPrice": "0x1",
      "from": "0x2690eef879df58b97ec7cf830f7627fb1b51f826",
      "to": "0x02df64de672e837a21701d79c3b6e24b7ab670cf",
      "contractAddress": null
    },
    {
      "status": "0x1",
      "cumulativeGasUsed": "0x10a8c",
      "logs": [
        {
          "address": "0x9801f2846405620cb2a4a9346670e1283516c739",
          "topics": [
            "0xddf252ad1be2c89b69c2b068fc378daa952ba7f163c4a11628f55a4df523b3ef",
            "0x0000000000000000000000000000000000000000000000000000000000000000",
            "0x0000000000000000000000002690eef879df58b97ec7cf830f7627fb1b51f826"
          ],
          "data": "0x00000000000000000000000000000000000000000000d3c21bcecceda1000000",
          "blockHash": "0xb054d14f6c629d2efc391a87d90dd917ee037b3ca3f60d90d241da22ec6df2d2",
          "blockNumber": "0x10002b",
          "transactionHash": "0xe2c671c9478b40cb3706cb49f4cdcc69cd8d714688e6342f10812caf4e433c40",
          "transactionIndex": "0x0",
          "logIndex": "0x0",
          "removed": false
        }
      ],
      "logsBloom": "0x00000000000000000080000000000000000000000000000000000000000000000000000000200000000000000000000000000000000000000000000000000000000000000000000000000008000000100000000000000000000000000000000000000000020000000000000000000800000000000000000000000010000000000000000000000000000000000000000000000000000000000000000000000000000000000000000000400000000000000000000000000000000040000000000000000002000000000000000000000000000000000000000000000000000020000000000000000000000000000000000000000000000000008000000000000000",
      "type": "0x2",
      "transactionHash": "0xe2c671c9478b40cb3706cb49f4cdcc69cd8d714688e6342f10812caf4e433c40",
      "transactionIndex": "0x0",
      "blockHash": "0xb054d14f6c629d2efc391a87d90dd917ee037b3ca3f60d90d241da22ec6df2d2",
      "blockNumber": "0x10002b",
      "gasUsed": "0x10a8c",
      "effectiveGasPrice": "0x1",
      "from": "0x2690eef879df58b97ec7cf830f7627fb1b51f826",
      "to": "0x9801f2846405620cb2a4a9346670e1283516c739",
      "contractAddress": null
    },
    {
      "status": "0x1",
      "cumulativeGasUsed": "0xb3bf",
      "logs": [
        {
          "address": "0x9801f2846405620cb2a4a9346670e1283516c739",
          "topics": [
            "0x8c5be1e5ebec7d5bd14f71427d1e84f3dd0314c0f7b2291e5b200ac8c7c3b925",
            "0x0000000000000000000000002690eef879df58b97ec7cf830f7627fb1b51f826",
            "0x0000000000000000000000005d7de68283a0afcd5a1411596577cc389cdf4bae"
          ],
          "data": "0x00000000000000000000000000000000000000000000d3c21bcecceda1000000",
          "blockHash": "0x7047029e42e4da0db12c67be01028f7cdda3063f31be935f69776e149a34486f",
          "blockNumber": "0x10003e",
          "transactionHash": "0xbaafff981a96f2178cc4c397ea0f6cd81c200e3e7bc9ecfa3228fa31dfdb329b",
          "transactionIndex": "0x0",
          "logIndex": "0x0",
          "removed": false
        }
      ],
      "logsBloom": "0x00000000000000000080000000000000000000000000000000000000000000000000000000200000000000000000000000000000400000000000000000200000000000000000000000000000000000100000000000000000000000000000000000000000000000000000000000000000000000000000000000000000000000000000000000000000000000000000000000000000000000000000000000000000020000000000000000400000000000000000001000000000000040000000000000000000000000000000000000000000000000010000000000000000000000000010000000000000000000000000000000000000000000008000000000000000",
      "type": "0x2",
      "transactionHash": "0xbaafff981a96f2178cc4c397ea0f6cd81c200e3e7bc9ecfa3228fa31dfdb329b",
      "transactionIndex": "0x0",
      "blockHash": "0x7047029e42e4da0db12c67be01028f7cdda3063f31be935f69776e149a34486f",
      "blockNumber": "0x10003e",
      "gasUsed": "0xb3bf",
      "effectiveGasPrice": "0x1",
      "from": "0x2690eef879df58b97ec7cf830f7627fb1b51f826",
      "to": "0x9801f2846405620cb2a4a9346670e1283516c739",
      "contractAddress": null
    }
  ],
  "libraries": [],
  "pending": [],
  "returns": {},
  "timestamp": 1724193580,
  "chain": 545,
  "commit": "7941035"
}
